:020000040100F9
:10880000C0840021D923020103B00201C523020163
:10881000C5230201C5230201C52302010000000097
:108820000000000000000000000000003D250201E3
:10883000C523020100000000D5240201C523020166
:10884000F5260201F5260201F5260201F5260201B0
:10885000F5260201F5260201F5260201F5260201A0
:10886000BFB50201F5260201F5260201F526020137
:108870008BB50201F5260201F5260201F52602015B
:10888000F5260201A5B50201F5260201F526020131
:10889000F5260201F5260201F5260201F526020160
:1088A000F5260201F5260201F5260201F526020150
:1088B000F5260201F526020100000000000000007C
:1088C00000000000000000000000000000000000A8
:1088D0000000000000000000000000000000000098
:1088E0000000000000000000000000000000000088
:1088F0000000000000000000000000000000000078
:108900000000000000000000000000000000000067
:108910000000000000000000000000000000000057
:108920000000000000000000000000000000000047
:108930000000000000000000000000000000000037
:108940000000000000000000000000000000000027
:108950000000000000000000000000000000000017
:108960000000000000000000000000000000000007
:1089700000000000000000000000000000000000F7
:1089800000000000000000000000000000000000E7
:1089900000000000000000000000000000000000D7
:1089A00000000000000000000000000000000000C7
:1089B00000000000000000000000000000000000B7
:1089C00000000000000000000000000000000000A7
:1089D0000000000000000000000000000000000097
:1089E0000000000000000000000000000000000087
:1089F0000000000000000000000000000000000077
:108A0000DEE61E284CBBCE8F023500003C00000085
:108A10004C6B02000100000000880001008800018A
:108A2000FFFF0291000000000000000000000000B5
:0C8A30000000000000000000000000003A
:108A3C00084B1B78002B4FF00003836018BF0222F9
:108A4C00036008BF0122044B4360FF23C271037211
:108A5C00704700BF1007002128010800064A074B89
:108A6C00DB7802604FF43272C371002382800822DB
:108A7C0003728271704700BF870C0201100700213E
:108A8C00064A074B1B7902604FF4B472C371FF2383
:108A9C008280082203728271704700BFD9070201DD
:108AAC00100700212DE9F341C41D0028064624F0CF
:108ABC0007040CBF0020204600F014FD071E04DA4A
:108ACC006FF00B0002B0BDE8F0810EB9FC42F7D498
:108ADC00364D6989288903316B7B03302A7B89B237
:108AEC0080B214F0C8FD0028EADB3C44A978EB788E
:108AFC00002E04F10304194424F0030400FB01F1DB
:108B0C000CBF0020204600F081FE20440EB9002846
:108B1C00D6DB2B790446B3B1697D19446B791944C2
:108B2C00FF29CDDC0330002E2A8AC9B220F00304C1
:108B3C000CBF0020204600F0D9FE0028C0DB044406
:108B4C000EB9002CBCDB012000F0C2FCC8B1A97B23
:108B5C00B9B195F82C300734002B24F0070415BF5D
:108B6C00402325234FF481722822002E14BF204667
:108B7C00002005F079FF0028A2DB04440EB9002C7C
:108B8C009EDBAB7CDBB12B7993B10734002EA97C37
:108B9C0024F007040CBF002020460BF053F80028EB
:108BAC008EDB04445EB9002C09DA89E7100700213A
:108BBC00012000F08DFC10B1AB7B002BE5D1724B8A
:108BCC001B6893B1A97981B10334002EEA7C24F09F
:108BDC0003040CBF0020204698470028FFF670AF16
:108BEC00044416B9002CFFF66BAF684B1B688BB1B5
:108BFC00297D79B10334002E24F003040CBF00202E
:108C0C00204698470028FFF65BAF044416B9002CA9
:108C1C00FFF656AF5E4B1F68B7B1697DA1B1033447
:108C2C00002E2B7E24F0030408BF0020009318BFF5
:108C3C002046EB7DAA7DB8470028FFF641AF0444DF
:108C4C0016B9002CFFF63CAF072000F041FC98B1A0
:108C5C00A97989B10334002EAA7E24F003040CBF39
:108C6C000020204600F030FF0028FFF629AF044416
:108C7C0016B9002CFFF624AFB6FA86F795F8250046
:108C8C007F09A0B10334EB7F297F24F0070419443A
:108C9C003B4644F00404C9B2224600F057FF0028BA
:108CAC00FFF60EAF044416B9002CFFF609AF95F889
:108CBC002610002959D00734002E2A8D24F00708DD
:108CCC000CBF0020404614F0EBFC041EFFF6F8AE7F
:108CDC00444416B9002CFFF6F3AE1EB1298D404664
:108CEC000FF0B6FF95F82010002940D095F82430ED
:108CFC00002B3CD06A8C0734002E24F0070802F1BC
:108D0C0024020CBF0020404692B214F0C9FC041E91
:108D1C00FFF6D6AE444416B9002CFFF6D1AE0334A0
:108D2C00AB7F297F24F0070495F8240019443B46B7
:108D3C0044F00404C9B2224600F0FAFE0028FFF603
:108D4C00BFAE044416B9002CFFF6BAAE3EB16A8C25
:108D5C00404695F82010083292B20FF07FFF2B6B33
:108D6C005BB176B12C630020ACE68846B5E7002EEB
:108D7C00F5D0002211461046EFE7002EF3D1204625
:108D8C00A0E62834FBD59BE65800002160000021AA
:108D9C005C0000211FB572B6194B5D6BE5B9BFF3D2
:108DAC004F8F1849184BCA6802F4E0621343CB602A
:108DBC00BFF34F8F00BFFDE7B4FBF6F4D3B2013223
:108DCC00002CF9D103F110026A4402F80C4C0A226F
:108DDC0033B901A8A847E2E7044600220A26EDE7CA
:108DEC00013BDBB203F110040DEB0406B0FBF2F413
:108DFC0002FB1400303006F80C0C2046E8E700BFEC
:108E0C001007002100ED00E00400FA0513B5114C29
:108E1C006846637B8DF80130237B8DF800306389C5
:108E2C00ADF804302389ADF8023008F02BFF18B1EF
:108E3C00DB210320FFF7AEFF207E08F07FFF08B197
:108E4C00DE21F6E7E07D08F073FF08B1DF21F0E7E3
:108E5C0002B010BD1007002138B5054600283ED0E1
:108E6C0013F044F910B94FF0FF3038BD10F06EFA22
:108E7C00B0F5FA7FF7D81C4C1C486563002500F050
:108E8C00A3FA2A222946A01C84F83850257084F8AD
:108E9C002C50256313F01CFC1B2240F20113228181
:108EAC00628140F2032263800123A2810322237199
:108EBC00A2731F22A376F72322824FF402726384DB
:108ECC00FB23628244F601122385E282EFF31084C5
:108EDC0072B600F04BFE2CB962B62046C5E76FF0B7
:108EEC001500C2E72846C0E710070021198E0001C3
:108EFC0038B51446002840F0B9805E4D95F83830EE
:108F0C00032B00F0B080B1B112B96FF0150038BD71
:108F1C000139142900F2AA80DFE801F00B1C1F3480
:108F2C005E67853A6A6D7F404654598B8E9C9FA232
:108F3C0094001378AB700020FFF7B4FD0028B7BF86
:108F4C00012302236FF00B0085F83830A8BF85F899
:108F5C003830DCE71378EB70EDE71379002BD4D0C5
:108F6C005379002BD1D01288FB2ACED81A2A6388C9
:108F7C00CBD91B3BE02BC8D82368A288AB603E4BF7
:108F8C009A80D8E713786A799342BED32B71D2E7D3
:108F9C0013782A799342B8D86B71CCE713782A7975
:108FAC009342B2D86B75C6E71378002BADD05378CB
:108FBC00013BDBB2F82BA8D813889278EB822F4BAD
:108FCC009A70B8E7107868760DF0FEFFB3E7137867
:108FDC00002B9AD0AB76AEE7012000F079FA23781B
:108FEC0008B1012B91D9AB73A5E713882B82A2E7AB
:108FFC001378AB719FE7072000F06AFA10B9237859
:10900C00012B82D9072000F063FA18B12378002BCA
:10901C003FF47BAF2378EB748DE71378082B3FF686
:10902C0074AF2B7587E71388FF2B3FF66EAFAB74CD
:10903C0081E71378EB767EE713780E2B3FF665AF5E
:10904C002B7778E723680E4A2B6263685360238979
:10905C00138170E713786B776DE71378EB776AE71A
:10906C001378AB7767E74FF0FF3050E76FF02C00C9
:10907C004DE700BF1007002118070021260700212B
:10908C0030070021F8B50D46064630B329B311F070
:10909C00070422D1124F97F83830012B02D16FF010
:1090AC000B00F8BD032B02D14FF0FF30F9E700F0B5
:1090BC00C3F80028F8D02846FFF7F4FC0028EEDBB4
:1090CC000DF088FF3046396B08F0DEFEFFF79EFE90
:1090DC000323204687F83830E3E76FF01500E0E70C
:1090EC001007002110B5074C94F83830032B03D12E
:1090FC0008F0E6FE09F0D6FE14F01AFC002084F805
:10910C00380010BD1007002150B1074B03F11402B9
:10911C0053F8041B934240F8041BF9D1002070470C
:10912C006FF01500704700BF0BEC0201074B10B538
:10913C0093F838403CB908F05DFE0320044900F078
:10914C00BFF9204610BD4FF0FF30FBE710070021A0
:10915C008D8A0001074B10B593F838403CB908F0E4
:10916C005DFE0220044900F0ABF9204610BD4FF023
:10917C00FF30FBE710070021698A000138B5094D63
:10918C0095F8384054B908F06BFE0120064900F000
:10919C0097F90123204685F82C3038BD4FF0FF306D
:1091AC00FBE700BF100700213D8A0001054B10B5FD
:1091BC0093F838401CB908F0CFFD204610BD4FF095
:1091CC00FF30FBE710070021054B10B593F8384032
:1091DC001CB915F055FC204610BD4FF0FF30FBE7D5
:1091EC0010070021054B10B593F838401CB915F049
:1091FC004AFC204610BD4FF0FF30FBE71007002162
:10920C00054B10B593F838401CB915F03FFC2046BF
:10921C0010BD4FF0FF30FBE7100700210268002063
:10922C00014B1A60704700BF4C070021014B1B68B3
:10923C00184700BF4C070021024B1868003818BFB4
:10924C00012070474C070021F7B504462D4E071D31
:10925C002C48376009F03EFE0228054606D1294904
:10926C00204613F096FB284603B0F0BD042842D1EB
:10927C003378092B0AD0262B1ED03146204613F00A
:10928C0002FCB0F5817F2DD3722112E005213E2026
:10929C0013F052FB0028F0D1F37801A9327968461B
:1092AC0043EA0223ADF8003013F097FF0028CFD02B
:1092BC0053210820FFF76EFD1A213E2013F03CFBD2
:1092CC000028DAD17368694601A8C3F30F23ADF8FF
:1092DC00043011238DF8063013F0AFFF0028B7D0FF
:1092EC006521E6E70028B3D0A178207813F024FBA1
:1092FC000028B8D1ACE70828B5D10249204613F0B4
:10930C0080FBB0E750070021074B4FF0FF3141F6CF
:10931C00FF72C3E9001205490022C1E900221F2196
:10932C00C3E90212704700BF00000021540800215D
:10933C003F280CD801380B4BC0F3421200F01F0031
:10934C0053F8223023FA00F000F001007047FF2898
:10935C0006D04038044BC0F3421200F01F00EFE778
:10936C00012070470000002154080021074B0146E2
:10937C00006849681A4603C240F48C221A6041F016
:10938C00107242F4FF625A60704700BF0000002167
:10939C000246024B0068516803C370470800002165
:1093AC00FD28084B16BF00F1FF303F20C0B2420928
:1093BC0000F01F0003EB82039B6823FA00F000F01F
:1093CC000100704700000021014B1860704700BF7E
:1093DC005C08002110B5FFF797FF14F040FD034B1C
:1093EC0004461B6803B19847204610BD5C08002159
:1093FC0070B50C88C27CA6B2C4F30E04931C05880D
:10940C0004F118021D44825AADB21A4443882A440E
:10941C00013AB2FBF5F202FB054292B29342044BC5
:10942C008BBF3340B34313439BB20B8070BD00BF63
:10943C000080FFFF4A1E062A08B50346084604D8DA
:10944C004FF4D1711520FFF7A5FC094A914202D9BE
:10945C0040F2A311F6E711B903B1196008BD2BB1A5
:10946C001B680022C3E901211A1D1A600430F5E7BC
:10947C00FAFFFF7F10B5114B00EB41041A7863899A
:10948C00B3FBF2F303FB0223013A1A44B2F5706FFB
:10949C00027928BF00231A448378B2FBF3F01944F5
:1094AC0003FB1020091AB1FBF3F003FB1013134458
:1094BC006FEA43436FEA5343638110BD6008002198
:1094CC00024B03EB80035960704700BF600800211A
:1094DC00034B03EB80035868003818BF012070471A
:1094EC00600800212DE9F04F10F0070A85B0054601
:1094FC0004D040F261111720FFF74CFC544F044686
:10950C004FF0010B07F14006B146B04657F8043B4B
:10951C008DF80BA03BB101A898479DF80A30082B99
:10952C0001D9E821E7E79DF80B1081BB05B131604B
:10953C00B94506F10406E9D12DB30023DFF814E197
:10954C000F221E468EF8003058F82200013A60B106
:10955C0090F804A08178BAF1FF0F64D14FF00007A6
:10956C008E4207713CBFCEB20123511CECD10BB122
:10957C008EF800600F2640F6FF6A58F82670002F10
:10958C0063D1013EF9D2601B05B0BDE8F08F9DF8A8
:10959C000AC04A1DBCF1020FE64604EB420438BF78
:1095AC004FF0020E53000EF1FF300444CEF10000D8
:1095BC002040BDF808406444CCF1000C013C04EAA6
:1095CC000C04B4F5803F01D3F82194E775B1C31AAC
:1095DC00336099701C8083F803B09DF80C201A71CD
:1095EC00019A4FEA124C1A81A3F806C004FB01043D
:1095FC009EE758F82C90B9F1000F06D099F804B0FA
:10960C00D34504BF99F802904F440CF1FF3CBCF1D8
:10961C00000FEEDA3944FF29A2D90BB18EF80060A5
:10962C0040F2271167E794460027F0E707EB410368
:10963C0009F101093846A3F80AA0FFF71BFF5FFAEE
:10964C0089F1BB788B42F1D89BE74FF00009F6E724
:10965C006408002160080021034B03EB8003586C65
:10966C0000B18078704700BF60080021F8B54FF654
:10967C00FF7305460380184B03EB8103586CB8B19C
:10968C0086780379B3FBF6F206FB1233DBB219468C
:10969C000A1D00EB4202B2F902705488002F09DB5C
:1096AC000131B1FBF6F206FB1211C9B28B42EFD1BC
:1096BC000020F8BDFF29FBD0C4F30E03C4782B8027
:1096CC0024B94FF4D5711720FFF764FB5380BDE824
:1096DC00F84013F0AFBF00BF600800211D4B03EB37
:1096EC00810370B55C6C054644B3030404D54FF498
:1096FC00DC711720FFF74EFB0146204613F07DFF6F
:10970C00FF28014604D02046BDE8704013F092BFFC
:10971C00A078B5FBF0F300FB1353DBB219460A1D1E
:10972C0004EB4206B6F90260002E09DB0131B1FBF5
:10973C00F0F200FB1211C9B28B42F0D1002070BDC7
:10974C00FF29FBD08B4204EB42021CBF0023E370C9
:10975C005580D8E760080021094B03EB81030146D3
:10976C0010B55C6C204613F048FFFF28014604D06E
:10977C002046BDE8104013F05DBF002010BD00BFB7
:10978C0060080021F8B5104B074603EB8103014636
:10979C005C6C204613F031FFFF28054611D0E6889B
:1097AC00238953EA064606D00146204613F042FFB1
:1097BC0001463846B04720462946FFF75BFE00209D
:1097CC00F8BD0520FCE700BF6008002138B50E4B42
:1097DC000446827903EB8203586C08B9052038BD26
:1097EC008278E1799142F9D24B1CE37100EB410391
:1097FC005D89B3F90A30002BF3DBA58013F01AFF57
:10980C0020600020EBE700BF6008002170B5044623
:10981C0010F003000E4603D04F211820FFF7BAFAC0
:10982C00FFF708FE054624B1034831460460FFF7F4
:10983C0001FE284670BD00BFE40800212DE9F14F60
:10984C00DFF870B01E4607460D46DBF80030904638
:10985C009DF828A09DF82C901BB961211820FFF7CA
:10986C0099FA52460921404613F038FD4A4684B213
:10987C000921304613F032FD81B2DBF8000021449F
:10988C0013F090FE386018B9286001B0BDE8F08F75
:10989C0004445346414609222C60386813F0D7FC27
:1098AC004B4609223146286801B0BDE8F04F13F051
:1098BC00CEBC00BFE408002170B50E46044613F080
:1098CC0020FD0546304613F01CFD044B2A1821469A
:1098DC001868BDE8704013F089BE00BFE408002191
:1098EC00014B186813F052BEE40800211F2AF8B58A
:1098FC00044613460ED89200033222F00303B3F54C
:10990C00803F2DD2184DACB1A00710D05F2109209B
:10991C00FFF740FAFF2B4FEA420204D9FF339A4279
:10992C00A8BF1A46E8E77C2AB8BF7C22E4E7297076
:10993C006C602B8122F0030228230127120403FB05
:10994C0001F06B680025120CEEB28E4200D3F8BD0C
:10995C0014B126181F705E60104401352833F3E7EC
:10996C004FF0FF30F3E700BFE8080021144A002154
:10997C0038B553681478C8B2844203D8AB21092097
:10998C00FFF708FA1846013128330578002DF2D07C
:10999C0000218170012412898161051D4470920897
:1099AC00C16100F12001446821F8022B994245F86D
:1099BC00044B1444F8D100234361037038BD00BF3D
:1099CC00E80800210A4B1B89B3F5FF7F4FEA93008F
:1099DC0006D25A089B1A9BB2984238BF1846704759
:1099EC00B3F5EE6F01D8FF22F4E740F27263F3E7B0
:1099FC00E80800212DE9F8434B7880460C4602F02C
:109A0C00040602F0FB07D3B1DFB12E4BD4F804905F
:109A1C001D89B7BB0123AD084A46211D637004F1B3
:109A2C00280004F12003A761E76123F8025B984248
:109A3C0041F8042B2A44F8D10023636101E0002F84
:109A4C00E3D0FF23A370002E18BF0226A3191B7DA1
:109A5C00032B03D1022F1CBF0136F6B2A31901222E
:109A6C001A7506F10C02002304EB860624F812305A
:109A7C007268A3704046C8F80020A8F80430BDE80E
:109A8C00F883002114226170A01812F021FEB5F5A4
:109A9C00FF7F0FD26B08ED1AADB209EB0502C4F8CB
:109AAC0004902584A2606384C4F80C90A584226180
:109ABC00E384C6E7B5F5EE6F4FF0FF03EBD940F248
:109ACC007265EAE7E80800212DE9F84305460C46E3
:109ADC00F7200521914613F001FC061E22DB1DB96F
:109AEC0006FB04F0BDE8F88315F0030703D09821BA
:109AFC001920FFF74FF9DFF83480C8F81050A5B2E1
:109B0C00A8F81460BBB29D42EAD9B8F814C04B4611
:109B1C00D8F810000522F72107FB0C00013713F0D1
:109B2C0096FBEFE74FF0FF30DCE700BFFC080021AD
:109B3C0007B5CDE900230B4603490246081D13F077
:109B4C00D1FE03B05DF804FB1409002113B5064CDB
:109B5C00CDE900230B46024604F1080104F10C0088
:109B6C0013F0C0FE02B010BD14090021144B0122E9
:109B7C0000214FF0FF309A60C3F80012C3F80803BD
:109B8C00C3F80015C3F804259A60C3F808034FF412
:109B9C008040C3F80015C3F8042503F5805341F643
:109BAC00F8720849C3F80825C1F88000BFF34F8F3D
:109BBC00BFF36F8FC1F88001C3F80825704700BF51
:109BCC0000E0004100E100E08C463222064B00B57B
:109BDC000CF8032B8E4607CBCEF80300CCF8041000
:109BEC00CCF808205DF804FB3009002110B5154CA9
:109BFC000EF080FA0DF098FB0021636A608C984798
:109C0C00237E9BB9104B628C93E803000AF0A4F8F6
:109C1C00E36A188809F0CAFF636B94F8301094F863
:109C2C0031009847002384F8383010BD94E80700C1
:109C3C0004F10C0383E80700044904F1190015F042
:109C4C00C1FEDFE7240900214C090021D59B00014E
:109C5C00034B93F8383003B97047FFF7C7BF00BF09
:109C6C002409002140F26741062008B5FFF792F85D
:109C7C0008B5094B93F83820022A07D1DA7A42F05A
:109C8C000102DA72BDE80840FFF7B0BF40F22D21A7
:109C9C002720FFF77FF800BF2409002138B5364D87
:109CAC00044695F828300BB1C2071FD4012924D8DB
:109CBC002B6C2046984700B395F83000E8B995F81E
:109CCC002820E2B18CB995F84430D806C3F30014BF
:109CDC002ED4EB6C23B30123AAB16A8F910713D551
:109CEC00EB6BD878023818BF012038BD6B8F1B077F
:109CFC00DCD5EB6BDB78022BD8D1012038BD002CE6
:109D0C00E1D1204638BD6A8F002AF6D16A6D1078F1
:109D1C0003EA10102043C0F1010000F0010038BD2F
:109D2C00B5F85030B3FA83F35B09002AEBD0D4E7D3
:109D3C00E96B0B7803F00303032B02D1CB78022BD6
:109D4C0018D0A86C13F065FB48B9EB6B1B7803F0CB
:109D5C000303032B06D195F828200446B9E795F8A0
:109D6C002820B6E708F0C8FA80F0010095F8282002
:109D7C00C4B2AEE70024ACE72409002170B5234C33
:109D8C000646E56A636D95F88C2094F85C00A36533
:109D9C000AB1031DD8B2FF2895F86D1004D11EB975
:109DAC0095F86C308B4203D00DF056FE95F88C2054
:109DBC0032B3206E0EF0B6FA94F82830D5F8E820BD
:109DCC00003B216E626718BF0123D5F8EC20A06D13
:109DDC0084F87C30A2670DF045FA46B995F86D30E1
:109DEC00033B012B94BF282000200EF039FB95F883
:109DFC006C1000200EF098FB022384F8383070BDF4
:109E0C00A06D0EF08FFA0DF08FFAE6E72409002111
:109E1C002DE9F0413D4C82B094F83830E56A012BC5
:109E2C006CD15FFA83F895F87C3006460F4673B117
:109E3C00638F0021042043F0040385F87C106387B2
:109E4C00636A984794F828300BB185F87E80E16BF3
:109E5C000B7803F00303032B37D04B788BB302231F
:109E6C0085F8823095F88C30F3B1E36A94F82820A9
:109E7C0093F86D30003A03F1FF3318BF0122DBB2C7
:109E8C0084F87C20D5F8E820032B6267D5F8EC2009
:109E9C00A26794F85C2036D81D490020CB5C00905A
:109EAC0001201C490DF074F9012F05D126B931465A
:109EBC003046FFF7F3FEE0B102B0BDE8F041FFF72A
:109ECC0095BE012385F88230CCE795F8823063B9D2
:109EDC00638F022043F002036387636A9847E16B48
:109EEC000B7803F00303032BB7D1032385F88230DF
:109EFC00B8E702B0BDE8F041FFF740BF40F29D412A
:109F0C002720FEF747FFFFF7ADFE00BF2409002115
:109F1C00C4C902018809002170B5804C002282B0AE
:109F2C00E56A8DF8052095F88C2094F85C300AB120
:109F3C000433DBB2FF2B95F86C1004D118B995F8EB
:109F4C006D308B4202D0FF200DF086FD95F88230EB
:109F5C00032B00F2DE80DFE803F0021C817194F821
:109F6C00BA306F48ADF80630A5F85C3008F09EF9B1
:109F7C00002840F098800DF105020DF10601A06C4F
:109F8C0013F0E7F9E06320B195F8C730002B00F02F
:109F9C00A280644B1846E36395F883200378D200C3
:109FAC0003F0F30302F00802134395F884209200A7
:109FBC0002F00402134303F0EF0203F00303032B3C
:109FCC00027002D1C378022B11D0A06C13F021FACD
:109FDC0048B9E06B027802F00303032B07D008F0BA
:109FEC008BF9002870D1E06B027842F010020270FD
:109FFC0095F88B3013B14378002B41D10EF092F9C8
:10A00C000DF092F9E66B09F067F820B1337803F0A4
:10A01C000303032B5BD095F86D1001200EF084FA2E
:10A02C00E26B012340491088927884F8BC30A4F884
:10A03C00440084F838308A7002B070BD384808F09B
:10A04C0035F900285BD0E06BC3781B2B14D10121B0
:10A05C0005F110000DF032FDE06B0DE0B5F85C3051
:10A06C000DF105020DF10601A06CADF8063013F0F0
:10A07C0070F9E063002847D0012384F8BB308BE7EC
:10A08C00206E0EF04FF994F82830206EB3FA83F35B
:10A09C00D5E938125B09C4E91D12E16B84F87C30F8
:10A0AC000DF0E0F8AEE7638F4FF48070E16B43F492
:10A0BC008073626A638790470121E06B85F87D109D
:10A0CC00C3781B2BD8D1C3E7E06B02788FE7012054
:10A0DC000FF0BEFA9FE79DF8053043B1BDF80610AE
:10A0EC0015F017FC0123E06B84F8BB3054E70380B8
:10A0FC0001218370E06B15F004FBE06BEEE740F29E
:10A10C00D7212720FEF746FE40F2CD212720FEF76F
:10A11C0041FE40F2E5212720FEF73CFE24090021F8
:10A12C0060090021AC090021680900212DE9F04FDC
:10A13C00B84C87B0002294F83830E76A022B0492AE
:10A14C0040F01482638C0D46804613F0400106D11A
:10A15C00636A40209847638C43F040036384B8F1F2
:10A16C00000F5CD097F88C30002B40F05B81D4F85A
:10A17C0058A09AF8013099B2A4F85010002940F078
:10A18C0067810023E3649AF80060638C97F883106E
:10A19C00C6F3800243F400739142638400F0F780AD
:10A1AC00D4F82C9099F88220FAB1022A00F0B881E8
:10A1BC00002194F8283089F8821023B199F87E3068
:10A1CC00002B40F0A38199F87D30002B40F080816A
:10A1DC0099F88330D4F858A0012B0CBF002301232D
:10A1EC0089F88330638C9AF8006097F88410C6F372
:10A1FC00C00243F400634FF000099142638400F005
:10A20C00CE80002608F068FF30B39AF8003003F0D7
:10A21C000303032B20D101200FF01AFA1CE097F84E
:10A22C008C20002A40F01C8143F4806394F8C620F3
:10A23C006384013297F86D3084F8C620033B012B00
:10A24C0005D908F049FF8146002800F0D680002689
:10A25C0001200FF0FDF9B14697F88B3013B394F849
:10A26C00283097F87620B3FA83F3002AD7F8E02049
:10A27C004FEA531314BF0420002084F87C3097F865
:10A28C006C306267013BD7F8E420DBB2A267032B8A
:10A29C0000F27181604A6149D35C00220092FB227A
:10A2AC000CF076FF45B994F8C6100120FFF7F6FCC8
:10A2BC000546002800F0D88001250EF085F9002E07
:10A2CC003BD1B9F1000F09D094F82830002B40F0A5
:10A2DC009680B4F809300133A4F80930B8F1000FB6
:10A2EC004AD0B4F805300022013384F8C620A4F813
:10A2FC0005304B4809F048FC049830B113F026F9AE
:10A30C00E16A0022027208F02FFE36B1E16A0023E6
:10A31C0033720C22304608F0F5FD002D32D1638CDF
:10A32C001B0607D4636A294680209847638C43F048
:10A33C008003638407B0BDE8F08FA16DE36C4E78A9
:10A34C00002B00F01A81B4F850201846033212F09A
:10A35C0055FA0DF10E0205A9A065D4F8C00013F052
:10A36C000BF9059813F0F2F8314601220646D4F8A1
:10A37C00C00013F098F8A4E7B4F807300133A4F840
:10A38C000730B6E7FFF732FC07B0BDE8F08F97F85F
:10A39C008410C6F3C002C14691427FF432AF06F07E
:10A3AC000306D4F82CB0032E64D143F4805301205F
:10A3BC00514600266384638F8BF87C0043F00103C5
:10A3CC006387636A9847D4F858A09BF88430013BA4
:10A3DC0018BF01238BF884309AF80130002B3FF41E
:10A3EC0011AFDBF8E8300133CBF8E830DBF8EC30B8
:10A3FC0043F10003CBF8EC3004E706462CE7B4F845
:10A40C000530B4F80710B7F880200B4313433FF422
:10A41C0065AF5EE724090021C4C902018809002147
:10A42C004C0900210CF0A8FFD4F858A09AF8013080
:10A43C0000287FF4A0AE002B65D09AF8002097F886
:10A44C008410C2F3C00291427BD099B2A4F8501090
:10A45C00D4F8C00012F0FEFFD4F858A0E06492E6E5
:10A46C000CF0CAFF638CDFE6FFF756FD002E3FF4BD
:10A47C0028AF62E7002EA8D09AF80160002EA4D075
:10A48C0043F480539BF88C6063840DF073FA0428BA
:10A49C0094F8C43006D1002E14BF1B221F22934205
:10A4AC0028BF1346D4F858A09AF801209A424ED8E7
:10A4BC00E66C002E3FF4A6AE94F8C530002B53D0BA
:10A4CC00636A0021202000269847D4F858A099E60A
:10A4DC00002689F87D6007F0F9FE002852D0638FC2
:10A4EC003146082043F008036387636A9847D9F81C
:10A4FC00E0300133C9F8E030D9F8E43043F100031F
:10A50C00C9F8E43064E6A4F850303AE6638F1020C2
:10A51C0089F87E1043F010036387636A984752E60C
:10A52C0004A9A06C12F037FF88B3D9F8E0300133DE
:10A53C00C9F8E030D9F8E43043F10003C9F8E4304D
:10A54C0036E6012384F83130FFF750FBF2E694F83D
:10A55C0030300120002643F0100384F830300FF027
:10A56C0077F8D4F858A04DE646462EE740F2115144
:10A57C002720FEF70FFCFFF775FB40F28E412720DA
:10A58C00FEF708FC40F21C412720FEF703FC40F2CA
:10A59C0005412720FEF7FEFB0D4B0E4A70B50E4C05
:10A5AC001A6094F838301BB1DE212720FEF7F2FB3D
:10A5BC0003F0FF0206460D46227609F0C5FB012189
:10A5CC0004F1880015F09DF86665256670BD00BF26
:10A5DC006400002164AA000124090021074A10B577
:10A5EC0092F8383013B10C24204610BD03F0FF0450
:10A5FC00147609F0A9FB204610BD00BF24090021E8
:10A60C00024B012283F8C520704700BF24090021AA
:10A61C00F0B585B0C24C02AD85E8030094F8381053
:10A62C000A98002940F07781002B18BF002A00F00F
:10A63C007281B0FA80F14909002800F06C81236422
:10A64C0004F12803606384F8C51084F8301084F892
:10A65C00C61084F8311084F8BC1084F8BB106187E4
:10A66C006184626295E8030083E80300E56A0DF0FB
:10A67C0059FA0CF059FE95F974000DF053FBA86AC9
:10A68C000DF034FE286A0DF053FB95F89C000DF08C
:10A69C0059FB95F87630002B40F0C58096200DF0D4
:10A6AC0053F994F82800002840F0C58095F86C20E8
:10A6BC009C4B03EB420399889B4B01F5FA71A3FB6E
:10A6CC00013189097D310DF0B9FC984B984E186811
:10A6DC000DF012FED5F8F000D5F8F410E76AD5E9C4
:10A6EC000523A264C4F8C030D5F8F820D5F8FC30A6
:10A6FC000FC6D5F80031D5F80421C4F87D3097F891
:10A70C008630C6F80D20A3F12602012A40F29A8069
:10A71C0097F88720262A00F09580213B012B00F228
:10A72C00E280242A40F0D18094F82830002B00F0ED
:10A73C00DD8097F8652097F8263197F86C60134008
:10A74C005A0700F1CC8013F0010240F0DD809B072A
:10A75C0000F1D28005F134073146384615F0F1F995
:10A76C00314614F025FCB5F84030024695F86D10D2
:10A77C003846934228BF134684F8BA3015F0A7F92F
:10A78C0095F86D1095F88C700429B5F8486008BFE1
:10A79C00032114F00DFC0FB9043080B2B04228BF75
:10A7AC003046C6B284F8C46008F096FC00287ED10E
:10A7BC0094F8280084F85C6000285AD195F88B3006
:10A7CC00E3B195F86C30012295F87610013B84F8D2
:10A7DC007C200029D5F8E020DBB218BF042062678A
:10A7EC00032BD5F8E420A26700F2A4804D4A002187
:10A7FC00D35CFB2200914E490CF0CAFC0120FFF700
:10A80C008BFB0023B5F8800095F89C20A360C4E96D
:10A81C0000332B6F29886080218022710BB10122BB
:10A82C001A6005B0F0BD4D200DF08EF894F828009C
:10A83C0000283FF43BAF95F86D209C2101200DF0D2
:10A84C00FDFB42E794F82830002B37D197F8FA310A
:10A85C0097F86C60002B3FF47DAFF21E012A3ED9B5
:10A86C00DA1E012A3BD9012E3BD0012B39D002260E
:10A87C0070E795F88C30B3B1D5F8E83001206367F8
:10A88C00D5F8EC3084F87C00A36795F86D30013B6B
:10A89C00DBB2032B4ED823493246CB5C002100910E
:10A8AC0023490CF075FC0120FFF768FAA9E708F0C2
:10A8BC0019FCB04238BF3046C6B279E797F89232ED
:10A8CC0097F86C60002BC8D144E794F828306BB132
:10A8DC0097F8263197F86C6059077FF534AF04264A
:10A8EC0038E7012636E7242A3FF41EAF97F86C6050
:10A8FC00032E08BF04262DE7F31EDBB2012BEED985
:10A90C00012E18BF022625E7F31EDBB2012B8CBFEC
:10A91C00164604261EE740F26D112720FEF73AFA80
:10A92C0024090021C4C90201D34D62106400002126
:10A93C0088090021FFF796F908B5124B93F83820D7
:10A94C0092B193F8282022B993F83830012B14D106
:10A95C0008BD93F83820022A0AD1DB6AD3F8D0015B
:10A96C00BDE808400DF04EBDBDE80840FFF73EB90C
:10A97C0040F20F212720FEF70DFA40F20B21272081
:10A98C00FEF708FA24090021FFF730B9014B1876BD
:10A99C00704700BF24090021014B93F8BC0070479D
:10A9AC0024090021034B93F8BB0010B9588CC0F359
:10A9BC000030704724090021024B588CC0F3C02092
:10A9CC00704700BF24090021014B93F8C600704763
:10A9DC00240900212DE9F04182071E4F82B0044664
:10A9EC00FE6A13D4E3070ED596F88410D6E93A32F2
:10A9FC00013342F100020129C6E93A320CBF0023AF
:10AA0C00012386F8843002B0BDE8F081FB6CE3B121
:10AA1C00B7F850200D46B96D1846033291F80180F5
:10AA2C0011F0ECFE0DF1020201A9B865D7F8C000D7
:10AA3C0012F0A2FD019812F089FD01222860414616
:10AA4C00D7F8C00012F02FFDCCE740F28E41272042
:10AA5C00FEF7A0F9240900217D9C000139A1000119
:10AA6C001D9E00015D9C00012DE9F843002800F0BB
:10AA7C00E4800446072900F2D380DFE801F0AB251F
:10AA8C0025A7D1209ECD0146204615F0A9FED4F86D
:10AA9C00443100F1F6059D4240F2C780E81A0321CB
:10AAAC00402838BF402010F091FF0346C4F84451B1
:10AABC0020461D4615F05CFF002D00F09C802046C2
:10AACC00BDE8F84315F055BF15F0D9FE0023D4F8B6
:10AADC00142105460E4684F8403184F84931BAB148
:10AAEC0050EA010314D0CA00C30042EA50721B1A88
:10AAFC0062EB0102D4F830115B18D4F8341142EB3C
:10AB0C000102D4E95401834272EB0103C0F093803B
:10AB1C00022304F5A07784F84831384610F0B0F9D8
:10AB2C00002800F08E8094F8603103F0FF01002BB8
:10AB3C006AD16FF00043D4E956029A4208BFB0F1D3
:10AB4C00FF3F12D02046D4E9549815F049FED4F8B2
:10AB5C005831F630D4F85C21B3EB090362EB0802F0
:10AB6C001B1A62F10002002A4BDB394694F81001E3
:10AB7C0010F072FA00286ED0D4E95401D4E94A32AC
:10AB8C00834272EB01071FD255EA06071CD0C01A8C
:10AB9C00334661EB02012A4611F0FCFC05FB01F186
:10ABAC00A5FB005300FB0616D4E94A213344551982
:10ABBC0043EB0103C4E94A5306E090F8100110F08E
:10ABCC0039F9002384F83831BDE8F883BDE8F8433F
:10ABDC000DF00EBD0AF052FFD4F84401DC3810F031
:10ABEC0063FE98B3204615F087FE00283FF44BAF68
:10ABFC00204615F0BDFED4E95423C4E94C23BDE82E
:10AC0C00F88320460AF042FF94F8100110F012F974
:10AC1C00002384F83831AFE7FD213020FEF7BAF875
:10AC2C0040F201113020FEF7B5F82046C4F844512B
:10AC3C0015F09EFEDFE701236BE7E0213020FEF7E5
:10AC4C00A9F84FF4D3613020FEF7A4F840F25A2152
:10AC5C003020FEF79FF840F29C613020FEF79AF806
:10AC6C002DE9F04F044689B000201F460E46914650
:10AC7C0094F86DA0049013F0B0FF94F8B8310B2B3E
:10AC8C0000F24B83824A32F8135094F887302844F0
:10AC9C00442B85B200F0878294F886800E2B18BF67
:10ACAC00B8F1440F0CBF4FF001084FF0000889F0C9
:10ACBC0001030293B9F1000F1AD0B4F8481204F54D
:10ACCC000679B4F880B0711AA6EB0B0B09B20FFA27
:10ACDC008BFB0029C0F25D82384694F8FC31032BC3
:10ACEC0000F23A83DFE813F0D2019801DA00470052
:10ACFC0094F8FC31032BE0D1B8F1000FDDD0B4F89F
:10AD0C009032B342D9D1B4F8D4212046B4F84A32A7
:10AD1C0041F64B5B1344C4F8F831D4F80432C4F850
:10AD2C00F031E369C4F8F4310CF0C0F8D4F898228F
:10AD3C0094F8A4325A458CBF4FF0000B4FF0010B26
:10AD4C00002B40F0D582E3699A4204D0208816F09B
:10AD5C0043F8D4F89832E361D4F8943284F876B09E
:10AD6C00E362B4F892322386D4F89C3263620223F5
:10AD7C0084F8FC31A1E7E26902FB01F30493002F94
:10AD8C0000F01482B4F8D451002D40F00F8284F8F6
:10AD9C001352D4F804C20CFB113194F88630262BD4
:10ADAC00049100F0168294F88730262B00F0118263
:10ADBC0000283CD0002D3AD1D4E98EE0D4E98C2384
:10ADCC007245834180F0C38294F86D00C31E012B41
:10ADDC0040F2838203910DF04DFE4AF2A13CD4F86F
:10ADEC0038322C4D8444A3F1830194F86D00A5FBFB
:10ADFC000C3CA0F1030ED4E98C23BEF1010FA1EBA6
:10AE0C00020303991944A1EB9C1140F29A8203911D
:10AE1C000DF030FE00F2E730D4F804C20399A5FB24
:10AE2C000030B4F8D4518009014410390491AB447A
:10AE3C00AAF103030CFB0BFBDBB20BF1300B012B68
:10AE4C004FEA4B0B40F20E825046124D0DF012FEA3
:10AE5C004AF2A1330344A5FB03239D0950460DF090
:10AE6C0001FE0BF173031D4494F8763028440A4D0F
:10AE7C002860002B00F0088104AB2A465946E06993
:10AE8C0014F0DAF8049B84F81302E26928686EE087
:10AE9C00D4C90201D34D6210EC090021E36A2946A2
:10AEAC00D4F8F40118440EF015FA2946C4F800023F
:10AEBC00E0690EF00FFA94F87630002B40F08781A1
:10AECC0094F86DA0C4F804025046AAF1030A0DF0E0
:10AEDC00D1FD4DF64171BAF1010FC44D014420462C
:10AEEC00A5FB013194BF2823002303EB9111803182
:10AEFC0014F08BFEB4F8D43113B9002F40F0B481A8
:10AF0C00D4F8F431E26A94F86DB01344D4F800022A
:10AF1C00ABF103011B1AC9B20493D4F8F031012927
:10AF2C00D4F8F821B4F830A002FB03050AF1730A37
:10AF3C0005F130054FEA450540F2428158460DF0C7
:10AF4C0099FD4AF2A1330344A848A0FB03239B09B3
:10AF5C005846039355440DF085FD039BE2691D444F
:10AF6C00A34B28441860012384F8FC31049BD4F8CB
:10AF7C000452D4F84012551B6FF4B3721544854239
:10AF8C0028BF0546C918D4F8443204F13400C4F87B
:10AF9C00D05143F10003C4F82812C4F82C3200231A
:10AFAC0084F8183214F091FD2844A4F84862C4F8CF
:10AFBC001C02D4E98A23C4E990230BF0F9F920B1DF
:10AFCC00D4F81C321E33C4F81C32B4F8C011002360
:10AFDC008E1B84F8203236B29E4202DD022384F8A6
:10AFEC002032B8F1000F40F00581002F40F00581B0
:10AFFC0094F8FC31002B40F02081494694F814025F
:10B00C0010F02AF8002800F08D81029B84F8103291
:10B01C00002009B0BDE8F08FD4F80402E269D4F83E
:10B02C00F851B4F8D431121AB4F830A09B4402FB96
:10B03C0001F1D4F80032EA430AF1730A0491303377
:10B04C009344D4F8F02102FB053594F86D20D31EFF
:10B05C0000FB0B55012B4FEA450540F2B38010461F
:10B06C0003920DF007FD4AF2A13303445F48A0FBA5
:10B07C000323039A4FEA931B554410460DF0F2FC40
:10B08C005B4B5D4428441860049B80E094F86D1081
:10B09C0094F8CE0113F0B3FF8246E06A294650447F
:10B0AC000EF018F92946C4F80002E0690EF012F906
:10B0BC0094F87630002B40F0888005A9C4F804027F
:10B0CC0006A8DFF828B10DF087FA059B0093DDE99F
:10B0DC000623D4E9900110F0D3FE94F86D300546A8
:10B0EC00184603930DF0C6FC039B4DF64171033BD0
:10B0FC0001442046012BABFB013194BF28230023D4
:10B10C0003EB9111803114F080FDD4F84C32E26ADB
:10B11C0094F86D00049303920DF0ACFC4AF2A13349
:10B12C00039AC318D4F80002ABFB0331049B933B86
:10B13C0013441B1A5344B4F830A05B1B00F13005C8
:10B14C000AF1950AA3EB91136D00049394F86D30FA
:10B15C00DA1E012A31D9184603930DF08BFC00F549
:10B16C002340A130ABFB003B039B4FEA9B1B1846D3
:10B17C0055440DF077FC049BD4F84C225D441C49DB
:10B18C009A1A2844B2F5A07F0860C0F0D080E2691A
:10B19C00EDE600235946012084F81332D4E98C23C0
:10B1AC00C4E9902399E54FF0010880E594F8135217
:10B1BC00002D54D00E490868D9E64FF0650BD6E740
:10B1CC006523C5E64FF0650B56E7023075E7023094
:10B1DC0076E6B4F89032F31A1B043FF5E9AD94F817
:10B1EC009332002B18BF9A46E2E500BFD34D621094
:10B1FC00EC090021002F3FF400AFB4F8E821CAB1EC
:10B20C00B4F8EA0194F8EC1100FB011101308A4208
:10B21C007FF7F3AE002B3FF4F0AE0023A4F8EA0165
:10B22C0084F8203207F064FF00F00700013084F846
:10B23C00EC01E2E6A4F8EA21DFE6D4F80432484651
:10B24C00E169C91A13F083FE83B2002B3FF4D5AE2B
:10B25C00129A0120002A3FF4DCAE1380D9E6B4F830
:10B26C00D45196E56525F9E5E26AD4F8F43194F801
:10B27C006D0003EB020A0DF0FDFB4AF2A13394F8CA
:10B28C006DB0AAF1930A0344ABF10301D4F80002A8
:10B29C00A5FB0323C9B2D4F83822AAEB000A9B09F8
:10B2AC00012992440393D4E98C23AAEB020A1DD9F9
:10B2BC0058460DF0DFFB94F86DB000F2E732D4F88D
:10B2CC000002ABF10301A5FB0235C9B2AD09039B2A
:10B2DC00AAEB03022A4404921FE6AEF1E80E3C20CE
:10B2EC00D4E98C23AEEB020E71449DE53C25EEE7D0
:10B2FC00208815F06EFDF8B1B4F8A022CB46B4F856
:10B30C0090326286B4F8A2224381013B828103828F
:10B31C00A0F80E90D4F898321DE540F2F2310620D8
:10B32C00FDF738FD40F287513020FDF733FD40F238
:10B33C00D2413020FDF72EFD40F232713020FDF766
:10B34C0029FDB4F8D4513C20D4F804C26CE540F289
:10B35C0026513020FDF71EFD40F23E513020FDF706
:10B36C0019FD00BFF0B585B0002800F00C81044633
:10B37C00072900F2FC80DFE811F07B0008000800D0
:10B38C006C00FA0099007100F6000EF05FF9D4E938
:10B39C008C23801A61EB0301012871F10003C0F2C8
:10B3AC0004816FF00102002382428B41C0F2F480D1
:10B3BC00E3690BB1B0FBF3F394F88710442905D083
:10B3CC0094F88620433A012A00F28480B4F80E12D5
:10B3DC00013189B2A4F80E12B4F8BA0002ADB4F877
:10B3EC008030B4F84A220344B4F8B800714E0132EC
:10B3FC00013BA4F84A221B1A9FB2336853B101399E
:10B40C000022204689B29847B4F80E12014489B242
:10B41C00A4F80E127B1A18047ED400232046009543
:10B42C001A46FFF71DFC08B3012840F0B080B4F8B1
:10B43C000E12B4F8C031CA1A120400F18A80BDF899
:10B44C000830194489B23368A4F80E12002BD6D1F7
:10B45C00E0E705B0BDE8F0400DF0CAB890F8FC315B
:10B46C00042B40F09E80002380F8FC3105B0F0BD29
:10B47C0090F8103213B3B0F80E32B0F8802093422B
:10B48C0079D09A1AA0F88030A0F8C6212046D4E9C9
:10B49C008A23C4E98C230BF029FC94F8CB31002BC4
:10B4AC00E4D005B0BDE8F04015F00CBC01200EF066
:10B4BC00CFF805B0BDE8F040FFF766BAB0F80C3233
:10B4CC00B0F88010B0F80C225B1AA0F88020A0F81D
:10B4DC00C631DBE70E293FF479AFB4F88010B4F82D
:10B4EC000E220B449BB2D11A0D0454BF531C0133D2
:10B4FC009BB2A4F80E3294F81132B4F80E12002B51
:10B50C007FF46AAFB4F8C4318B427FF465AF01317C
:10B51C0089B2A4F80E125FE794F88A20012328461A
:10B52C000394002A8DF808300CBF3E23082384F8BE
:10B53C00A93008F0EFF8204615F0C6FB002394F86C
:10B54C00140284F8FC310FF075FC202384F81432BB
:10B55C008CE7BDF80820114489B27A1A12F4004F16
:10B56C0018BF19466FE7D4213020FDF713FCD82102
:10B57C003020FDF70FFCB0F8C421D31AA0F88020BE
:10B58C00A0F8C63182E7A8213020FDF703FC40F279
:10B59C006A613020FDF7FEFB40F213613020FDF7AD
:10B5AC00F9FBCE213020FDF7F5FB40F21261302083
:10B5BC00FDF7F0FB680000212DE9F043D0F81431C1
:10B5CC00002683B0054680F818610F46D0E95489EF
:10B5DC0083F8CE2180F838610121D0F8140107F0EE
:10B5EC0085F9D5F81441324631462046C4E98C8998
:10B5FC0095F81031C4F84C7284F81432334684F840
:10B60C00FC61A4F84862C4E990890096FFF728FB16
:10B61C00D0B90123C4F8F801C4F8F00184F8FC3166
:10B62C00A4F80E02A4F80C0284F81102B4F88030CD
:10B63C00A4F84A02013BA4F880300CF0EBFD03B0F7
:10B64C00BDE8F0430FF06CBA4FF4FE713020FDF7FB
:10B65C00A1FB00BFD0F81401704700BF2DE9F043E7
:10B66C00002385B00322FF26CDE900338DF8062098
:10B67C006846FEF7ABF8044620BB009D95F83831C0
:10B68C00002BF5D085F860610121284615F073F97F
:10B69C0095F83831002BEBD095F810010FF038FFEE
:10B6AC0095F8100110F0B6FA95F810010FF0C2FBE6
:10B6BC0000283CD085F838416846FEF787F80446E8
:10B6CC000028DAD0DFF87C800123002502264FF613
:10B6DC00FF7788F804301AE0029BE3B193F8142248
:10B6EC00202A18D01888B8421BD00221FEF734F853
:10B6FC00814608B390F8140210F08CFA99F81402F1
:10B70C0089F8FC410FF096FB202389F81432CDE91F
:10B71C0002558DF80E6002A8FEF758F80446002872
:10B72C00DAD0002388F8043005B0BDE8F0834FF47C
:10B73C00F4713020FDF72EFB4FF49A713020FDF799
:10B74C0029FB00BFEC090021044B002242F21071CE
:10B75C005A71D9801A71FFF781BF00BFEC09002123
:10B76C002DE9F84390F83831002B76D10446884601
:10B77C0001465648154603F0FF070FF027FB20281B
:10B78C0006466AD05822394604F5887010F0A0FF9E
:10B79C0084F81061C4F81481FF2384F83831B8F1AF
:10B7AC00000F06D007F0BCFC00F00700013088F851
:10B7BC00EC0102234FF00008A4F8483184F84081D2
:10B7CC000DF0CEFD00F1BC062046B6B215F094F893
:10B7DC00002846D013F001FA00F5CD6128464FF051
:10B7EC00010989B20DF076FD2844C4F844010DF02E
:10B7FC002DFF3018A4F8268041F10001C4F8500147
:10B80C0084F818912046C4F8541115F08BF80028D0
:10B81C0045D0A5F2F2454946204614F0E1FF2D1A19
:10B82C00C4F81C514FF0FF326FF00043C4E95623AB
:10B83C0004F5A07194F810010FF00EFC00283FD015
:10B84C0020460021D4E95423C4E94A23C4E94C23FB
:10B85C0015F091F83846BDE8F8830C273846BDE85A
:10B86C00F8830146204614F0BBFFDFF86480F63005
:10B87C00C4F84401B8F8060008B1E08CB8B9064425
:10B88C000DF0E4FE361841F10001C4E95461002DBD
:10B89C00C8D0AE1941F10001C4E95661C8E7F63DC4
:10B8AC00484615F038F92D1AC4F81C51BAE707F0C0
:10B8BC0037FCB8F80630B0FBF3F202FB1300DEE7FE
:10B8CC004FF4E5713020FDF765FA00BF75AA000151
:10B8DC00EC09002190F838310BB90020704710B5F5
:10B8EC000446FF2380F86031012115F044F894F8E8
:10B8FC0038310BB9002010BD94F810010FF008FE80
:10B90C0094F8100110F086F994F810010FF092FAE7
:10B91C0020B1002384F83831002010BD4FF4F471AD
:10B92C003020FDF737FA00BF014B5871704700BF4C
:10B93C00EC09002190F8602182B910B502F0FF04E7
:10B94C0090F8182112B90122104610BDD0E94731E8
:10B95C009942F9D90AF09AF82246F5E700221046E6
:10B96C00704700BF08B50CF029F8054B9A68824265
:10B97C0003D3187980F0010008BD002008BD00BF7A
:10B98C00EC09002140F20B2108B514F046F9B0F592
:10B99C00296F28BF4FF4296080B208BD90F8CB31D5
:10B9AC00002B73D1F0B503F0FF0590F8FC3185B096
:10B9BC000446032B01D005B0F0BD0DF047FED4E9D1
:10B9CC008C23801A61EB0301012871F10003F2DB77
:10B9DC006FF00103834275EB01035ADBE369B4F8A2
:10B9EC008020002B53D0B0FBF3F080B20132B4F8BE
:10B9FC00C431104480B2A4F80C02B4F80C229B1A87
:10BA0C001BB2002BD7DD94F814020FF081FD002837
:10BA1C00D1D0FF2384F81132B4F880500DF10E060A
:10BA2C00B4F8BA20B4F8B83015441F4F013DED1AE4
:10BA3C003B68ADB263B1B4F80C1200222046013958
:10BA4C0089B29847B4F80C32184480B2A4F80C02AE
:10BA5C00B4F80C32EB1A1B04ADD4B4F80C1200235E
:10BA6C000122204689B20096FFF7FAF80028A2D0EE
:10BA7C00012813D1B4F80C32BDF80E2013449BB23C
:10BA8C00A4F80C323B68002BD5D1E1E7704718467F
:10BA9C00ACE740F2BB513020FDF77CF940F202617B
:10BAAC003020FDF777F900BF680000212DE9B04385
:10BABC00044682B0062900F29780DFE801F0041DED
:10BACC000A1A232A6D004B4B1B7903F0FF02002B43
:10BADC007CD0042384F8FC310CF09CFB0FF020F894
:10BAEC000023B4F88020A4F84A32A4F80E2284F87B
:10BAFC00113202B0BDE8B083032380F8FC3102B0F0
:10BB0C00BDE8B0830BF088FFC4E98E0102B0BDE83C
:10BB1C00B08390F86D30C569033BD0F80412DFF8A0
:10BB2C00D480012B98F8053094BF4FF4BD794FF4B5
:10BB3C00A9798D428CBF6D1A00251BB9436B9D42B0
:10BB4C0028BF1D46D4F8D07104F1340013F0BDFFAA
:10BB5C00074402200FF0E6FE0221ED1B25EAE575F5
:10BB6C00854228BF054628460FF030FF00B92F4408
:10BB7C004A463946204614F036F8E269D4F8D031FA
:10BB8C00C8F80800D0180FF08FFE0028B1D140F291
:10BB9C007E313020FDF7FEF890F86D502846033DBD
:10BBAC000CF068FF4DF641710246134B012D2046F7
:10BBBC001144A3FB013194BF2823002303EB911103
:10BBCC00803102B0BDE8B04314F01FB8B0F8C41116
:10BBDC0001230092FFF744F800283FF47DAF4FF4A7
:10BBEC00DA613020FDF7D6F840F284713020FDF791
:10BBFC00D1F800BFEC090021D34D6210012A70B5B9
:10BC0C00064609D0022A14460D461ED04AB140F20F
:10BC1C00AE713020FDF7BEF80BF0D0FEC6F84C022A
:10BC2C0070BD0BF0CBFE224601462846FFF7C4FC44
:10BC3C0032460F4995F810010DF0F4FC0028EFD1B5
:10BC4C0040F297713020FDF7A5F8D0F84C12012284
:10BC5C002846FFF7B1FC3246054995F810010DF066
:10BC6C00E1FC0028DCD14FF4F5613020FDF792F8AF
:10BC7C0071B30001F8B5044651B1012960D100231C
:10BC8C0080F818310CF0C6FABDE8F8400EF048BF49
:10BC9C00C58C002D4CD12046D4E94A7614F0EFFD2A
:10BCAC0040194FF0000341F10001C01984F84031F4
:10BCBC004FF0020346EB0101C4F85001C4F828010F
:10BCCC00C4F85411A4F84831C4F82C1194F860311C
:10BCDC0003F0FF01002BD5D16FF00043D4E95602DD
:10BCEC009A4208BFB0F1FF3F0CD104F5A07194F853
:10BCFC0010010FF0B1F90028C4D140F2EF613020EF
:10BD0C00FDF748F82046D4E9545614F069FDD4F8F0
:10BD1C005831F630D4F85C215B1B62EB06021B1A1F
:10BD2C0062F10002002AE0DA204609F0AFFEA9E732
:10BD3C0007F0DEF9E58CB0FBF5F303FB1505AAE77C
:10BD4C0040F2BE713020FDF725F800BF90F83801A5
:10BD5C00003818BF01207047014BD880704700BFD6
:10BD6C00EC09002140F2C321322008B5FDF712F88E
:10BD7C0010B582B090F8DE3073B903F0FF02ADF865
:10BD8C0004209DF8042000209DF8053062F3070084
:10BD9C0063F30F2002B010BD36380C4603F0D6FC0E
:10BDAC00182204232270ADF80430EAE7044B002279
:10BDBC001B68A3F8212183F8232183F87020704796
:10BDCC00F809002108B506F001FE034B18700CF0C1
:10BDDC0091F9032008BD00BF1000002138B5114CAB
:10BDEC0020686C3002F0B2FE656802F05FFE63689A
:10BDFC002860186858B102F087FE68B10CF092FA0E
:10BE0C0000200CF02DFB636804221A7138BD40F23F
:10BE1C00F7413220FCF7BEFF40F2F9413220FCF72B
:10BE2C00B9FF00BFF809002108B506F0CFFD0449A1
:10BE3C000246044B48681A7002F0FAFE012008BD55
:10BE4C00F80900211000002140F29D31322008B584
:10BE5C00FCF7A0FF10B504788CB004F00F0402A915
:10BE6C00224603F07FF906F0B1FD234A042C107032
:10BE7C0002D003200CB010BD204C0399236891F81C
:10BE8C0000E093F878C0E645F3D191F801E093F81F
:10BE9C0079C0E645EDD191F802E093F87AC0E64519
:10BEAC00E7D191F803E093F87BC0E645E1D191F836
:10BEBC0004E093F87CC0E645DBD191F805C093F81B
:10BECC007D108C45D5D193F87E309DF81910994290
:10BEDC00CFD17F280DD04FF07F0C009002A9606865
:10BEEC0082F800C0237C227B03F0A6F803200CB060
:10BEFC0010BDFFF7A9FF00BF10000021F8090021B9
:10BF0C002DE9F04F054687B006290BD8DFE801F084
:10BF1C00A630100A0A0A0400B04C60688379002B22
:10BF2C0040F0C5800CF0E6F8032007B0BDE8F08FB8
:10BF3C000CF0E0F8A94A136893F854108F07F3D06B
:10BF4C00506881790029EFD0A54C94F900107F2915
:10BF5C0000F0EF8102912946127B7F25423301923A
:10BF6C00FF2200920222257002F0BEFF0320DCE7C4
:10BF7C009A4CAE7C60682168012E837990F807900A
:10BF8C00059391F8483083F0010B00F0AB8000264C
:10BF9C0091F85420374612F0040300F0AB8091F86E
:10BFAC004DE0BEF1000F00F0A58091F84E80B8F185
:10BFBC00080F40F0A28091F841800027404623B33F
:10BFCC006A6891F85BC092F800E0E64500F04B819E
:10BFDC004FF0000A62685279082A05D091F84EC0D9
:10BFEC00944508BF4FF0010A002F40F0E280BBF1EE
:10BFFC00000F40F032813846B9F1000F40F0DB8081
:10C00C000CF078F8236893F8542093078CD00CF03C
:10C01C0071F8059B002B87D02068AB6800F14201BA
:10C02C00AA7C90F8410012F023FF17B9002800F009
:10C03C0058816B4E96F900307F2B00F07A81029379
:10C04C002946237B0122CDE90083D4E900307F24EB
:10C05C004233347002F048FF032066E75F4C2368DC
:10C06C00606893F85420570719D5C279002A56D026
:10C07C006A6893F85B1016788E4200F0C98093F8CA
:10C08C005620012A00F0A68093F84E30082B03D0DE
:10C09C0042799A4200F09E800CF02CF8606883790B
:10C0AC00002B40D1C379002B7FF43EAF3AE72368D5
:10C0BC0093F85420960760D5494A92F900107F29CD
:10C0CC0000F0378102912946257B42330195FF25EB
:10C0DC0000957F251570062202F006FF002309202B
:10C0EC00237422E7AA68527902F0C002402A7FF436
:10C0FC004EAF4DE790F8058059E7404606F038FA08
:10C10C00002818BF8346002F40F0DB80216891F88F
:10C11C00418091F85420404602F004034FE78379A4
:10C12C00002B3FF4FFAE236893F85420960759D4A4
:10C13C00D0077FF5F9AE510700F1F480284B93F945
:10C14C0000207F2A00F0F5807F200292227B294676
:10C15C001870FF202368019200220090423360681F
:10C16C0002F0C2FE03206368DA79002A7FF4DDAEA8
:10C17C009B79002B7FF4D9AED4E6D1077FF5D2AEF4
:10C18C00530700F1CC80164B93F900207F2A00F066
:10C19C00D0807F200292227B29461870D4E900308F
:10C1AC00FF24019242330622009402F09DFE0320EC
:10C1BC00BBE6012020E7236893F85630012B06D00C
:10C1CC00002B7FF41DAFBAF1000F3FF419AF00281C
:10C1DC003FF416AF0A2007B0BDE8F08FF809002134
:10C1EC0010000021544A92F900107F2900F0A18020
:10C1FC0002912946257B42330195FF2500957F2529
:10C20C001570002202F070FE012309202374AAE7A6
:10C21C00567893F85C108E427FF431AF967893F891
:10C22C005D108E427FF42BAFD67893F85E108E4261
:10C23C007FF425AF167993F85F108E427FF41FAF11
:10C24C00517993F8602091427FF419AF697C93F88F
:10C25C005A2091427FF413AFBCE74231AB68AA7C01
:10C26C0012F006FEC8E692F801E091F85CC0E645D3
:10C27C007FF4AEAE92F802E091F85DC0E6457FF433
:10C28C00A7AE92F803E091F85EC0E6457FF4A0AE4D
:10C29C0092F804E091F85FC0E6457FF499AE92F80D
:10C2AC0005C091F8602094457FF492AE95F811A0EA
:10C2BC0091F85A20AAEB0202D2F1000A4AEB020AC8
:10C2CC0088E6A968404606F08DFA2168074691F881
:10C2DC00542091F8410047B340F0020802F00403E7
:10C2EC006DE6236893F85520023A012A3FF61CAEFE
:10C2FC00002E3FF419AE104E96F900207F2A18D06C
:10C30C0002924233227B294660687F240192FE22EE
:10C31C0000920122347002F0E7FD032005E60BF0D9
:10C32C00E9FE30E70BF0E6FE08E7804602F0040376
:10C33C0045E6FFF789FD00BF100000210E4A536847
:10C34C0010B5197902290CD9197908290ED819793F
:10C35C0052690A4B92680B44BDE8104052F82330E6
:10C36C00184741F293413220FCF714FD41F29441FD
:10C37C003220FCF70FFD00BFF8090021FDFFFF3F45
:10C38C0038B5194D6B681B79022B28D82B680446DD
:10C39C00027C83F8A4201A44C168996692F824217F
:10C3AC0083F820214268C3F88820037A022B0ED030
:10C3BC000BF0B8FB0CF09EF80AF056FE0B480BF095
:10C3CC009BFF0B480BF092FF0A480BF0B1FC637C0F
:10C3DC0023B12B685B6E0BB101221A6038BD40F69D
:10C3EC00EA013220FCF7D6FCF809002110010021EB
:10C3FC0055555500D6BE898E70B53A4C06466368C5
:10C40C001A79032A30D01A79042A2DD0226892F88E
:10C41C00542092072DD1A568002D40D0236893F8A5
:10C42C005430002B40D03EB1284613F033F928BBD2
:10C43C00284613F04AF908BB63681A79022A3DD9D9
:10C44C001A79082A3FD819796269274B52690B442B
:10C45C0052F8233098470C282BD86369DB68BDE869
:10C46C00704053F820301847186802F04DFB054611
:10C47C00D2E7186802F04AFB0546CDE763681A79E3
:10C48C00022A25D91A79082A27D8197928466269E7
:10C49C00154B12690B4452F823309847DBE741F2F5
:10C4AC009B313220FCF776FC41F2A1313220FCF7B3
:10C4BC0071FC41F2B4313220FCF76CFC41F2813159
:10C4CC003220FCF767FC41F282313220FCF762FC2F
:10C4DC0041F221313220FCF75DFC41F22231322055
:10C4EC00FCF758FCF8090021FDFFFF3F1B4B2DE921
:10C4FC00F04793F9008084B0B8F17F0F2CD0184C22
:10C50C007F2281460E4667681A703B79032B1AD03E
:10C51C003B79062B0CBF4FF0030A4FF0010A23683E
:10C52C0003F142050BF026FA324600902B46257B90
:10C53C00494638460195CDE9028A02F0C9FB28B973
:10C54C0004B0BDE8F0874FF0000AE8E7606804B07B
:10C55C00BDE8F04702F02CBBFFF776FC1000002181
:10C56C00F809002138B505460C4605F0F3FC4207E6
:10C57C0004D4A37803F0E003402B0DD005F0EAFCC3
:10C58C00830704D4A37803F0E003202B04D0237892
:10C59C0003F03F03242B01D9002038BD0BF0F0F938
:10C5AC0094F9003094F802C0002B62780CF01F0351
:10C5BC00ACBF1E214FF4967142EA032301FB03F337
:10C5CC001A1AB2F5877FE7D39842E5D8054A29466F
:10C5DC0023881068A0F8213180F823C1BDE83840C9
:10C5EC0003F03AB9F80900212DE9F047344E84B034
:10C5FC007568AB796BB3D6F800A0044689469AF8F7
:10C60C00953033B90378002B0CBF012302238AF831
:10C61C00953028790628C3B23ED0072B14BF4FF0B3
:10C62C0001084FF00208274890F900707F2F45D081
:10C63C007F2303700BF09EF9317B0AF142030090CB
:10C64C004A46019128462146CDE9027802F040FB8A
:10C65C0020B90025284604B0BDE8F087657815F0B0
:10C66C0010051CD0A1690220FFF77CFF0546E8B13C
:10C67C000023326882F896306369DBB15978C1F3D4
:10C68C00031182F8971059781B7801F00F0143EAD7
:10C69C000123A2F89830DDE74FF00308C3E7706878
:10C6AC0002F086FA284604B0BDE8F087706802F004
:10C6BC00BFFACFE7FF2382F89730CBE7FFF7C4FB35
:10C6CC00F80900211000002110B504468AB006F0CC
:10C6DC007DF9194A2378107003F00F03072B02D051
:10C6EC0001200AB010BD2046694602F0D9FD68460B
:10C6FC0002F0C4FE9DF80030002BF1D19DF8013002
:10C70C00DB07EDD50D4C019922689DF8110002F163
:10C71C00780392F87E2012F0ABFB0028E0D0206862
:10C72C000121A03012F028FAFF216846FFF75CFFC8
:10C73C000028D5D00220D4E710000021F8090021F0
:10C74C002DE9F04FDFF8E8A09346847C83B0DAF84B
:10C75C0000200646012C894692F84870984687F0CE
:10C76C00010738D000249AF80D502346E5B192F811
:10C77C005410490721D47268A2B3DAF80420557911
:10C78C00082D22D02846019305F0F2FE019B0028CB
:10C79C0018BF0746EBB19AF80F307BB312F0A7FB2A
:10C7AC00002305468AF80F308BF8005089F80040BA
:10C7BC0088F8007003B0BDE8F08F92F84D10002996
:10C7CC00D9D092F84E50082DDCD113B19AF80E1036
:10C7DC00D1B10025E8E783685B7903F0C003402BF7
:10C7EC00C0D1C0E7DAF804200193106802F09CFC79
:10C7FC00019B0028C1D1002BEBD0E7E72846B1689C
:10C80C0005F0F0FF0546CFE7B068019105F012FF87
:10C81C0005468AF80D000028C6D012F05EFB0828E9
:10C82C00019903D0DAF804305871BDE70D46BBE727
:10C83C00F809002108B5054B586802F0B9F906F063
:10C84C00C5F8034B024601201A7008BDF8090021F7
:10C85C00100000212DE9F843774C002205460F46C5
:10C86C00A368D4F8009018461A800BF091FD064688
:10C87C00002836D0032D4ED0052D56D0A06809F1D6
:10C88C00780112F0E3FC99F87E10A06812F0F2FC2B
:10C89C00236893F8482003F1420793F8418092B93A
:10C8AC00A068394612F0CBFC4146A06812F0D5FCCA
:10C8BC00624BD3F80431002B40F0B980052D1DD00C
:10C8CC003046BDE8F88393F8542052070FD46368C0
:10C8DC00587905F0C1FF0028E2D007464FF0010857
:10C8EC00DEE7032006F02EFB3046BDE8F88393F814
:10C8FC004D20002AEBD093F84E00EAE7236830462F
:10C90C0039681A6DC2F80A10B988D1811B6D83F889
:10C91C000980BDE8F883A0680C234370037823F0EA
:10C92C000F0343F003030370A9E7D4F80880222314
:10C93C00226898F8001088F8013021F02F0141EAA4
:10C94C00471747F0050788F80070136D1B6AC8F885
:10C95C000F30116D8B6A180A88F813301B0C88F88D
:10C96C00140088F8153091F87630088E002B4BD1D6
:10C97C00334FA7FB0030CB6AA7FB0373800AC3F3CA
:10C98C008F2388F817301B0A88F8160041F2707054
:10C99C0088F81830CB69A3F57A7787423FD92848B5
:10C9AC00A0FB0303C3F38F2388F819301B0A88F804
:10C9BC001A308B8C88F81B301B0A88F81C30CB8CF7
:10C9CC0088F81D301B0A88F81E30D1F88F30C8F853
:10C9DC001F3091F8933088F82330136D98F8242089
:10C9EC0093F89A3022F01F0203F01F03134388F8C8
:10C9FC00243005F0D5FA98F8243003F01F0343EAED
:10CA0C00401388F8243039E70E4FA7FB0030CB6A6F
:10CA1C00A7FB0373C0F34710C3F34F13B1E70A48E6
:10CA2C00A0FB03039B0903F550639BB2BCE740F2E8
:10CA3C003F613220FCF7AEF9F8090021008000417B
:10CA4C005917B7D11F85EB51D34D621038B5154C22
:10CA5C00236893F854309B0718D1A568E5B1236877
:10CA6C00FF2093F820110AF0F7FF28460BF05AFC30
:10CA7C00236893F82031033B012B94BF282000201E
:10CA8C000BF0EEFC636807221A7138BD63681868F6
:10CA9C0002F03CF80546E1E740F21E513220FCF76B
:10CAAC0079F900BFF809002170B50D4D0222D5E9C6
:10CABC0000031A7103F028FD00B170BD2E68044606
:10CACC0006F16C0002F0B4F82868A6F8214186F84B
:10CADC00234186F87040BDE8704003F073BE00BF80
:10CAEC00F809002110B50A4C05F070FF094A637B68
:10CAFC0010701BB90BF0FEFA032010BD0BF0FAFC02
:10CB0C000AF0B2FA002363730BF0F4FA032010BDA1
:10CB1C00F80900211000002170B52D4C0546236842
:10CB2C0093F823215F2A2CD851092A4A565C93F892
:10CB3C00210100F03F000BF005F9236893F9580030
:10CB4C000BF0F0F8FDB1236832460120996E0BF022
:10CB5C0075FA2368314693F89630022B0CBF4020AF
:10CB6C00FF200AF079FF236893F85420920710D124
:10CB7C0093F89530A568B3B12846BDE870400BF02A
:10CB8C00D1BB0026D3E73246732101200BF056FAB5
:10CB9C00DFE76368186801F0B9FF2368054693F86E
:10CBAC009530002BE8D1681D05F072FD60730028EC
:10CBBC00E2D0033E012E94BF552450240AF038FADB
:10CBCC0020460BF08BFC2846BDE870400BF0AABB4E
:10CBDC00F8090021ECC90201F0B52F4C83B00646D0
:10CBEC00236893F823215F2A30D851092B4A575CCC
:10CBFC009A6E7ABBD3F888000BF004FC256895F884
:10CC0C0054309A0703D595F89620022A33D05B0747
:10CC1C002DD46368186816BB02F086FA6368064662
:10CC2C00186802F087FA024605F19A002568314629
:10CC3C0095F8963095F82051009502F0C7FB2268C4
:10CC4C00002382F82071A37303B0F0BD9A6E002705
:10CC5C00002ACFD00120FFF75FFF2368CAE702F05C
:10CC6C0075FA014605F19A0002F0A6FBE7E795F884
:10CC7C009630012BCDD1FB1E012B05D93946002056
:10CC8C000BF052FC2568C4E795F85930012B14BF02
:10CC9C0039460321F3E700BFF8090021ECC9020172
:10CCAC0010B50E4C637B8BB900220120D4E9003106
:10CCBC00087103F16C00A3F8212183F8232101F002
:10CCCC0045FF2068BDE8104003F07CBD0BF012FC62
:10CCDC000AF0CAF900236373E6E700BFF8090021E4
:10CCEC0007292DE9F04F0D4687B004469146476859
:10CCFC0003D12FB9002A00F0BD80002F00F08480F2
:10CD0C00637CDFF8A482012B44D0D8F80430587926
:10CD1C0008285AD00DF10F0104AA05F073FC002865
:10CD2C0000F0388104A99DF80F0013F09EFA074615
:10CD3C00D8F8001091F854C01CF0030A6DD1D8F843
:10CD4C00046086F806A091F8543013F0040340F008
:10CD5C00BA80F371954B1B682BB149462046984716
:10CD6C003072D8F8046063684BB1617CD8F800204D
:10CD7C0082F87E10196891679B88A2F87C30337A10
:10CD8C00002B00F00C81072DA06800D188BB07B0E8
:10CD9C00BDE8F08F7B7903F0C003402BB5D1072D94
:10CDAC0098F80D3000F0BC80002BAED0D8F80460A1
:10CDBC0012F093F8D8F804307071587901230828D0
:10CDCC0088F80C0088F80E30A4D16168607C13F0F0
:10CDDC004CFAD8F80420074661680532607C05F0EF
:10CDEC00EFFB03460028A3D1D8F80460F080307222
:10CDFC00C9E771790829CAD0002BC8D005F038FCD6
:10CE0C00012388F80F30C2E7DFF89C81D8F80010B6
:10CE1C0091F854C01CF0030A91D0062D91F84CA047
:10CE2C00D8F804606AD9082D6DD896F806B08BF046
:10CE3C000103B9F1000F0CBF002303F00103002B19
:10CE4C0061D16268002A59D1B9F1000F40F08D8090
:10CE5C006278D00640F1898001201CF0040FB0717B
:10CE6C003FF477AF91F84D3096F807A0D2066ED507
:10CE7C0001236EE7DFF83081D8E9001091F85430C7
:10CE8C0013F0030218BF012213F00403827105D0C2
:10CE9C002378A3F10103B3FA83F35B09C37191F80F
:10CEAC009430002B3FF473AFD8F80030D3F89000D7
:10CEBC00503013F056FF00287FF469AFD8F80430D7
:10CECC0001221A7263E7062D91F84D3004D8002B1D
:10CEDC007FF43FAF3B463CE796F807A0082D1DD8E2
:10CEEC00BAF1010F02D0B9F1000F17D16268002A14
:10CEFC00EDD1B9F1000F2AD16278B7E7BAF1000F82
:10CF0C0008BFBA461DE70023B3711CF004033FF4BD
:10CF1C0020AF91F84D3096F807A0DFE7002318E713
:10CF2C00002B3FF4F2AEB9F1000F7FF43FAFD8F80D
:10CF3C00003093F8201101297FF438AF384605F002
:10CF4C0079FB88F80D0000283FF4DFAE2EE730683F
:10CF5C00019302F0E9F81AEA000702D1019B9BB198
:10CF6C001F46D8F804603B46F3E6306802F0DCF864
:10CF7C001BEA000B0CD1BAF1000F02D105F01AFB21
:10CF8C008246D8E90016DCE605F014FB0746E8E714
:10CF9C00DA46F6E740F693313220FBF7FBFEF388D6
:10CFAC00003B18BF0123EEE6F80900216C000021BC
:10CFBC0010B50F4C606801F03BFE637B8BB900220F
:10CFCC000120D4E90031087103F16C00A3F8212190
:10CFDC0083F8232101F0BAFD2068BDE8104003F06E
:10CFEC00F1BB0BF087FA0AF03FF800236373E6E716
:10CFFC00F809002110B5104C05F0E8FC0F4A637BD2
:10D00C0010708BB900220120D4E90031087103F1B2
:10D01C006C00A3F8212183F8232101F097FD2068EF
:10D02C00BDE8104003F0CEBB0BF064FA0AF01CF81C
:10D03C0000236373E6E700BFF8090021100000210C
:10D04C0010B5114C606801F0F3FD05F0BFFC0F4A00
:10D05C00637B10708BB900220120D4E90031087178
:10D06C0003F16C00A3F8212183F8232101F06EFD5C
:10D07C002068BDE8104003F0A5BB0BF03BFA09F0AB
:10D08C00F3FF00236373E6E7F80900211000002189
:10D09C0010B5144C606801F08BFD05F097FC02464E
:10D0AC0020680021104BA0301A7011F065FD637BD5
:10D0BC008BB900220120D4E90031087103F16C0016
:10D0CC00A3F8212183F8232101F040FD2068BDE85D
:10D0DC00104003F077BB0BF00DFA09F0C5FF0023ED
:10D0EC006373E6E7F80900211000002110B5002158
:10D0FC000320164CFFF7AEFB20B10321206802F091
:10D10C00ABFB98B9637BCBB900220120D4E9003189
:10D11C00087103F16C00A3F8212183F8232101F09D
:10D12C0015FD2068BDE8104003F04CBB01210846FA
:10D13C000BF0FAF9636809221A7110BD0BF0DAF9D9
:10D14C0009F092FF00236373DEE700BFF8090021AA
:10D15C0070B5244C236893F823215F2A29D85109F0
:10D16C00214A565C9A6E42BBD3F888000BF04AF900
:10D17C00256895F854309A0703D595F89620022A1D
:10D18C0020D05B0703D595F89630012B1AD0636835
:10D19C00186801F0DBFF014605F19A0002F00CF96A
:10D1AC00002221686368A273062281F820611A713B
:10D1BC0070BD9A6E0026002AD6D00120FFF7ACFC79
:10D1CC002368D1E7F31E012B05D9314600200BF063
:10D1DC00ABF92568DBE795F85930012B14BF3146C4
:10D1EC000321F3E7F8090021ECC9020138B5154C0D
:10D1FC000521206802F030FB48B12368012093F828
:10D20C0020110BF091F963680B221A7138BD637B06
:10D21C008BB900220120D4E90031087103F16C00B4
:10D22C00A3F8212183F8232101F090FC2068BDE8AC
:10D23C00384003F0C7BA05460BF05CF909F014FF4F
:10D24C006573E6E7F8090021F0B52C4C83B0236830
:10D25C0093F823215F2A37D85109294A575C9A6ED3
:10D26C00002A35D1D3F888000BF0CCF8256895F856
:10D27C0054309A0703D595F89620022A2DD05B07D7
:10D28C0003D595F89630012B27D06368186801F008
:10D29C004BFF63680646186801F04CFF024605F127
:10D2AC009A002568314695F8963095F820510095EE
:10D2BC0002F08CF8002221686368A273052281F8C1
:10D2CC0020711A7103B0F0BD9A6E0027002AC9D0E4
:10D2DC000120FFF721FC2368C4E7FB1E012B05D9B5
:10D2EC00394600200BF020F92568CEE795F8593027
:10D2FC00012B14BF39460321F3E700BFF8090021C5
:10D30C00ECC90201012910B512D188B91D4A536824
:10D31C00197908292BD919790C292DD81979526921
:10D32C00194B52680B44BDE8104052F82330184793
:10D33C00144C606801F07CFC637B8BB900220120EB
:10D34C00D4E90031087103F16C00A3F8212183F8B2
:10D35C00232101F0FBFB2068BDE8104003F032BA3A
:10D36C000BF0C8F809F080FE00236373E6E741F286
:10D37C0063413220FBF70EFD41F264413220FBF792
:10D38C0009FD00BFF8090021F7FFFF3FF0B55A4C2B
:10D39C0083B020686C3001F0D9FB656801F086FB26
:10D3AC00636828601868002800F0A18001F0ACFBCD
:10D3BC000546002800F09680236893F8A630002BD1
:10D3CC0054D1D4E9000290F8A430034493F82471AA
:10D3DC0080F82071137913B11379012B5FD190F878
:10D3EC00A520464B134418790AF0ACFC236893F83B
:10D3FC00A420134493F82461022E4ED02FD9F31E8F
:10D40C00012B2ED801F04CFB31460AF025FB2846A7
:10D41C000AF088FF314601200AF0A2FC012F34D01B
:10D42C00681D05F035F9607348B1033F012F94BFB7
:10D43C005525502509F0FCFD28460BF04FF8626885
:10D44C00082100232068517121730321D3801372AA
:10D45C00E38180F895302374117103B0F0BD012E77
:10D46C00D0D040F2FE713220FBF794FC236893F885
:10D47C00542093F8A700196D0243C3F8101183F8D8
:10D48C005420002283F8A6209BE7E81C05F000F945
:10D49C0060730028D3D04025CCE70D20B4E70021E1
:10D4AC0002F0DAF908B1206899E7637B93B900229E
:10D4BC000120D4E90031087103F16C00A3F821219B
:10D4CC0083F8232101F042FB206803B0BDE8F04053
:10D4DC0003F078B901900BF00DF809F0C5FD019837
:10D4EC006073E4E740F256413220FBF753FC40F204
:10D4FC0054413220FBF74EFCF8090021ECC9020123
:10D50C0008B505F063FA044B18700AF0F3FDBDE89A
:10D51C000840FFF73BBF00BF1000002110B50C4CBA
:10D52C0005F054FA0B4A637B10702BB90AF0E2FD3C
:10D53C00BDE81040FFF72ABF0AF0DCFF09F094FDAC
:10D54C00002363730AF0D6FDBDE81040FFF71EBF41
:10D55C00F80900211000002138B50446FEF710FF31
:10D56C00237A032B62D0012B69D051D84D4C4E49F4
:10D57C00226892F8A53092F84B000133A1FB035CB2
:10D58C000CF4FF7505EB5C055B1B40FA03FCDDB28C
:10D59C001CF0010F16D10133A1FB035C2CF001052B
:10D5AC0005EB5C055B1B40FA03FCDDB21CF0010FC4
:10D5BC0008D10133A1FB035121F0010505EB510109
:10D5CC005B1ADDB282F8A55092F958000AF0AAFB5A
:10D5DC002368002283F89520FFF7D8FE256895F87C
:10D5EC004830A3B16FF00043D5E920129A4208BF2E
:10D5FC00B1F1FF3F0BD00CF029F8D5E92023904274
:10D60C0071EB030303D3012005F0B8F808BB38BD58
:10D61C00023B012BFBD8234C236893F8950088B967
:10D62C00FFF7DAFA636805221A7138BD1D4B1B68C7
:10D63C00986E88BBFFF770FA237A012B95D1194CA1
:10D64C002268C1E70120FFF7C7FA636806221A7146
:10D65C0038BD256804F0D0FF04460BF0F7FF6301DA
:10D66C00E20E1B1B62F10002520242EAD3525B0231
:10D67C001B1942F1000C9A014FEA8C1ED21A4EEA89
:10D68C00936E6EEB0C0C13194CF100021B1842EB51
:10D69C000101C5E9203138BD40F62F113220FBF7CE
:10D6AC0079FB00BFF8090021ABAAAAAA2DE9F04723
:10D6BC00A64F86B0D7F8008098F857305BB17E68DB
:10D6CC000546B37963B12C78012C12D0022C00F0F2
:10D6DC00E080002C54D00324204606B0BDE8F0872F
:10D6EC00F279002AEFD1327A002AF4D02C78012C6E
:10D6FC00ECD198F82031022B6B7800F0018103F00B
:10D70C001803182BE7D198F85430590700F1FE8014
:10D71C009A0718D08E4B93F900407F2C00F07B8138
:10D72C007F221A700AF026F9397B08F14203009027
:10D73C00FF2201910021304602940391294601F009
:10D74C00C7FA0028C7D0A9690120FEF70BFF0028F3
:10D75C00C1D001233A6882F896306B69002B00F037
:10D76C00E88059780224C1F3031182F89710597894
:10D77C001B7801F00F0143EA0123A2F89830ABE7C4
:10D78C0098F854209007A6D013B9337A002BA2D066
:10D79C006B7813F0100FC3F3001614BF082201228C
:10D7AC0032EA030397D10023AA688DF815308DF85F
:10D7BC0016308DF81730002A00F0EB800DF11703AE
:10D7CC000DF116010DF115022846FEF7B9FF396867
:10D7DC009DF8153091F84180002B40F009814231C1
:10D7EC00AB68AA7C404611F043FB90B93B6893F8B8
:10D7FC005530023B012B3FF66EAF9DF81630002BD7
:10D80C003FF469AF9DF81530002B7FF464AF4FF0F7
:10D81C00FE08002E00F0C0804D4A92F900607F2E69
:10D82C0000F0F9803B684FF00009D7F804A003F131
:10D83C0042047F2313700AF09DF8397B2346009035
:10D84C0042460191504629460296CDF80C9001F0C3
:10D85C003FFA00283FF43FAFA9690120FEF782FE92
:10D86C0000283FF438AF3B6883F896906A69002A29
:10D87C0000F0CC8051780224C1F3031183F8971087
:10D88C005178127801F00F0142EA0122A3F8982096
:10D89C0022E798F854309B073FF41DAF6B7803F0E8
:10D8AC001803182B7FF417AF294B93F90090B9F19B
:10D8BC007F0F00F0B0807F221A700AF05BF83A7B81
:10D8CC0008F1420300902946019200223046CDF81F
:10D8DC0008900392FF2201F0FBF900283FF4FBAE05
:10D8EC00A9690120FEF73EFE00283FF4F4AE3A6829
:10D8FC0082F896406B69002B00F08480597832E7EF
:10D90C0003F01903192B3FF4FEAEE4E66B680BBB76
:10D91C00AB68002B7FF4DFAEAB699B7813F0E003B0
:10D92C000CD198F84930002B3FF4D5AE98F8543010
:10D93C00EEE6FF23022482F89730CDE6402BF5D19A
:10D94C0098F84A30002BF1D1C5E600BFF809002148
:10D95C001000002108F15B0398F85A2008F17801B7
:10D96C0098F87E0011F084FA7E68D7F800807379FD
:10D97C00082B03D098F84E209A423CD098F8563099
:10D98C00012BC5D0002B7FF4A6AE00283FF4A3AE2C
:10D99C00BEE74FF0FF083CE7204B93F900A0BAF12B
:10D9AC007F0F38D0D7F804907F221A7099F8043082
:10D9BC00032B05D099F80430062B0CBF032401244B
:10D9CC003B6803F1420609F0D5FF4246009033460E
:10D9DC0029464846CDE902A43C7B019401F078F934
:10D9EC0000283FF478AE7868032401F0E1F873E680
:10D9FC0048F002080DE798F85630012B88D0002B20
:10DA0C0086D068E6FF2382F8973065E6FF22022471
:10DA1C0083F8972060E6FEF717FA00BF100000218C
:10DA2C0030B505468BB004F0D1FF414B2C78024643
:10DA3C006946284604F00F041A7001F031FC3D4D84
:10DA4C00072C51D02B6893F8542012F0060210D1F9
:10DA5C0021466846FFF744F92B6893F82031042BD4
:10DA6C001BD8022B1ED903246B7B6BBB20460BB03F
:10DA7C0030BD93F8A420134493F82421012A52D0EA
:10DA8C00002221466846FFF72BF92B6893F82031CA
:10DA9C00012B0CD0023B022BE5D941F21C21322088
:10DAAC00FBF778F9012B02D0022BDCD0F5E7062C22
:10DABC0002D012D8022C32D821466846FEF720FA42
:10DACC006B7B0446002BD1D00AF014FD09F0CCFA84
:10DADC00002320466B730BB030BD072C1FD168465A
:10DAEC00FFF7E4FD0446BFE72B68684693F8201166
:10DAFC0001F012FC002221466846FFF7F1F82B6872
:10DB0C0093F82031042BC8D8022BE8D8012BE6D08F
:10DB1C00022BC2D19DF80030012BA4D1DFE70324E6
:10DB2C000AF0E8FAA0E7962100200AF09DFAA7E790
:10DB3C0010000021F80900212DE9F04F93B0A34CFF
:10DB4C000D4608A901F0ACFB206808A99A3001F039
:10DB5C0067FC23689DF8201093F89620914205D11C
:10DB6C00032D17D09DF82120110752D46068012590
:10DB7C0001F05EF8637B1BB9284613B0BDE8F08F4B
:10DB8C000AF0B8FC09F070FA00232846637313B04E
:10DB9C00BDE8F08F93F89720FF2AE3D108A82A4616
:10DBAC000721FFF79DF86068C3881BB9037A002B27
:10DBBC0000F0E58000230A9E8DF81D308DF81E3094
:10DBCC008DF81F30B6B30DF11F030DF11D020DF1D1
:10DBDC001E0108A8FEF7B4FD23689DF81D8093F87C
:10DBEC004170B8F1000F01D047F002079DF82050AA
:10DBFC009DF81E90012D9DF81F6022D0022D00F083
:10DC0C00B280002D00F094806068012501F010F8BE
:10DC1C00B0E70D9993F897004A78B0EB121FA5D195
:10DC2C00097802F00F02B3F8983041EA02229A42C6
:10DC3C009CD1B3E79DF82050B146B046FF27012D8B
:10DC4C00DCD19DF82130206803F0090290F89A107D
:10DC5C00092A05D0002900F090801A0740F18D8028
:10DC6C0090F8543062685B0719D5D379BBB10029A1
:10DC7C0000F038810A9B002B00F02C81B8F1000FCA
:10DC8C0040F028815EB100F142019DF8322090F8FD
:10DC9C00410011F0EDF8002840F01B816268937987
:10DCAC00002B6AD0266896F854309B0765D09DF8F7
:10DCBC00213013F0020A00F0E680B8F1000F0AD10F
:10DCCC000A9B06F142019DF8322096F8410011F0B2
:10DCDC00CFF800286BD03E4B93F90090B9F17F0F31
:10DCEC0000F0BE81D4F804807F221A7098F80430BA
:10DCFC00032B00F04A8198F80430062B0CBF4FF030
:10DD0C00030A4FF0010A236803F1420609F032FEC0
:10DD1C003A4600903346267B08A940460196CDE949
:10DD2C00029A00F0D5FF40B3606800F041FF21E794
:10DD3C00206890F854309D071FD09DF8213099072A
:10DD4C004AD4FF2763681B7A33B1224B1B681BB183
:10DD5C000F9808B111999847394608A8FEF744FC6A
:10DD6C0058B1022506E7256895F854309A0704D077
:10DD7C00D4F804A09AF806202AB90125FAE6012560
:10DD8C0000F056FFF6E69DF8212002F00901092962
:10DD9C00F3D113F0020B38D012F0020100F0C38063
:10DDAC00B8F1000F40F02381002E40F0148123685D
:10DDBC0093F85530023B012BDFD8B9F1000FDCD0C2
:10DDCC00FE2108A80125FEF791FBD3E6F8090021F6
:10DDDC0010000021F4000021B8F1000FB2D100F1C5
:10DDEC0042010A9B9DF8322090F8410011F040F856
:10DDFC000028A7D1236893F85530023B012BBCD8DF
:10DE0C00B9F1000FB9D0FE279CE712F0020600F022
:10DE1C00BF80B8F1000F0AD10A9B05F142019DF8B1
:10DE2C00322095F8410011F023F80028BFD08D4B1B
:10DE3C0093F90080B8F17F0F00F0128166687F22A1
:10DE4C001A703379032B06D03379062B0CBF4FF0A5
:10DE5C00030B4FF0010B236803F1420509F08AFD17
:10DE6C003A4600902B46257B08A930460195CDE912
:10DE7C00028B00F02DFF00283FF47FAF6068012576
:10DE8C0000F096FE76E6774B93F900707F2F00F04A
:10DE9C00E7807F2119701379032B06D01379062B99
:10DEAC000CBF4FF0030A4FF0010A059209F062FD16
:10DEBC00059A06F14203009008A91046227BCDE991
:10DECC00027A0192FF2200F003FF00283FF455AFC5
:10DEDC002AE72068A03010F071FE00283FF4DEAE77
:10DEEC000C2547E600F15B0390F85A2000F178010D
:10DEFC0090F87E0010F0BCFF6268034620685179F0
:10DF0C00082904D090F84EC08C4500F0A08090F801
:10DF1C00561001293FF4AEAE00297FF4C0AE002BA1
:10DF2C003FF4BDAEA6E64F4B93F90080B8F17F0FDE
:10DF3C0000F096807F2203201A70FEF78BFC23687A
:10DF4C000546D4F8049003F1420609F013FD3A4655
:10DF5C0000903346267B08A9484601960126CDF849
:10DF6C000880039600F0B4FE002D3FF406AF0028A5
:10DF7C003FF403AF2068A03010F020FE002864D1DD
:10DF8C006068354600F014FEF4E54FF0000ABAE67E
:10DF9C00344B93F900707F2F62D07F221A709AF85D
:10DFAC000430032B05D09AF80430062B0CBF032643
:10DFBC00012609F0DFFC05F14203257BFF220090CE
:10DFCC0008A950460195CDE9027600F081FE0028A3
:10DFDC003FF4D3AE52E70A9B05F142019DF8322083
:10DFEC0095F8410010F044FF00283FF4E0AE1D4BC3
:10DFFC0093F90080B8F17F0F32D07F2200210320EB
:10E00C001A70FEF727FC23680546D4F8049003F138
:10E01C00420609F0AFFC3A4600903346267B08A92D
:10E02C00484601960126CDF80880039600F050FE74
:10E03C00002D3FF4A2AE00283FF49FAE2068A03024
:10E04C0010F0BCFD00283FF498AE0B2592E590F83B
:10E05C005630012B3FF40EAE002B3FF40BAE1EE6F8
:10E06C00FDF7F2FE1000002110B5044604F0AEFCE2
:10E07C00094A2378107003F00F03072B05D12046B3
:10E08C000121BDE81040FFF757BD044B586800F064
:10E09C00CFFD012010BD00BF10000021F8090021A8
:10E0AC0010B5044604F092FC094A2378107003F072
:10E0BC000F03072B05D120460321BDE81040FFF7C5
:10E0CC003BBD044B586800F0B3FD012010BD00BFF0
:10E0DC0010000021F809002190F83E00003818BF0C
:10E0EC000120704738B5012105460020FBF734FBB1
:10E0FC0020B3044601F018FB02E094F870301BB119
:10E10C0094F87030012BF8D13F22002120460EF0FC
:10E11C00DFFA002340F20111072284F8543084F80E
:10E12C00A530A4F84C1084F8585084F84B20636642
:10E13C0084F89430C4F8903084F8A6300121084655
:10E14C00FBF70AFB044618B301F0EEFA02E094F870
:10E15C0070301BB194F87030012BF8D13F220021A4
:10E16C0020460EF0B5FA002340F20111072284F884
:10E17C00543084F8A530A4F84C1084F8585084F826
:10E18C004B20636684F89430C4F8903084F8A63041
:10E19C00BDE8384000F07ABCF8B503461C4E0F467B
:10E1AC0000200121B360FBF799FA38B34FF4947255
:10E1BC00002104460EF08CFA01210846FBF78EFA7A
:10E1CC00054688B14FF4947200210EF081FA736900
:10E1DC00CBB13846FFF786FF204601F087FA284678
:10E1EC00BDE8F84001F082BA736963B13846FFF7B5
:10E1FC0079FF2046BDE8F84001F078BA40F6870177
:10E20C003220FAF7C7FD40F691013220FAF7C2FD31
:10E21C00F8090021014B024A5A617047F8090021A4
:10E22C00F8000021036810B54BB1074A03F16C04E8
:10E23C005169C2E900340B68BDE81040184740F63C
:10E24C005E113220FAF7A6FDF809002110B50F4C2B
:10E25C00606800F0EDFC637B8BB900220120D4E9EF
:10E26C000031087103F16C00A3F8212183F82321FC
:10E27C0000F06CFC2068BDE8104002F0A3BA0AF074
:10E28C0039F908F0F1FE00236373E6E7F809002181
:10E29C0090F8403013F0FD0F14BF0120002004F063
:10E2AC0069B800BF38B590F84030044600F142011F
:10E2BC0013F0FD0F14BF0120002084F8410004F07E
:10E2CC0041F894F84030023BDBB2012B94BF0123A0
