:10000000588C05209D470000C94100008947000029
:1000100089470000894700008947000089470000A0
:10002000000000000000000000000000294900005E
:100030008947000000000000C14800008947000017
:100040003D4B00003D4B00003D4B00003D4B000090
:100050003D4B00003D4B00003D4B00003D4B000080
:100060003D4B00003D4B00003D4B00003D4B000070
:100070003D4B00003D4B00003D4B00003D4B000060
:100080003D4B00003D4B00003D4B00003D4B000050
:100090003D4B00003D4B00003D4B00003D4B000040
:1000A0003D4B00003D4B00003D4B00003D4B000030
:1000B0003D4B00003D4B00003D4B00003D4B000020
:1000C0003D4B00003D4B00003D4B00003D4B000010
:1000D0003D4B00003D4B00003D4B00003D4B000000
:1000E0003D4B00003D4B00003D4B00003D4B0000F0
:1000F0003D4B00003D4B00003D4B00003D4B0000E0
:100100003D4B00003D4B00003D4B00003D4B0000CF
:100110003D4B00003D4B00003D4B00003D4B0000BF
:100120003D4B00003D4B00003D4B00003D4B0000AF
:100130003D4B00003D4B00003D4B00003D4B00009F
:100140003D4B00003D4B00003D4B00003D4B00008F
:040150003D4B000023
:1001540053B94AB9002908BF00281CBF4FF0FF312A
:100164004FF0FF3000F00CB8ADF1080C6DE904CE8F
:1001740000F010F8DDF804E0DDE9022304B0704774
:10018400704700BF034613F8012B002AFBD1181A4D
:10019400013870472DE9F04786468C460846089E8C
:1001A400154674461946002B40F0C1808542B2FAC8
:1001B40082F245D94AB1C2F1200300FA02FC95400B
:1001C40094402EFA03F343EA0C0C4FEA154EA8B2FE
:1001D400230CBCFBFEF80EFB18CC08FB00F943EA29
:1001E4000C43994528D9EB1808F1FF3704D29945F7
:1001F40002D9A8F102072B44A3EB0903A4B2B3FB71
:10020400FEFC0EFB1C330CFB00F044EA0344A0424A
:1002140014D92C190CF1FF3304D2A04202D9ACF149
:1002240002032C44241A43EA07401EB1D44000239D
:1002340034607360BDE8F0874746DDE76346F1E765
:1002440092BB431B01214FEA154EAFB2200CB3FB06
:10025400FEFC0EFB1C330CFB07F840EA03439845F5
:1002640061D9EB180CF1FF3004D2984502D9ACF1F6
:1002740002002B44A3EB0803A4B2B3FBFEFC0EFB69
:100284001C330CFB07F744EA0344A7424DD92C194D
:100294000CF1FF3304D2A74202D9ACF102032C447F
:1002A400E41B43EA0040C0E7C2F1200395409440B8
:1002B40020FA03F12EFA03F34FEA154E9040AFB241
:1002C4000343B1FBFEFC0EFB1C10190C0CFB07F8DE
:1002D40041EA0041884522D969180CF1FF3004D263
:1002E400884502D9ACF102002944A1EB08019BB274
:1002F400B1FBFEFC0EFB1C110CFB07F743EA0143A8
:100304009F420ED9EB180CF1FF3104D29F4202D95F
:10031400ACF102012B44DB1B41EA004193E7604648
:10032400E3E76146F7E76046A4E76346B8E783423C
:1003340006D916B9002108467CE7C6E900E0F9E7CA
:10034400B3FA83F78FB9834201D3724508D8BEEB61
:10035400020460EB030301209C461EB9002169E7F7
:100364003846FAE7C6E9004CF8E7C7F1200CBB4071
:100374000EFA07F522FA0CF42EFA0CF1BA401C43DB
:1003840020FA0CF3B8404FEA144901431FFA84FEE3
:10039400B3FBF9F809FB18300B0C08FB0EFA43EA1F
:1003A40000439A4540D9E31808F1FF3004D29A4536
:1003B40002D9A8F102002344A3EB0A0389B2B3FBD8
:1003C400F9F809FB183308FB0EFE41EA03418E4598
:1003D4002CD9611808F1FF3304D28E4502D9A8F153
:1003E4000203214443EA0040A1EB0E01A0FB029862
:1003F4004145CE46434602D306D14D4504D2013889
:10040400B9EB020E68EB0403002EA7D0B5EB0E0285
:1004140061EB030101FA0CFC22FA07F3F9404CEA00
:100424000303C6E9003199E74046C5E74346D9E7E7
:10043400704700BF10B502F051FE094C02F05CFF9A
:100444000028FBD123782BB900214FF476700CF0EF
:1004540069FAF3E70348BDE810400BF0E1BD00BFC3
:10046400085005207C22002070B54FF4767288B0C5
:10047400002300246FF00F060A4DCDE90623284619
:100484004FF44072CDE90364CDE90144064B0749BA
:1004940000940BF079FE2846054908B0BDE8704089
:1004A4000BF026BEA02200203904000018500520BD
:1004B400A8DF0000012004494FF0FF324FF0FF3362
:1004C400087002480BF0E6BD085005207C2200208D
:1004D4002DE9F04184B000AF0321334A334802F0E0
:1004E40085FF00F09BF8FFF7BFFF381D01F02CF9E2
:1004F4002F4B1B68834205D001212E4A2B4802F062
:1005040075FFFEE7FB6803212B4A284802F088FFA9
:100514007B686C468AB01A7D5D7DD88A6B4605215E
:100524009A611A46254EC3E907505E6142F8101FCE
:1005340000234FF423511D4802F0AEFFA5460321CA
:100544001F4A1A4802F052FFFFF7B4FF3946387ABF
:1005540000F03AF8044620BB7A683B68FD681689C7
:100564001D4405EB060807F0F1F801F097F901F0D6
:1005740079F904F041F984F30B8884F30A88AB59C0
:1005840083F3088884F31488BFF36F8FBFF36F8FEE
:10059400D8F80430984701210A4A044802F026FF9B
:1005A400FEE70DF017FA00BFB0DF000058DF0000CF
:1005B40060410020C4DF0000E4DF000010E0000020
:1005C4002CE000004CE00000034608B908607047C6
:1005D40010B582B000240121044A0548009402F0B9
:1005E4003BFF6FF0150002B010BD00BF6CE00000CF
:1005F40058DF000049B1012904D1064B03EBC003C5
:10060400586870476FF015007047024B53F830007C
:10061400704700BF90E00000002070474FF4C051C5
:10062400014809F04DB900BF602900202DE9F04FC1
:100634000446DFF858B2F9B0DBF80050839F38A8BD
:1006440088460395059415461C46829EDDF814924F
:1006540009F008FB002138A809F00EFB1FB1849BA8
:10066400002B00F3B880B8F80A30B8F808201A4410
:10067400D8F80C3013EB020A24D00027CDF81080F0
:1006840006E04246214638A809F0C6FBBA4517D908
:10069400AAEB0703B34228BF33463946224628460D
:1006A400984603F055FB47440028EAD038A809F0DF
:1006B400DDFADBF800300393039879B0BDE8F08FDE
:1006C400DDF810800EA938A809F0FEFB38A809F05F
:1006D400CDFAB9F1000F12D00EAC0FCCC9F800005E
:1006E400C9F80410C9F80820C9F80C300FCCC9F8AF
:1006F4001000C9F81410C9F81820C9F81C300023D8
:10070400414600932A464FF6FF7308A800F0C8F844
:1007140004900028CDD1294605980D9C00F080FA5C
:100724008442C6D84FF0FF364FF6FF770DF11A0317
:1007340006AA07A908A800F001F90028B9DB40F0CF
:100744009F80079908A800F053F9002849D0BDF804
:100754001A40102C50D0202C69D0012CE6D1BDF8C1
:100764001830202BA5D82846079938AA03F0F0FAA8
:10077400064600289DD19DF818A0BAF1200F7CD818
:10078400434BD3F80090B9F1000F72DDDFF8048118
:100794001EAC02E00136B1456CD0204609F062FA85
:1007A4000021204609F068FAD8E9001320461A68A7
:1007B40009F032FB16A9204609F086FB524638A9F7
:1007C40016A80DF036F908F108080028E2D12046F1
:1007D40009F04CFAAAE739461A4638A809F01CFB76
:1007E40041E70124BDF81A202B4BA242B1D033F8C3
:1007F400024FBC42F9D15CE7BDF81840202C7FF4CD
:1008040058AF23462846079938AA03F0A1FA0028CE
:100814007FF44FAF224638A90EA800F0F9F91F4B18
:100824001B6883427FF445AF012304937EE7731C66
:100834003FF47CAF164B1B68B3421EDDBDF8183085
:10084400B3F5807F7FF435AF2846079938AA03F0C3
:100854007FFA00287FF42DAFF6B22146BDF8183098
:10086400009638AA0EA800F06BF903904FF0FF36FB
:100874005CE71EAC204609F0F9F94FF0FF3655E766
:10088400049B002B7FF418AF13E700BF082000205F
:10089400A0E00000A4E00000ACE000006041002003
:1008A4002DE9F04782B09DF828A0002842D00D46DB
:1008B40000293FD01746002A3CD00E899946CB68C0
:1008C40004461E440423314638460DEB030203F06C
:1008D4003FFA804670BB46F60811BDF804306A89B9
:1008E4008B4219D032BB46F60712934222D167607D
:1008F400A4F80890256084F80AA06B89BDF8062046
:100904003344E3606B89134433440436C4E9046319
:10091400404602B0BDE8F087BDF80610914209D107
:100924000423384601AA314403F012FA10B9BDF881
:100934000430D8E74FF0FF38EAE700BF002853D06F
:100944002DE9F0431F460368044683B09BB3406817
:1009540088B389469046D4E904128A420D463FD9A9
:100964004FF6FF7619E0A37A1BB1D4E903329A4219
:1009740036D22389BDF80620B34202F104051FD004
:10098400BDF8041099421BD0D4E904130D449D42D0
:100994002946256124D2D4E900305B8923B1E36878
:1009A400AB4204BF291D216104230DEB030203F0B4
:1009B400CFF90028D7D04FF0FF3003B0BDE8F08363
:1009C40017B1BDF804303B8023690433C9F8003003
:1009D400A8F8002023692B44236103B0BDE8F08309
:1009E400012003B0BDE8F0834FF0FF30704700BF33
:1009F40048B103683BB143682BB1C068884294BFD7
:100A04000020012070474FF0FF3070472DE9F0417E
:100A1400494CADF5AE6D25680C46DDF88815B1F589
:100A2400807F01D1202A04D028460DF5AE6DBDE8A3
:100A3400F08119465CAA09F0C3F80028F4D19DF8A6
:100A44006F32BC2BF0D1DF260DF190080190202EDF
:100A54000AA83746A8BF202709F004F900210AA8EC
:100A640009F00AF920220DF24F210AA809F0D4F95D
:100A740004220AA80DEB020109F0CEF902A90AA882
:100A840009F022FA9DF80730404601333A46F61B36
:100A940002A98DF807300CF09DFF002EB844D6DC77
:100AA4000AA809F0E3F824A90DF18F030DF26F10E1
:100AB4000DF5B77E13F8012F10F801CF734582EAC4
:100AC4000C021A70F6D19DF8902024AB02F07F023C
:100AD40003F8BE2B01E08B4204D011F8016B002E09
:100AE400F9D0A1E79DF84E31012B9DD10AA809F058
:100AF400B9F831460AA809F0BFF808220F490AA834
:100B040009F08AF9214620220AA809F085F9202251
:100B14000DF24F110AA809F07FF902A90AA809F0F9
:100B2400D3F90AA809F0A2F820220DF24F2102A855
:100B340000F06EF8054677E708200020CCE00000BE
:100B44002DE9F04707463048A2B0D0F800A004A829
:100B54001E469DF8A8508846914608F0EDFF0922EC
:100B6400012104A808F0ECFF284A302352F835404C
:100B740002EBC50252680294126802A8144421468A
:100B840003AA07F02FF978BBDDE9023213449C4233
:100B94002AD1214606AA02A807F06EF920BB2146F5
:100BA40002A808AA07F068F90546E8B906A807F0FC
:100BB40045FF029B05909C4216D108ABCDE900533A
:100BC4002A462B4606A904A808F082FF60B904A8A7
:100BD40008F0D0FF40B906A807F030FF059004A83C
:100BE40008F0C6FF864206D004A809F037F850463C
:100BF40022B0BDE8F0874B4642463946009604A829
:100C0400FFF704FF8246EFE708200020A4E000007D
:100C14000CF00FBF00EB4000C0023030704700BF43
:100C2400084606F01BBF00BF2DE9F043044683B01D
:100C340090F8B80088461646FFF7DCFC6946C0B257
:100C440003F05CF838B10125009803F07FF82846DA
:100C540003B0BDE8F0832C22582702FB08F894F86F
:100C6400B830009807FB03832344B3F80890DB688B
:100C74009944042349460DEB030203F069F8054641
:100C84000028E0D146F6081294F8B830009807FB23
:100C94000388BDF8043044449342648916D074B97F
:100CA40046F6071293420AD1BDF8063023444B445A
:100CB400336003F04BF8284603B0BDE8F083032506
:100CC40003F044F8284603B0BDE8F083BDF80630CD
:100CD4009C42F4D1042301AA04EB090103F038F87F
:100CE4000028B0D1BDF804300098D9E703464FF48A
:100CF4000062084610B593F8B810114C82B0019206
:100D04004A0054F822C0604514D0013254F822201D
:100D140090420CD1582202FB0134226D543401A9B3
:100D240003F09AF820B9019B236002B010BD0120A2
:100D340002B010BD582202FB0134626A2834EEE787
:100D4400ECE2000070B590F8B840114E640056F81B
:100D540024100546FFF7CAFF10B10124204670BDD8
:100D6400013456F824102846FFF7C0FF044658B94A
:100D7400582295F8B83002FB0353186A03F036F88A
:100D8400C5F8B400204670BD0924204670BD00BFDC
:100D9400ECE200002DE9F8434FF000082C27582519
:100DA40004460E4607FB08F994F8B800414615FBC3
:100DB4000092224406F0C2FD01280ED028B9B8F1F1
:100DC400000F08D14FF00108ECE7B8F1000F02D092
:100DD400002E08BF0020BDE8F88394F8B820002353
:100DE40015FB029241462046224400F023FDE5E72C
:100DF4002DE9F84FDDE90AB616B3884692469946BE
:100E04000024114F07E02B463A46504602F0BCFF3F
:100E140098B9A64214D9351BB5F5806F28BF4FF495
:100E2400806504EB09013A4640462B4602F090FFE8
:100E340004EB0B012C440028E5D00120BDE8F88F19
:100E44000020BDE8F88F00BF6442002000232DE994
:100E5400F04F95B004AF1E4604469946AA4DDFF8FC
:100E6400ACA2B96080F8B8300BE094F8B81001F186
:100E740001095FFA89F9B9F1010F84F8B89000F219
:100E8400A38004EB090393F8B9100029EDD14FF0C6
:100E9400580808FB094C05EB893303F5004305EBBF
:100EA40089324846CCF82420CCF85030FFF7A2FB16
:100EB40094F8B810C0B208FB0141203102F01EFFC3
:100EC400002840F0BB8101214846FFF793FB94F8CA
:100ED400B810C0B208FB01414C3102F00FFF0028EA
:100EE40040F0AC812046FFF72DFF804678B14FF4E7
:100EF400006352460221864802F092FA012294F8D5
:100F0400B810904504EB010383F8B020AFD0002162
:100F14002046FFF73FFF804650B9204600F022FCF0
:100F2400A0B9012294F8B810631883F8B0209EE7A2
:100F340094F8B8300221774A754802F071FA012218
:100F440094F8B810631883F8B02090E7582394F805
:100F5400B800DFF8C4C103FB0043DA6AD96C624508
:100F6400C7F8148000F01F8206F034FE831E022BA3
:100F7400804640F2658194F8B8105FFA80F86318EF
:100F840083F8B080002900F04883B8F1010F3FF4E2
:100F94006EAFB8F1040F00F04B8394F8B020042A2C
:100FA40004BF012284F8B020012906D094F8B120AE
:100FB400042A04BF012284F8B12093F8B030023B24
:100FC400022B98BF012652E7DFF85081002518F85C
:100FD400019BB9F1010F06D005BB18F8019B01254F
:100FE400B9F1010FF8D149462846FFF703FB07F191
:100FF4002801C0B202F082FE38B90146B86A82689C
:1010040002F0DEFE002800F0E282012100902B466F
:10101400434A3F4802F020FA002DDED0002E40F073
:10102400138200231846DFF8E89084F8B8302318B8
:1010340093F8B950002D64D193F8B020042A5ED8F7
:10104400012A4ED802D0FF2283F8B02094F8B800C9
:10105400231893F8B030FF2B00F055830130C0B251
:10106400012884F8B800E2D900224FF0580813464A
:10107400294EBA6284F8B8201AE093F8B030012BF4
:1010840005D02046FFF786FE002840F0A38194F89F
:10109400B85008FB05F3E358B34240F09581BB6AAE
:1010A4000133BB626B1CDBB2012B84F8B83013D85C
:1010B400234493F8B9203A773A7F02F0FF01002ADB
:1010C400DBD0BB6A94F8B8500133BB626B1CDBB253
:1010D400012B84F8B830EBD9BB6A022B00F066828E
:1010E400FEE7582606FB00431946DA6C2C3106F05D
:1010F4006BFC0128824615D00028A7D09EE0052A63
:10110400A0E794F8B800A9E768460020D4E00000FE
:1011140058DF000014E100003DB8F3966446002057
:10112400FCE100000146BD62204607F12802FFF7FA
:101134007BFD002840F0828094F8B8B003215B4620
:101144004846B64A02F06CF903214846B44A02F014
:101154004DF994F8B83007F1180106FB03431B6AF4
:10116400187802F0CBFD002868D1AE4B0AEB4B0A8D
:1011740013F82A0007F11C0102F0C0FD05460028FF
:101184005CD194F8B83006FB0342D2F82880B8F159
:10119400000F00F061828246C7F80CB006E00AF145
:1011A400010AD04500F0E98094F8B83006FB034307
:1011B4005B6A294603EBCA03D3F804B0B8695A46FC
:1011C40002F0FEFD002839D1BB6A5D449D42E6D39E
:1011D400D4F8B400D7F80CB0B3FBF0F300FB03056C
:1011E400FFF718FD5821002294F8B83001FB03439F
:1011F400D3E90913013B01EBC30309685E689C460C
:1012040032449042A3F10803F8D8DCF80030B869FE
:10121400591A02F0D5FD064680B903215B464846BB
:10122400814A009502F018F9D7E906213346204691
:10123400CDE90065FFF7DCFD002866D00CF0CAFBA1
:101244004FF0580B94F8B8300BFB0342D2F84C9093
:10125400FB60B9F1000FF1D0484602F0CFFD94F8DD
:10126400B810FB680BFB014E0EF12B0C0EF12F0E88
:1012740002E0E64500F086801CF8012F8242F8D097
:10128400582202FB034EDEF83CC01CF0100F79D14B
:101294006648DEF82CB0834516D1DEF83800BEF877
:1012A40034B01BEB000B0FD2BEF8360010EB0B0E64
:1012B4000AD2D9F80800864506D240F60C601CEA2A
:1012C4000000786000F08A81594BD3F800B0594B84
:1012D4001B685B4540F04781582394F8B81003FB22
:1012E4000143DA6C914500F0D4815B469B4550D1B3
:1012F4005FFA88F8631883F8B08000297FF449AE58
:101304000126B14684F8B860BBE5B86906F0ACFBC9
:10131400002893D12A46582594F8B80005FB0043C9
:10132400196A06F089FB0146002887D194F8B83081
:10133400F86905FB03431B6D5A6802F041FD002860
:101344007FF47CAF94F8B820F86905FB0242D2E937
:101354001423013B52F8331002EBC3031268891AB9
:101364005A6802F02DFD00287FF468AFB86902F0D6
:10137400EDFCF86902F0EAFC68E6D7F80CB0D4F8A2
:10138400B4002DE72C4BD3F800B02A4B1B689B45C7
:10139400AED0294B1B685B4540F0D980012263180D
:1013A40083F8B02063E59B8E084607F11402191DEB
:1013B400042302F0CDFC002840F03C81022294F882
:1013C400B8001E4B1A54CFE501211D4A1D48009553
:1013D40002F042F8164B1E6800225825134684F882
:1013E400B820E21892F8B9205AB905FB0343D86C27
:1013F40002F0ACFC94F8B83005FB0343186A02F021
:10140400A5FC94F8B8300133DBB2012B84F8B83072
:10141400E7D930464437BD46BDE8F08F30E20000DE
:1014240060E20000ECE200007CE200003DB8F396CC
:101434000820002060410020042000206446002091
:10144400CCE2000058DF000000222C26134684F86A
:10145400B820E21892F8B91000296DD192F8B020A2
:10146400582102F0FB02013A18BF012206FB02F2E6
:1014740001FB03202044056A002D3FF4DFAE4FF04A
:10148400010C11FB032107F1280040232A462144C3
:10149400CDF800C0FFF704FA002840F0D5800023FF
:1014A40007F1140207F1180107F12800FFF746FAC3
:1014B4000028FFF6B6AD3DD1BB8A0C2B40F0C780A7
:1014C4002846B96907F11C0202F042FC00287FF4A7
:1014D400A8AD3B7F012B3FF6A4ADE218582092F84B
:1014E400B02000FB03F3023A022A8CBF002201223F
:1014F40006FB0233234497F820101A7D8A42CED883
:1015040009D3597D97F821209142C8D803D3DA8AA8
:101514007B8C9A42C3D294F8B830234493F8B02019
:10152400012A10D0023A012A3FF67BAD012283F84A
:10153400B02076E594F8B8300133DBB2012B84F89F
:10154400B83086D96DE5042283F8B02069E5052218
:10155400631883F8B02000297FF41FAD4FF0010910
:1015640084F8B8908DE4D9F808200021484602F0A8
:1015740027FCE94688B004AB4FF400729A831A46FC
:101584006449596164499961644B42F8103F0023EE
:101594004FF4E251624801F07FFF624B624ACD464C
:1015A4001B68D2F800B094F8B810F0E6002294F862
:1015B400B93084F8B820002B52D0012394F8BA2013
:1015C40084F8B830002A4BD0564B1E6804E7574ABB
:1015D40049462B46524801F023FFFDE4FB600846D0
:1015E400012106F0E3F98346514958220968FB6852
:1015F40088427FF46CAE02FB034303F12C014FF4E9
:1016040080737A682046CDE90222019200934A460B
:10161400484BFFF70BF8834659E6A8F10208B8F1E6
:10162400020F7FF66DAE4FF0010984F8B89028E4FC
:1016340001261CE4052294F8B810631883F8B0203E
:1016440000297FF4AAAC89E703287FF4EAAC40F2CE
:101654000113A4F8B030E4E44546D4F8B400BFE57F
:10166400582505FB0343186AFEF7D6FFB9680871CD
:1016740094F8B83005FB03431B6A5B688B6094F8ED
:10168400B83003EB830203EB420304EBC3030B60A8
:101694009AE70022998E1B6ABA62FB6048460423CB
:1016A400043107F1280202F053FB00BB94F8B81090
:1016B400012924D041B9FB68D3E901231344B86A52
:1016C400904204D3834202D3164B1B685FE6012188
:1016D400194A134801F08AFE0121184A104801F002
:1016E40085FE00214846D9F8082002F069FB0E4B1C
:1016F40094F8B810D3F800B00A4B1B6847E64FF0D3
:1017040082730F4ADBE701210E4A054801F06EFEA1
:1017140094E500BF3CE1000060E10000030000012B
:1017240058DF00006041002004200020D4E10000C4
:1017340000200020644100206CE10000B0E10000C2
:1017440000880001C4E20000054B10B5BC22044629
:10175400002118460CF065F92146FFF777FB10BD10
:10176400684601205822F8B590F8B83002FB03000F
:10177400866A476DB6F5006F35D8B7F5006F32D875
:1017840000210A460B468E468C46B34201D3BA4228
:1017940030D2F4450FD01BD2446A022904EBC304AF
:1017A400646803F10103A44430D0B3424FF0010153
:1017B400EDD2F445EFD1456A046D05EBC30504EBA6
:1017C400C2046D686468AC44A64401330132DCE7AA
:1017D400046D012904EBC204646802F10102A64409
:1017E40019D00221D1E702210E4A0F4801F0FEFD73
:1017F4000020F8BDB34203D1BA4201D10120F8BDA3
:1018040002210A4A084801F0F1FDF1E7084A0648B6
:1018140001F0ECFDECE70221054A034801F0E6FD86
:10182400E6E700BFFCE2000058DF00005CE30000D4
:1018340028E3000008B54FF0580E4FF02C0C90F838
:10184400B8300EFB03F30CFB01331844006A38B1C3
:101854002023002102F07CFA003818BF012008BDC3
:101864000CF0B8F8BFF36F8F72B600234FF0FF305F
:10187400094903F120020133102B41F82200F8D169
:1018840000234FF0FF30044903F160020133102BB1
:1018940041F82200F8D1704700E100E02DE9F84357
:1018A4004FF0FF364FF001081F4A204B204FC2F87B
:1018B400048007F10809C2F84863C2F80863C3F852
:1018C4000480C3F84863C3F8086357F8044B002541
:1018D40044F30730C4F8086303F044F88022C4F8E2
:1018E4000480C4F84C51D4F84C31C4F81051D4F8E5
:1018F4001031C4F84451D4F844312946A018C4F82E
:1019040000550CF08EF88022294604F5C0700CF0C6
:1019140088F84F45D9D14FF05023064AC2F80865DC
:10192400C3F80863BDE8F88300400150005001503B
:101934009CE400000070015030B4846800EBC102E4
:10194400B4F5004F22D2012553885B0801335B1B99
:10195400B3FA83F3C3F11F0300EB830CDCF81050DC
:10196400D5B901259D40C368B4F5004F43EA05038A
:10197400C360CCF810102CBF916091808368B3F5DC
:10198400004F2CBFD160D18030BC704753685B08D6
:10199400012BF9D00225D9E7B4F5004F00EBC50CB3
:1019A4002BBFDCF80830BCF8043093609380846863
:1019B40000EBC303B4F5004F2CBFD560D58082681B
:1019C400B2F5004F2CBFD960D9808368B3F5004FBE
:1019D4002CBFCCF80810ACF8041030BC704700BF22
:1019E400B2F5802FF8B52CBF08240424151B0D4430
:1019F400073121F0070425F007052D1BEF08B5F585
:101A0400802F34BF3A4607F1FF32B2FA82F2002344
:101A1400C2F12406B6000736C2F120020460F608BB
:101A24000021C4E90273920004F110000BF0F9FFE5
:101A34007300BA1BB5F5802F4FEA420004EBC601D0
:101A440043F001032AD36360002323604860A36842
:101A5400B3F5004F2CBF44F8366024F83660A16813
:101A64006319B1F5004F4FF000012CBF5960598044
:101A7400A368B3F5004F2CBF62516253A26804EB14
:101A8400C703B2F5004F0ED35A68314642F0010243
:101A94005A602046BDE8F840FFF74EBF638000233C
:101AA40023804880D3E75A88314642F001025A80A5
:101AB4002046BDE8F840FFF73FBF00BF2DE9F04FD7
:101AC4008946C2F3C20191B00131049102F00401CC
:101AD400069181071A9D40F01C820646041D0028C9
:101AE40000F0E781B9F1070F40F2558102F00202DC
:101AF4004FF0FF380592002201279B46019203EB29
:101B0400080A079202920EB1C4F800B0049B002B9D
:101B140040F3B381059B0BB30122A11B8B08B1F5E4
:101B2400007F80F0E18102990F2900F2DD81002E0F
:101B340000F0DF8140316944DBB201F8203C01F858
:101B4400108C002A00F0AF8163F07F0301F8203C81
:101B5400019B01330193029B013302939AF8012004
:101B640004340AF1010A002A4ED04FF0040CC6F1E5
:101B74000803039300214FF6DA706346002900F04E
:101B840046817A2A3BD84B2A40F20E814C3A2E2ABF
:101B940035D8DFE812F03500340034003400340066
:101BA40034003400340034003400340034009F0026
:101BB4003400340034003400340034003400340081
:101BC400C40034009F009F00C400C400C40035005A
:101BD4009F000501340035003400DE009F00DE0064
:101BE40034003400F500F1009F00340034009F00FD
:101BF4003400F100252A40F0FF8008F1FF3800216D
:101C04001AF8012F002AB9D1A11BB1F5806F5B46E8
:101C1400084680F06981002E00F07081002535604F
:101C24008D083570069D9DF81C20002D40F0008124
:101C34007270019AB270002A00F00081029A002AA0
:101C440045D00DF1200A514602EB0A07C6F1010501
:101C540011F8012B281912F0800F02F07F0204D032
:101C6400484500F2988004F8012BB942F0D1029F54
:101C7400C6F101085744BB461F46CDF80880A0466C
:101C8400069C0CAD019B1BB19AF90020002A16DBBF
:101C9400002C00F0E7802A7808F8012B0022029B30
:101CA40003EB08011144494575D840469AF80030C1
:101CB400394600F8013B02EB00080BF08BFE0AF1F9
:101CC400010ADA4505F10105DCD14446A01B11B037
:101CD400BDE8F08F1AF8012C6C2A36D004EB0C0204
:101CE400013AB2FBFCF20CFB02FE002E00F0DF8096
:101CF40000210EEB0302921B91454CD3042B00F000
:101D04000381082B40F0F0800EF10804073525F01C
:101D14000705F5E80223CEE90023082370E7073519
:101D240025F00705073424F00704F5E8022336B14B
:101D3400DDF80CC0A444CC452DD8C4E900234FF0F1
:101D4400080C0021634608345AE71AF8023C6C2B4D
:101D54007AD0033424F0030E002E62D00EF1040472
:101D6400A31B994517D300214FF0040C55F8043BED
:101D7400CEF80030042343E74FF0040C63463FE7FA
:101D8400033424F00304002E00F0A880231D9B1BC1
:101D9400994580F0A3806FF01B0011B0BDE8F08F6F
:101DA4004FF0080C63462BE7472A3FF628AF292A51
:101DB4007FF620AF2A3AD2B207FA02F202427FF447
:101DC4001FAF12F0625FAAD112F001013FF418AF05
:101DD40004EB0C02013AB2FBFCF20CFB02FE002EF7
:101DE40087D1042B20D0082B7ED1073525F0070599
:101DF40008350EF1080490E73FF601AF202A3FF4BE
:101E0400FFAEA2F12301B1FA81F14909F8E6252ACE
:101E14007FF4F6AE4FF0040C0121634608F101088B
:101E2400EEE631464FF0040C04350EF10404A1E74C
:101E3400F270019AB270002A7FF400AF029A002A6D
:101E44006AD00DF1200A12E7073424F0070E002EA1
:101E540040D00EF10804A31B4B459CD800214FF041
:101E6400080C53E79AF8002056F8227046F82240EE
:101E74003846FEF787F9421C11E7284B9B4503D3EC
:101E8400274B9B45FFF446AE059AA11B8B08002AFD
:101E94003DD1029A0F2A27D88EB140326A4402F803
:101EA400203C02F8108C079B0133079353E631461C
:101EB40097E709F007094C44C9F1080916E6069B9F
:101EC40009F10209002B7FF446AE5846FEF75AF991
:101ED400814440E631464FF0080C86E7049B55F8F0
:101EE40004BB013B04930EE66FF0150011B0BDE88E
:101EF400F08F002AE3D009F101092CE6A9F10800CA
:101F0400084411B0BDE8F08F0EF104042EE700225E
:101F140005E66FF00D00DAE60846D8E640DB00007F
:101F24009CF8000053B32DE9F04799461C785D787E
:101F3400DB78A40004EB430499F8023007461C4400
:101F44000E4690464C447DB14FF0000A14F8013B14
:101F54000AF1010A204649F82340FEF713F95545D2
:101F640000F101000444F1D141463846B446D9F8A1
:101F7400042009F10803BDE8F04760476FF015003D
:101F8400704700BF024612F8013B23B34FF0000C28
:101F94006046C0B100B56145A3F1400E1DD0BEF14D
:101FA4003A0F05D800200CF1010C05E00028F2D10D
:101FB400252B08BF80F0010012F8013B002BF5D15E
:101FC40000205DF804FB252B12F8013B08BF80F0CC
:101FD4000100002BDDD118467047702BF1D0BEF103
:101FE4003A0FE5D80020ECE72DE9F04F99B000AFA7
:101FF400D7F88840C7E908328378C4F3C00405469B
:102004008846BC617B6389B90478467803EB840411
:1020140004444EB101342046FEF7B4F808F1010837
:10202400013046450444F5D1A4EB0508EB783B6345
:102034007B6B002B00F01381D7F8883013F0010379
:10204400FB6200F00C812B786A683B607A6105EBD7
:1020540083099A003B6BFA60002B40F059817B6A3C
:10206400002B00F069814FF0000AD7F888307E6BAE
:1020740003F00203BB6207F140007C6B4946224631
:102084000BF0A8FC09EB0403FB613B6B002B5CD059
:102094003B6BFA694FEA430909F102031344941CA8
:1020A400D7F88820DFF888B202F004023A615A4671
:1020B400C7E901899B46D7F8188013461AE09D4A60
:1020C40090421FD2B8F1000F40F01581FA6A002A3D
:1020D40040F0F8803A6952B10AF1280207F1380158
:1020E40051180AF1010A01F8109C5FFA8AFA0234C5
:1020F400A34525D014F8019C14F8021C55F82900B6
:102104009842DCD2B8F1000F40F0E680BA6A002AA7
:1021140040F0D8800AF1010007F1600252FA80F021
:1021240007F1380C0AF12802023494440AF1020A35
:10213400A3450CF8101C5FFA8AFA00F8109CD9D158
:10214400D7E90189FB694B44FB6195F80190BA6AB0
:1021540009EB0603DBB2002A40F0D8804FEA5A02AA
:10216400F96A002940F0D080D7F8881011F0040FE4
:1021740014BF51460021A970EA7028463A6AF968EA
:10218400D7F824B06B70D847041E71DB002338687D
:10219400D7F830C060F30703786B69F30F2360F35B
:1021A40017436CF31F6351463A6A2B6007F15000E2
:1021B400D847B0F1000AC0F24F81786BFB68D7F8BA
:1021C40030C0A8EB0001C91AA1EB4C01C7F824B038
:1021D400D7E90702D847B0F10009C0F24B81A24405
:1021E400D144002E00F04881C7E90C65D7E908A561
:1021F4004FF00008D7F88C4007F1400B15E034F895
:102204001830FB62A847002881446EDBFB6A03B3E5
:10221400194630465246A847002808F1010881446F
:1022240063DB3B6B984500F027811BF808307A6B21
:10223400012152F8236087F83F30524607F13F00EE
:102244001CB1D7F890304345D9D8A8470028814419
:102254004BDB3046FDF796FF431C9BB2D8E73B6B44
:102264005BB97B6A1BB1414628463A6A98474446A3
:1022740020466437BD46BDE8F08FD7F8883013F0A8
:102284000203BB62EDD02B786A683B607A6105EB90
:1022940083099A007B6AFA60002B00F0F480D7F877
:1022A400883003F00103FB627B6B002B00F0CE80CF
:1022B400D7F88820520740F1C9809A46002607F1D2
:1022C4005000DAE606F1280207F138015118013608
:1022D40001F8209CF6B20AE77869BB61FFF752FE69
:1022E400BB6900283FF412AF01E704462046643777
:1022F400BD46BDE8F08F7869BB61FFF743FEBB695B
:1023040000283FF4E3AEF2E6002134E7002227E799
:10231400D7F8883013F00203BB623FF4A0AE7B6AA7
:1023240053B14FF0000A7E6B07F14000A5E600BFF1
:1023340040DB00009CF800004446C8460026D7F85D
:102344003490A346D7E9234AC14418F8013B55F811
:102354002300FDF717FF0130834424B1B24584BF45
:1023640024F816000136C845EFD1D7F888303A6B07
:102374005C46C14603F00503002A3FF479AF002B05
:102384003B6B09F1020809EB430A0CBF022301234A
:10239400BB62D7F88830A94603F002037B63D7F801
:1023A4008830DFF8F4B003F00103BD693B630EE04D
:1023B4003A4A934213D2002D54D13A6B9AB9BB6A6C
:1023C400E41AD04508F102033FF452AF984618F8D6
:1023D400013C18F8021C59F823305B45E8D2A5B932
:1023E4007A6B002AEDD01846FDF7CCFED7F88C3076
:1023F4004BB1D7F89030B34205D9D7F88C20431CA1
:1024040022F8163001360444DBE77869FB62FFF7F3
:10241400B9FDFB6A0028E3D0C7F82CD08AB06B461C
:10242400D9614FF400717A6919849A611A461C497A
:1024340059611C4B42F8103F00234FF412511A48C3
:1024440001F02AF8023CD7F82CD0BAE700267B6BBF
:10245400B2464B44FB611BE6544620466437BD46F6
:10246400BDE8F08F7869FB62FFF78CFDFB6A0028FA
:10247400A3D0D1E74C46FBE600213A6A08467B6AC2
:102484004C469847F4E67B6B44469944D7F8883029
:102494007E6A03F0050372E740DB00009CF800004D
:1024A400A4E400000400000120DF000000207047C5
:1024B400014B1860704700BF0C2000200FB400B51A
:1024C40083B004A951F8040B019100F0CFFD03B0CF
:1024D4005DF804EB04B0704780B505460E4614461B
:1024E4001F460AF05FFA03460BF01EFB2146044622
:1024F4003A46034F30463B51A847E05902F0C4F92D
:102504000800000070B4C26904688B0043F0020341
:1025140042F8243002690368D507046A0B4412D4D4
:10252400A34200D31B1BC5684668AB42036006D0B8
:1025340031448C4298BF091B416070BC704742F023
:1025440008020261F4E7C668013C2340B3424568CF
:10255400036002D142F0080202614B1904EA03014C
:10256400416070BC704700BF30B40569046A15F05F
:10257400010F02EB010318D1A34228BF1B1B0468FF
:102584009C4217D09300C46943F0020344F82130FD
:102594000369416813F0010F0A44036A10D19A4297
:1025A40028BFD21A426030BC7047013C2340046803
:1025B4009C42E7D125F008050561016030BC7047F5
:1025C400013B1A40EEE700BF2DE9F84FD0F80C802C
:1025D400C7691E4617F82830044603F00303022B8C
:1025E4008946154607EB880A2BD000231360336015
:1025F4002369990722D5A3695046984717F82830CC
:102604008346DA071AD59B0741D5B9F1000F36D1B5
:10261400D4E9022521696368CE07206A5B4426D485
:10262400834263D31B1AAA42636062D041F008015B
:10263400C4E9032122600120BDE8F88F0020BDE831
:10264400F88F002257F828302A609B083260CFD0D8
:10265400D0E903120B44016AD00715D48B4228BF7A
:102664005B1A22F008022261A360E360E3E7013809
:102674000340AA426360D9D15A4402403DE049462E
:102684002046FFF73FFFC3E701390B40E9E7E36862
:1026940022690344D007216A34D48B4228BF5B1AD1
:1026A40022F008022261A360E360B9F1000F04D0B4
:1026B40000212268E36943F822100BEB090333601D
:1026C4002268216A13442269D00718D48B4228BF98
:1026D4005B1A42F008022360226117F828306FF376
:1026E400000307F82830C5F800A0A4E7AA426360F5
:1026F4009CD15A44824228BF121AA26096E701393B
:102704000B40E6E701390B40CAE700BF00234361F1
:102714008361036043608360C3600361CA6882614C
:102724008A6842610A68C2614A68C0E908230B6981
:1027340022B1511E114208BF43F00103036101227B
:102744000021283009F05EBC2DE9F04F00259446A5
:10275400026A85B08A42CDE902552FD304460F465A
:10276400AA464FF02009A846CDE900C3EFF311862D
:1027740089F31288BFF36F8F039A002A41D123692A
:102784001B071FD4E1682368994241D8216AC91AFA
:102794008F421AD92046FFF7B5FE4FF0010B86F39E
:1027A4001188BFF36F8F029929B162690AB120467B
:1027B4009047CDF80880BBF1000FD7D1284605B06B
:1027C400BDE8F08F002F3CD12368E56915F823207C
:1027D40022F0030205F82320226905EB8305236810
:1027E400D007216A3B4429D48B4228BF5B1AE16895
:1027F4002360994202D142F0080222614FF0000B9B
:10280400CDE751462046FFF7AFFECDF80C80B6E782
:10281400A1EB030B5F45D8D9DDE90032134303D0A4
:1028240009F060FC00B97EB15946204603AB02AA08
:10283400D4F800A0FFF7C8FE8346B0E701390B4087
:10284400D5E74FF0000BE7E786F31188BFF36F8FEE
:1028540004F12800DDE9002309F01CFCEFF31186E4
:10286400202383F31288BFF36F8FB0FA80FB4FEA03
:102874005B1B94E738B50446836908460D469847C0
:10288400EFF31181202383F31288BFF36F8F2B782A
:1028940043F001032B7022696368D5071844236A47
:1028A4001DD4984228BFC01A6060500710D5120783
:1028B400656A12D4E068226890429CBFC01800F197
:1028C400FF30821A013B9B1AAB4238BF2B4663622E
:1028D40081F31188BFF36F8F38BD0022F2E75D1ECC
:1028E4002840E1E72DE9F04120260446EFF3118565
:1028F40086F31288BFF36F8F2169A36808072DD46C
:10290400626893422AD8D21AE76962B317F823207F
:102914004FEA830C12F0030007EB830823D002284C
:1029240043D0D10728D4A36940469847A3682169B6
:10293400E26803441044CA07276A3BD49F4298BF05
:10294400DB1B874298BFC01B21F00801C4E9023099
:10295400216185F31188BFF36F8FC7E7226AE769A6
:10296400D21A002AD2D185F31188BFF36F8F4FF0AA
:1029740000084046BDE8F08142F0020207F80C204E
:10298400A3694046A66898472369304413F0010FB1
:10299400236A13D1984228BFC01AA06085F3118816
:1029A400BFF36F8F4046BDE8F08157F80C008008F4
:1029B400BED1B6E7013F3B403840C5E7013B184074
:1029C400EBE700BF38B50446836908460D469847CF
:1029D400EFF31181202383F31288BFF36F8F2B78D9
:1029E4006FF300032B7023699B070AD5E268E36940
:1029F40003EB82039D4204D02B6860F39F032B609A
:102A040013E02B786FF341032B70D4E90223934234
:102A140015D022691844D507236A21D4984228BFC7
:102A2400C01A22F00802C4E9030281F31188BFF33B
:102A34006F8F04F12800BDE8384009F0F1BA22692B
:102A44001844D507236A05D498422ABFC51AA06042
:102A5400A560E3E7013B03EA0005A5601840E0E751
:102A6400013BFBE7EFF31182202383F31288BFF3CA
:102A74006F8F036913F0080F836804D141688B4298
:102A840001D8C81A01E0006AC01A82F31188BFF3A2
:102A94006F8F003818BF0120704700BF044608B587
:102AA400EFF31183202383F31288BFF36F8F04F0B5
:102AB4004DFE204602F036FC0248FFF7FFFC01F011
:102AC400F9FFFCE75CE500002DE9F84FB0F818C009
:102AD40081461CF0080F40F010810CF007004FF005
:102AE40020080346022980B211D0D9F81450002DD1
:102AF400C0F2EC80411F0129064640F2C48004283C
:102B040000F027818342144651D0002716E00028A4
:102B14007BD1D9F8001000297CD02CF0070CD9F80F
:102B240010104CF0060C1FFA8CFC062B0F68144690
:102B3400A9F818C000F0858005460626D9F80830A3
:102B44004FF0000B002B7CD04CF0080CA9F818C0F7
:102B540082F31188BFF36F8FD9F8081089B10C681C
:102B64002B4632464846D1F804A0D0474CB1214602
:102B740024682B4632464846D1F804A0D047002C9E
:102B8400F5D1BBF1000F24D117B148467E49B847AF
:102B9400EFF3118488F31288BFF36F8F2246B9F8DC
:102BA40018C02CF0080C1FFA8CFCA9F818C01CF0F3
:102BB400100F21D001212CF0100C1FFA8CFC0CF00A
:102BC40007000346A9F818C08CE7D346BBF1000FF1
:102BD400DAD05846294650F804AB00F07DF9044693
:102BE4000028F2D05946D3462B4632464846A047E1
:102BF400BBF1000FEDD1C7E71CF0200F0BD02CF078
:102C0400200C02211FFA8CFCD9E7022824D1B9F840
:102C14001A5035B1144684F31188BFF36F8FBDE8A1
:102C2400F88F2CF0070CD9F810104CF0040C1FFA94
:102C34008CFC042B4F681446A9F818C001D0042654
:102C44007CE7002FB3D04CF0080CA9F818C082F32D
:102C54001188BFF36F8F98E70128DBD1D9F80010F2
:102C64000029D7D02CF0070CD9F810104CF0050C23
:102C74001FFA8CFC052B8F681446A9F818C0E0D005
:102C8400052600255AE700262CF0070C0628D9F85B
:102C940000B01FFA8CFCC9F80460C9F800603BD08E
:102CA400B3421446A9F818C021D1BBF1000F3FF478
:102CB4007EAF4CF0080CA9F818C082F31188BFF35A
:102CC4006F8F0027BBF1000F83D15DE70021012640
:102CD4002CF0070C4CF0010CD9F800B0A9F818C07E
:102CE400C9F80010C9F80410B3421446DDD0D9F86D
:102CF4000830002BD9D0002726E701290CBF4CF05F
:102D0400100C4CF0200C1446A0F818C084F3118861
:102D1400BFF36F8FBDE8F88FBBF1000F09D05846A1
:102D2400B9F81A10013189B2A9F81A1000680028FC
:102D3400F8D1B9F81A004CF00201A9F8181010B132
:102D44008C460226D0E74CF0220C0226A9F818C0C3
:102D5400CAE72CF0070CD9F800601FFA8CFCA9F81C
:102D640018C056B14CF0200C1446A9F818C0002B1A
:102D74003FF41DAF00263746E0E61446002B3FF42F
:102D840016AF3746DAE600BF912D000010B40C46AA
:102D9400EFF31182202181F31288BFF36F8F012199
:102DA400446110BCFFF790BE034670B169B10A6874
:102DB4005AB14A684AB1002201611046C3E90022AF
:102DC400C3E90222C3E9052270476FF0150070477A
:102DD400002869D0F8B50E46002962D00F1D0546BB
:102DE400384600F065F800281BD1B368032B58D887
:102DF400EFF31182202383F31288BFF36F8F4FF612
:102E0400FF716B8B288B8B4200F0070432D0022CAD
:102E14001DD0062C3ED8DFE804F0063D3D3D0613E8
:102E24000600E5DAF8BD002333606B684BB31E601F
:102E34006E604CBB28460221FFF746FE2046F8BDD3
:102E440082F31188BFF36F8F6FF08500F8BD0133F3
:102E54006B8382F31188BFF36F8F0021384600F033
:102E64003BF8074620B10023224631462846B8479E
:102E74000220F8BD82F31188BFF36F8F6FF00A0050
:102E8400F8BD2E606E60D4E7204682F31188BFF34C
:102E94006F8FF8BD82F31188BFF36F8F6FF004005A
:102EA400F8BD6FF01500F8BD6FF01500704700BF56
:102EB400034630B1426802F00302012A07D0032A14
:102EC40002D06FF0150070470268002AF9D0002282
:102ED40010469A60704700BF4268034602F003023E
:102EE400032A816014BF0020006800225A607047E2
:102EF400704700BF0020704704F006BC03785B07EE
:102F040001D50020704703684288C3F34A2000EBD0
:102F14001210173020F00700800870472DE9F04F99
:102F2400894683B03C4B0190D3E8EF5F6A1CC3E849
:102F3400E12F0029F8D1002D65D1DFF8E0A0384F4A
:102F4400BA4560D2013FA7EB0A073F092E464FF06E
:102F5400010B01370AF110040AE0404698470BFAC6
:102F640006F3B0B11D430136B74204F110041CD07E
:102F740014F8043CA4F11008002BF4D054F8103CCD
:102F8400DA681AB14046904754F8103C1B69002B8C
:102F9400E3D154F80C3C042240461968013600F091
:102FA400F7F9B74204F11004E2D1019B5BB355B3C6
:102FB4004FF001082F4695FAA5F3B3FA83F30AEB11
:102FC4000316317B08FA03F26FEA020B1C0125EAAF
:102FD400020581B15AF804301B6913B13046984791
:102FE40048B90AEB04035B6804223046196807EA0F
:102FF4000B0700F0CDF9002DDDD1B9F1000F05D19B
:103004000FB13D46D6E703B0BDE8F08F00214FF481
:10301400A47009F087FCF3E73447012090DF000037
:10302400A0DF0000002108B50846FFF777FF002065
:1030340008BD00BF084BD3E8EF1F0131C3E8E21F0E
:10304400002AF8D1054BD3E8EF1F0139C3E8E21F8A
:10305400002AF8D1704700BF2C47012030470120D7
:10306400014B53F8200070479CE50000002300B595
:1030740085B0CDE902011A4619461846CDE9003358
:1030840000F09EFA05B05DF804FB00BF002370B5A4
:103094000A480B4E0B490C4A0C4C0D4D06604FF47C
:1030A40000400B602B70136000F0ACFD2046094912
:1030B400FFF72CFB084B1C6070BD00BF10200020E4
:1030C400FD2E00002C47012030470120A0210020C4
:1030D4000A50052088E50000244701200121084604
:1030E400FFF71CBF002270B50B4BD3E8EF6FC3E8AA
:1030F400E12F0029F9D1094C094DAC420BD2636888
:103104005B792BB123685B6813B12046314698473D
:103114001034AC42F3D370BD2C47012090DF000083
:10312400A0DF000070B53048FFF7DCFBE0B10546D6
:103134002E4BD3E8EF1F0139C3E8E21F002AF8D170
:103144002B4C2C4EB4420AD263685B7923B12368BA
:10315400204629461B6898471034B442F4D3264BC2
:1031640029461868FFF72EFC244B1B68002B0DDC46
:10317400234CD4E9002512F57A7245F10005C4E91F
:1031840000251948BDE87040FFF76CBC09F006FF44
:1031940040F2E93C4FEA401E4E01BEEB000E46EA07
:1031A400D06666EB01064FEA8E0318184FEA8603D1
:1031B40043EA9E7341EB0301CB0043EA5073104C86
:1031C400C0F3103141EA4341D4E90025DB0B891AED
:1031D40063EB0503614573F10003CCD3FFF782FF72
:1031E400D4E90025C7E700BFA02100203047012013
:1031F40090DF0000A0DF0000244701202C470120BD
:103204002027002030B51F4B83B0D3E8EF2F511C8B
:10321400C3E8E01F0028F8D11B4B1B783BB91B4BBC
:103224001B6813B11AB3092A18D003B030BDEFF3E9
:103234001184202383F31288BFF36F8F144B1B7800
:103244002BB984F31188BFF36F8F03B030BDFFF740
:1032540069FF84F31188BFF36F8FF6E70D4809F017
:1032640067FF0D4803B0BDE8304008F0D9BE002424
:103274000025084822462B46CDE9004509F01EFFEB
:1032840003B030BD304701200A50052028470120F3
:1032940009500520282700208C22002070B50F4EED
:1032A400317801B170BD0E4D0E4C0120FFF736FE92
:1032B400AC4209D263685B791BB1236820469B68E2
:1032C40098471034AC42F5D3074C23781BB1FFF771
:1032D40029FF0028F9D10123337070BD0A5005205D
:1032E400A0DF000090DF0000095005200122014BFF
:1032F4001A70704709500520024B187800B97047BE
:10330400FFF710BF09500520094BD3E8EF1F013127
:10331400C3E8E21F002AF8D100B97047054BD3E88F
:10332400EF1F0139C3E8E21F002AF8D1704700BF3C
:103334002C47012030470120014600220023014888
:10334400FFF702BAA021002010B5074B04461B6802
:10335400984703462146A3600448FFF78BFABDE86B
:103364001040FFF74FBF00BF10200020A021002015
:1033740000207047044A054B9B1AB1EBD30F34BFAE
:1033840052F831000020704720DF000090DF000079
:103394004FF0010C094B00B5C31AD0F804E01B111F
:1033A40063448EF8043043689A7143681960436833
:1033B40083F805C05DF804EBFFF798BF90DF0000C9
:1033C40038B51446926863680D469B1A8B420AD33B
:1033D4000146206810442A460AF0FCFAA3682846ED
:1033E4002B44A36038BD6FF01B0038BD70B5054693
:1033F40006200C461646FFF79FFF68B10222A10182
:1034040001F4E07141F48051C0E9001546610261A4
:10341400BDE87040FFF798BFBDE87040FFF774BF88
:10342400F8B5054608200C4617461E46FFF784FFEC
:1034340070B10323A10101F4E07141F4C051C0E96A
:103444000015476186610361BDE8F840FFF77CBF62
:10345400BDE8F840FFF758BF2DE9F04105460820C4
:103464000C4690461F46069EFFF766FF78B104237C
:10347400A40104F4E07444F40054C0E90587C0E9ED
:103484000045C6610361BDE8F041FFF75DBFBDE8DB
:10349400F041FFF739BF00BF2DE9F04FC1F34A25D2
:1034A4008DB00C468246984604AF4FEA115B002D5E
:1034B40036D07D609146294600220425C7E90522BD
:1034C400FA61029507F10C0501950A254846009515
:1034D40007F11403FEF788FDB0F5006F05464FF0C1
:1034E40000023CD36C468AB0D9F804C004AB40F265
:1034F400FF7618464FF400752D49DE61C3E9051CBB
:103504002C491D8440F8101F4FF4125113460246F3
:103514002948FFF7C1FFA5462437BD46BDE8F08F13
:103524000BF1170020F007008008FFF705FF06469F
:10353400002838D0B8F1000F06D006F110005A4622
:10354400414628440AF046FA65F353243046C6E956
:10355400004AFFF7F9FE2437BD46BDE8F08F0BF1B2
:103564001700284420F007008008FFF7E5FE064610
:10357400C8B10022C7E9065206F110027A6104229A
:103584007968029207F10C0201920A2248460092DD
:1035940007F11403094AC5F30A05FEF725FDB8F13E
:1035A400000FCAD1D0E70020FFF7AEFED3E700BF7B
:1035B400BCE500000400000140DF0000C53300004A
:1035C4002DE9F04F87B0DDE9115B044616469846B5
:1035D400109FDDF84CA003950291BBF1000F4BD076
:1035E4005B462A4610210020CDF800A0CDF814A097
:1035F400FEF764FAB0F5006F814654D207F1170064
:10360400484420F007008008FFF796FE054668B39B
:103614005B4600F1100BC7F30B0C039ACDF800A026
:1036240049465846674604F0070406F00706C9F3FE
:103634000A0ACDF80CC0FEF741FAB8F1000F05D024
:103644004146039A0BEB09000AF0C4F92846E4004A
:1036540044EA8614029B44EA4A2444EA07546B6011
:103664002C6007B0BDE8F04FFFF76EBE002007B036
:10367400BDE8F04FFFF748BE00F0070407F117005C
:1036840020F00700800802F00706FFF755FEC7F395
:103694000B031F46054603930028E7D0D94605F1DE
:1036A400100BCA46C9E70820FFF746FE094A00285E
:1036B400DDD0032440F2FF7142614FF4C452064D41
:1036C400046145608161026007B0BDE8F04FFFF717
:1036D4003BBE00BFFCE5000040DF0000406820B1B5
:1036E400034BC01A40F3CF0070474FF0FF307047D0
:1036F40020DF00002DE9F8434B68CA681C680D46BA
:10370400944206460BD0D3E8EF2F511CC3E8E01FC8
:103714000028F8D1AB6800209E54BDE8F8830F68F8
:10372400D1F80890D3F804803CB14846214642467B
:10373400B847241A8144F8D16B6800221A606B6878
:10374400E1E700BF0A2838B504460D4605D02946EE
:103754002046FFF7CFFF002038BD0D20FFF7CAFF3A
:1037640029462046FFF7C6FF002038BD0EB400B539
:1037740082B003AB53F8042B01460448019301F0D3
:103784006FFC02B05DF804EB03B07047F93600003B
:103794002DE9F04F89B09DF84C5004461E46159F04
:1037A4000595002D40F0CC80012E149B1ED003B350
:1037B400AB48149B2246AB49FEF7B4FB169BDBB91E
:1037C400D4E900831D68A6685F6855B13B46474647
:1037D4009846304629464246B8472D1A0644F8D141
:1037E400636800221A6009B0BDE8F08F0BB19E48EF
:1037F400DFE7169B002BE3D04FF0000A179BDFF89E
:103804006C9203F010039A4E0493169D049B102DA2
:1038140028BF10253BB9179B9A0640F18C8020469F
:103824009449FFF7A3FFBAF1000FC8BF4FF0000897
:1038340007DD3146204608F10108FFF797FFD04520
:10384400F7D120468C493A78FFF790FF4FF0010BEF
:10385400DFF828820AE05D4511D8414620460BF185
:10386400010BFFF783FFBBF1100F13D01BF0070F01
:10387400F1D131462046FFF779FF5D45EDD917F8C0
:103884000B2020467C490BF1010BFFF76FFFBBF1C6
:10389400100FEBD120467A49FFF768FF4FF0000B79
:1038A4003A46DFF8E0811278414619F802302046A2
:1038B40013F0970F08BF2E220BF1010BFFF756FFF1
:1038C400BBF1100F0DD01BF0070F2BD05D452FD887
:1038D400314620460BF1010BFFF748FFBBF1100FF7
:1038E400F1D1169B2F445B1B16938ED1059B002BA5
:1038F4003FF466AF179B03F0010ABAF1000F04D03E
:103904002046614A6149FFF731FF049B002B7FF495
:1039140057AF179B20469B064CBF56495C49FFF79F
:1039240025FF4DE731462046FFF720FF5D45CFD9FF
:1039340007EB0B02B7E720465549FFF717FF72E77D
:1039440090468946FFF714FD179B024603F00205D3
:1039540003F0010A03F008030493179B03F4807334
:103964000693002837D020464A49FFF7FFFE8346D6
:10397400002D33D1BAF1000F0BD0474B059A2046E6
:1039840053F82220404B4149002A08BF1A46FFF74A
:10399400EDFE069B002B00F08D80049B002B40F075
:1039A400A080B8F1000F05D0424620463B49FFF7FE
:1039B400DDFE8344149B2BB12246149B29492A48DB
:1039C400FEF7B0FA169B002B40F09680179B03F08D
:1039D4001003049391E78346002DCBD0179B13F07B
:1039E400440F00F08B802E4BD3F800E0BEF1000FA3
:1039F400C0D02C4B2C4A1B682046B9FBF3F3B3FB15
:103A0400FEFCA2FB0C524FF47A750EFB1C3305FB33
:103A140003F54FF461630795B5FBFEF54FEAD22930
:103A240003FB19C9214B0195A3FB09C35B09C3EB34
:103A3400031CA9EB8C0CCDF800C0DDF81CC01C499C
:103A44000EFB15CC4FF47A7505FB0CFCBCFBFEFC9D
:103A5400D20ACDF808C0FFF789FE83448AE700BF85
:103A64004937000065500000F93600008DF700006A
:103A740070E60000F4E700007CE6000084E6000045
:103A840088E600008CE6000034E6000050F40000F4
:103A940068F700003CE60000D8E6000068E6000095
:103AA4003C47012038470120C5B3A2918988888802
:103AB4004CE60000049BABB9DDF81090B8F1000FA0
:103AC40005D0424620461249FFF750FE8144E6B134
:103AD400324620460F49FFF749FE00EB09039B4499
:103AE40068E700260C4B059A204653F822200B4920
:103AF400FFF73CFE8146E1E7DA467FE64A46204688
:103B04000749FFF733FE834434E7CB4452E700BF51
:103B140068E6000074E60000ECE600006CE60000D5
:103B240040E600002DE9F0430546087887B0C0F36D
:103B3400C20908460E880C468F689046FFF7CEFDF2
:103B4400011EC6F382161ADA0023002239462846DB
:103B5400678854F8105BC7F30B17C5F34A2C9445D8
:103B640004EB0C0508BF1446CDE9047801960395CF
:103B740000920294FFF70CFE07B0BDE8F0834846BC
:103B8400FFF7F8FB0346E0E72DE9F04342F20F7339
:103B94000C460746A34283B028BF23460521684646
:103BA400154A3D6809F090FC0B2604467B68DFF853
:103BB4004C80D3F80490404631464A46A847361A0A
:103BC4008044F8D17B685E684CB1E84640462146A3
:103BD4003246A847241A8044F8D17B685E681B24C7
:103BE400074F384621463246A847241A0744F8D1DD
:103BF40003B0BDE8F08300BF0CEA0000ACE60000AF
:103C040090E600000A4A904288BF012309D940087F
:103C140090424FEA4303FAD8064A1360064B1860F1
:103C240070470122034B1A60034B1860704700BFB2
:103C340040420F00384701203C4701202DE9F04164
:103C4400884659B1074E4518B768441E013D14F81B
:103C5400011F30467B689847AC42F8D14046BDE826
:103C6400F08100BF14DC000003465B6800201B6881
:103C74005B681961704700BF43681B681A68526823
:103C84005360704701212DE9F04143681B685A686D
:103C94001175D3F80080D8E900731C68D8F808506F
:103CA4005E6844B1284621463246B847241A054482
:103CB400F8D1D8F8043000221A60BDE8F08100BFC2
:103CC40043681B681868FFF75FBF00BF70B543689F
:103CD4000C461D686B681869FFF7C2F92146034654
:103CE4000F222868BDE87040184700BF0346024A07
:103CF40000201A60704700BF54E7000070B5114BF4
:103D04001C68DCB1104B1D68002D11DD0E4600232C
:103D140003E09D4204F114040AD022780133824264
:103D2400F7D1E06807F0E2FD28B13460002070BDEF
:103D34006FF0010070BD6FF0120070BD6FF00C00E9
:103D440070BD00BF1C200020F8E70000704700BFD2
:103D5400002915DB8446184610B4DCF808400844F2
:103D6400A04209D8DCF80440DCF80C002144846843
:103D74002468A44610BC60476FF0150010BC70475F
:103D84006FF01500704700BF002915DB8446184604
:103D940010B4DCF808400844A04209D8DCF8044018
:103DA400DCF80C00214484686468A44610BC6047B5
:103DB4006FF0150010BC70476FF01500704700BF1E
:103DC400002913460BDBD0F808C00B44634506D822
:103DD4004368C068194483689B681BB118476FF037
:103DE400150070476FF05700704700BF08B5C068F2
:103DF4008368DB689847006808BD00BF08B5C068E1
:103E04008368DB689847407908BD00BF03684A6847
:103E140093421ED330B48C681444A34216D2D1E921
:103E24000345D1F814C065450DD29B1A44F83530CA
:103E34000A69436804EBC20463600B69012030BC67
:103E440001330B6170476FF00B038B61002030BCB2
:103E540070470120704700BF30B589B00C46C0B22E
:103E640069461546FFF74AFF00281BDB009BCBB1D0
:103E7400002059682268029199680692CDE90315D9
:103E8400059007900949D86801AA01F025FD079D0E
:103E94002DB10098FFF75AFF284609B030BD059BA5
:103EA4002360F6E76FF01505F6E700BF113E00004A
:103EB40008B50548FEF702FB0448FEF7FFFABDE823
:103EC40008400348FEF7FABA5CE7000094E70000F4
:103ED400C8E70000002008B5FEF7E0FD014809F03E
:103EE400B1B900BFD8E8000030B308B54368B3F5F2
:103EF400683F14D0B3F5680F07D0124A93421ED01E
:103F0400006808F025F8002008BD002103680E4A67
:103F14001B7803F5807342F82310002008BD0022AB
:103F24000368D3E8EF1F012903D1C3E8E02F002879
:103F3400F7D1F2D0054808BD6FF4E040704704485B
:103F440008BD00BF2C5F5CA900000350E98FFFFF90
:103F5400EA8FFFFF58B308B54368B3F5683F1AD03A
:103F6400B3F5680F0CD0144A934223D000684FF085
:103F7400FF324FF0FF3307F06DFF50B10F4808BD1B
:103F840003680F4A1B7803F5807352F82330002B23
:103F9400F4D1002008BD01220368D3E8EF1F0029F3
:103FA40003D1C3E8E02F0028F7D1F2D0E6E76FF49D
:103FB400E0407047034808BD2C5F5CA9E98FFFFF10
:103FC40000000350EA8FFFFF10B50446A8B16368F0
:103FD400B3F5683F10D0B3F5680F0DD00C4A934287
:103FE4000AD013F4686321680CD00A4807F0E2FE93
:103FF40000232360064B636010BD074B07485B68D2
:104004009847E4E70B604B608B60CB600B61F1E792
:104014002C5F5CA9684C012030210020E0E80000FE
:1040240010B5044600283AD06368B3F5683F2CD035
:10403400B3F5680F29D01E4A934227D0B3F5683FE1
:1040440028D83A2B29D040F6BA62934225D04FF0B3
:10405400FF324FF0FF332146164807F075FE18B3C0
:10406400154B16485B689847236800224FF4686133
:104074001A605A609A60DA601A612068616007F019
:10408400E1FE636843F03A03636010BD20680028D2
:10409400F5D1DCE70A4A9342D9D12068EFE7064B11
:1040A40008485B689847BFE72368002BDDD1D7E752
:1040B4002C5F5CA9684C01203021002008E9000035
:1040C4003A00003AE0E8000008B50649402314220B
:1040D400054807F00DFEBDE808400449044809F00E
:1040E40023B900BF68470120684C012038E900006B
:1040F4004CE900002DE9F04780460C4600AF00294A
:1041040036D0D1E90012E9468AB06D46A3684FF073
:10411400050A2E462B62234BC5E906126B6146F84D
:1041240010AF002332464FF421511F48FFF7B4F972
:10413400D4E90312CD466369AD462B621B4BC5E936
:104144000612C5F810A06B61002332464FF42151CA
:104154001548FFF7A1F9CD46E3690121144A124835
:10416400FFF75EF9A3690121124A0F48FFF758F9D6
:10417400B8F1010F06D02146404607F0DBFBBD46EF
:10418400BDE8F087EFF305830B4A4146103B064830
:10419400FFF746F92146404607F0CCFBBD46BDE893
:1041A400F08700BF5CE9000068DF00008CE90000D4
:1041B400BCE90000CCE90000FCE90000014600680D
:1041C400FFF798BF08B500F005F8BDE8084000F017
:1041D40025B800BF30BFFFF7FDBF00BF2DE9F04198
:1041E4000C4605460A4EDFF82C80324606EB0807DB
:1041F400E41B2046084909F0EDFBA01942460021C2
:10420400083C09F00EFC2C6707F10800BDE8F081BA
:104214000000000004000000A0DF0000074A9368CB
:1042240093F90E10002907DB5269934204D0044A23
:10423400536843F080535360704700BFFC4D052022
:1042440000ED00E008B536480121364AFFF7CEF804
:10425400354B9B6A980120D4334B1D209B6AD901AE
:1042640025D4314B9B6ADA022BD42F4B9B6A1B0358
:1042740031D42D4B9B6A590337D42B4B9B6A9A0339
:104284003DD4294B9B6ADB0343D4274A936A6FEAE4
:1042940003436FEA1343936208BD01212048234A74
:1042A400FFF7A4F8204B1E209B6AD901D9D5204AD8
:1042B4001B480121FFF79AF81B4B1F209B6ADA0267
:1042C400D3D5174801211B4AFFF790F8164B02205B
:1042D4009B6A1B03CDD501211148174AFFF786F8C5
:1042E400114B21209B6A5903C7D5144A0C4801215C
:1042F400FFF77CF80C4B22209B6A9A03C1D508482F
:1043040001210F4AFFF772F8074B23209B6ADB0356
:10431400BBD5034801210B4AFFF768F82420B4E712
:1043240068DF000010EA000000ED00E028EA000069
:104334003CEA000058EA000084EA0000A4EA000015
:10434400CCEA0000E8EA000070B505460C460121FD
:104354002F4A3048FFF74AF82F4B9B6ADE0443D4B8
:1043640016232D4A926A100537D42B4EB26A910552
:1043740028D4294A926A50051DD4274A916AC9054E
:1043840012D4926A920408D418460021224A936AED
:1043940043F47F439362217070BD1E4801211F4A7C
:1043A400FFF724F81C20F0E71A4801211C4AFFF704
:1043B4001DF81B20E9E701211A4A1648FFF716F8F1
:1043C4001A23DAE7184A01211248FFF70FF8B36BF2
:1043D400B26A12040FD41923CBE70121134A0D4802
:1043E400FFF704F81823C0E70121114A0948FEF732
:1043F400FDFF1723B5E701210E4A0648FFF710F821
:10440400002DE8D0B36A23F40043B362E3E700BFAE
:1044140014EB000068DF000000ED00E0BCEB0000DE
:10442400A4EB000088EB000054EB000040EB00001C
:104434002CEB000070EB000070B505460C46012122
:10444400344A3548FEF7D2FF344B9B6ADB0625D449
:10445400324B10209B6A1E072AD4304EB36A990748
:1044640030D42E4B9B6ADE0737D42C4B9B6A9D06B7
:104474003DD42A4B9A6AD10658BF9B6A274B9A6A45
:10448400920603D55A6A22F400525A620021234A42
:10449400936A43F0FF039362217070BD1E480121AB
:1044A4001F4AFEF7A3FF1D4B11209B6A1E07D4D59C
:1044B4001A4E012118481B4AFEF798FFB36A1220CE
:1044C4009907CED5184A01211348FEF78FFF736B65
:1044D400B26A120612D41320C3E70F480121134A0B
:1044E400FEF784FF0D4B14209B6A9D06C1D50A4834
:1044F40001210F4AFEF77AFF1520BAE701210D4A80
:104504000548FEF78DFF002DE5D0B36A23F0800344
:10451400B362E0E7ECEB000068DF000000ED00E0D0
:1045240004EC000040EB000038EC000068EC0000F4
:10453400BCEB000050EC00002DE9F0418AB07C4B4C
:104544000025D3F8048000AFC8F3080685F311886A
:10455400BFF36F8F02F07F43B3F17F4F40F097803A
:1045640002F00C03082B00F08D8012074EBF0C469E
:10457400044601250022F31EFA71092B06D8DFE850
:1045840003F02359656B05050505056F694B18F4A0
:10459400F87FE8468AB0684A18BF1A466B464FF45B
:1045A40000719A611A466548103EDE6158611984AB
:1045B400634B42F8103F00234FF411516148FEF75A
:1045C4006BFFC54600263AE001215F4A5D48FEF7CD
:1045D4000DFF0023DFF85881FB71D8F82C309B07BE
:1045E4004AD4D8F82C30002B54DBD8F82C6016F0C1
:1045F400804655D120686168A268E36807F1080C19
:10460400ACE80F00E36920696169A269ACE80F00B6
:104614007B6A5DB3C3F3080240F2FF110AB90B438E
:104624007B6207F108013046FFF764FD2837BD4679
:10463400BDE8F0810020F91DFFF7FEFE0646FB7978
:10464400002BD7D02837BD46BDE8F0810020F91DE6
:10465400FFF77AFE0646F2E7FFF7F4FD0646C9E7E0
:1046640001213A4A3748FEF7C1FEABE723F4FF7352
:1046740023F001037B62D4E70121354A3148FEF778
:10468400B5FE9FE70121334A2E48FEF7AFFE002511
:104694002C466FE70121304A2A48FEF7A7FE91E72E
:1046A40001212E4A2748FEF7A1FED8F81430A2694A
:1046B40043F48073C8F81430BFF34F8FBFF36F8F88
:1046C400D8F8143032F8022C23F48073C8F814306C
:1046D400BFF34F8FBFF36F8F4DF602739A4212D020
:1046E400D8F82830DBB2B3B9D8F8283013F47F4FA8
:1046F40017D1D8F82830B3F5803FFFF463AFFFF744
:10470400A1FD06469BE723680121154A0D48FEF7E3
:1047140087FE266893E70120F91DFFF78DFE064604
:104724008DE70120F91DFFF70FFE064687E700BF5E
:1047340000ED00E0A0EC000088EC000094ED000027
:104744000400000168DF0000E8EC000070ED0000E8
:1047540000ED0000BCEC000024ED000034ED00008E
:1047640054ED0000064B5A6942F010025A615A692E
:1047740042F480625A615A6922F008025A61704711
:1047840000ED00E0EFF30880EFF3098101B5724614
:10479400FFF7D2FE01BD00BF002080F31488BFF3F1
:1047A4006F8F002080F30A8880F30B880F4880F312
:1047B400088805F0DDFB00200D490860BFF34F8F2A
:1047C40000F02EF8202080F311880A484FF480511D
:1047D400401880F30988EFF314800221084380F322
:1047E4001488BFF36F8F00F0F9F80000588C05208F
:1047F40094ED00E018530520084AD2F8903013F4E1
:104804007F4FC3F3072108D000231846C2F898301D
:1048140001339942C2F8A000F8D1704700ED00E0DE
:1048240072B6002383F31388154AD2F8900010F46B
:104834007F4FC0F3072107D01846C2F898300133E0
:104844009942C2F8A000F8D100234FF0FF300D497F
:1048540003F120020133102B41F82200F8D1002388
:104864004FF0FF30074903F160020133102B41F888
:104874002200F8D162B6BFF34F8FBFF36F8F70473A
:1048840000ED00E000E100E00A4B9B68834201D0A8
:1048940008F08EB8EFF30583002BF9D0064B5A6865
:1048A40042F080525A605A6A22F400425A6208F076
:1048B4007FB800BFFC4D052000ED00E016498A6872
:1048C4004FF030001044EFF3098C80E8F01F2020F3
:1048D40080F31288BFF36F8F104F4FF000664A6960
:1048E4008A603E604FF07004141920680C4C2060FC
:1048F400506F0023536780F3118802F1300090E871
:10490400F01F8CF3098802F1000004B500F0A0F850
:10491400BDE8044070470000FC4D052004ED00E0B4
:10492400844C01201EF0040F0CBFEFF30880EFF35A
:104934000980816911F8021C0229FFD001B5724671
:10494400FFF73CFC01BD00BF40B2002807DB012398
:1049540000F01F01024A40098B4042F820307047A2
:1049640000E100E040B200280CDB012206494309C3
:1049740000F01F002033824041F82320BFF34F8F03
:10498400BFF36F8F704700BF00E100E00123054AC9
:10499400410952F8212000F01F0003FA00F01040F2
:1049A400704700BF00E100E0013140B24901002836
:1049B400C9B206DB00F1604000F5614080F80013E5
:1049C4007047034B00F00F0003441976704700BF93
:1049D400FCEC00E000210120FFF78CBB0B4A08B57A
:1049E4000B4B22F07F029A60BFF34F8FBFF36F8FA0
:1049F400D3F8882022F47002C3F8882007F0ACF8BA
:104A040008F008F900F08CF807F0B2F80000000094
:104A140000ED00E030B44FF08075002442F8203CF3
:104A2400029B0A4942F81C3C039B21F0010142F815
:104A3400183C049B42F8045C42F8143CA2F12003A5
:104A440042F8081C4467036530BC7047DD2400004D
:104A5400036E83F30B88704700B515460A4B0B4C65
:104A6400026F98600E46036E226083F30B882C4617
:104A740086F309880020064B98472046002100222F
:104A84000023044C204700BFFC4D0520844C01202A
:104A94009D4A0000DD24000061B662B680F31188EF
:104AA400BFF36F8F704700BF1022014B1A6170472C
:104AB40000ED00E008B572B6002383F31188BFF35C
:104AC4006F8F00F08DFB50B1BFF34F8F30BF00BF2D
:104AD40000BF00BF00BF00BF00BF00BF00BF62B681
:104AE400BFF36F8F08BD00BF10B5044672B6002334
:104AF40083F31188BFF36F8F00F072FB50B1BFF3E3
:104B04004F8F20BF00BF00BF00BF00BF00BF00BF6A
:104B140000BF00BF84F31188BFF36F8F62B610BD6E
:104B2400002320200349CA180133452B82F80003CF
:104B3400F9D1704700E100E008B5EFF30583064AB8
:104B4400103B02EBC30152F8330049688847BDE8C3
:104B54000840FFF763BB00BF64DC000040E800F3DB
:104B640013F4803FD8B208BF6FF01500704700BF40
:104B740010B50A4C84B0234601210948094A00F0C3
:104B84003FF90022084B0121E41A01A8CDE90134C0
:104B9400039200F03FF904B010BD00BF00000720ED
:104BA400A8ED000000200020A022002010B5154C24
:104BB400D4F89030C3F30723013B984218D891F8F6
:104BC40008C0CB680A6823F01F034FEA5C1143EA6C
:104BD40041030CF01F0C22F01F0242EA0C0243F0C6
:104BE4000103C4F89800C4F89C20C4F8A03010BD98
:104BF40001210346044A0548FEF712FC6FF0150034
:104C040010BD00BF00ED00E0B8ED000060DF000063
:104C1400034610B5164C0868D4F8902020F01F0EF7
:104C2400C2F3072C0A890CF1FF3C02F01F004A680A
:104C3400634502F1FF324989724411D801F007013A
:104C440022F01F0242EA410242F0010240EA0E0150
:104C5400C4F89830C4F89C10C4F8A020184610BDBD
:104C64000121044A0448FEF7DBFB6FF0150010BD78
:104C740000ED00E0B8ED000060DF00002DE9F04F2A
:104C8400164685B099B104468946002700F1040808
:104C94006568002D7BD01F2D01D9EB060BD00121B7
:104CA4003B46534A5348FEF7BBFB6FF015063046AC
:104CB40005B0BDE8F08F58F804AC1AF01F0FEED120
:104CC4005046FFF74BFF03465544681E1D46FFF749
:104CD40045FF85427FD115F1160F2B467DD0B54295
:104CE4007BDA454BC3F89850D3F89C00C3F898502E
:104CF40058F8041C6268D3F8A0B020F01F000A44DE
:104D040088424BF01F0B02F1FF3A4FD0C3F8985082
:104D1400D3F8A020013921F01F0102F01F020A4339
:104D2400D3452146F0B2C3F8A02039D0FFF770FF75
:104D340010F1160FB9D0304B0BF1FF3BC3F898506C
:104D4400D3F89C109DF80820013061F304028DF81B
:104D54000820D3F8A010626858F8043C49081344AA
:104D6400009323F01F035B44A3EB0A0323F01F0308
:104D740003939DF80830C0B261F3471369468DF878
:104D84000830FFF713FF10F1160F8ED0461C0137C1
:104D94004F4504F10C0408F10C087FF479AF86E761
:104DA400FFF736FF10F1160FF0D17EE7D3451AD086
:104DB400C3F89850D3F89C1022F01F0201F01F0191
:104DC4000A43F0B22146C3F89C20FFF721FF10F1FB
:104DD400160FDBD169E76FF015030121074A054877
:104DE400FEF71EFB61E72146E8B2FFF711FFCEE7AD
:104DF400E0ED000060DF000000ED00E004EE0000E4
:104E040010B5034C2278FFF739FF207010BD00BFA6
:104E14000B50052000294ED02DE9F84F8B4606464D
:104E24004FF00008244CDFF894A02BE015F1160F86
:104E340044F8045C3DD0224B1B78AB4239DDCAF800
:104E44009850CAF89850DAF89C20237A62F3040345
:104E54002372DAF8A030227A5B0863F347122272D5
:104E6400DAF89C3023F01F032360DAF8A03023F033
:104E74001F03E36008F10108D84506F10C0604F1AC
:104E8400140416DA7768002FF4D0D6F80090484658
:104E9400FFF764FE054607EB09000138FFF75EFEE5
:104EA4008542C3D06FF01502064B08EB880843F81F
:104EB4002820BDE8F88F70478C4C012000ED00E0FD
:104EC4000B500520884C01202DE9F0435C4D5D4AD0
:104ED400D5F890301768C3F307239F4287B000F2D8
:104EE400AB80BFF35F8F0024574BC5F89440C5F8DF
:104EF400C030002F00F09C805168087ACB680A68A3
:104F0400460923F01F03C5F8984022F01F0200F061
:104F14001F0043EA46030134024343F00103BC4249
:104F2400C5F89C2001F11001C5F8A030E5D1E3B229
:104F3400464F01A83B70FEF7D9FE0446002879D0FD
:104F440000263878424D05E0B3F5801F5ED0013667
:104F5400B4422ED0DDF804C04FEA06180CEB061953
:104F6400D9F80C302B40B3F5001F41D0B3F5800FB6
:104F7400EAD1D9E9012302214FF0000E5CF808C000
:104F8400013B22F01F08434423F01F0341EA4E1E55
:104F940002A9CDE9022C8DF810E00593FFF706FE77
:104FA400002840DB387801360130C0B2B442387092
:104FB400D0D1234AD2F89030C3F3072398420BDAB6
:104FC4000021C2F89800C2F8A010D2F89030013045
:104FD400C3F307239842F4DB0522194BC3F894204A
:104FE400BFF34F8FBFF36F8F002007B0BDE8F0838E
:104FF400D9E9012322F01F01013B0B444FF0020EBB
:1050040001215CF808C023F01F03BFE70121D9E99F
:10501400012322F01F0E013B73445CF808C08E4646
:1050240023F01F03B2E76FF0150007B0BDE8F0836B
:105034003B467DE73878BCE74FF0FF30D5E700BF4B
:1050440000ED00E028EE0000AAFF44000B5005200C
:105054000000F0FF08B5D1E904319847002008BDED
:10506400944610B50C461A46614600234FF0020CD4
:1050740086B00594064C04906846CDE90034CDE929
:1050840002338DF802C008F04BFA06B010BD00BF21
:105094005950000008B5024B1B689847002008BD12
:1050A4009C4C0120034A04499378086043F00203AE
:1050B40093707047402000209C4C012008B506499D
:1050C400064821F00701C1F1005202F5E022FCF785
:1050D40087FC002008BD00BF5FAC0520A04C012068
:1050E40000B583B00DF1070005F0F4F8114B9842B8
:1050F4001CD14FF400624FF480600F4B0F49C3F88A
:10510400B805C3F83C259DF8070005F0D5F80C490F
:105114009DF8070005F0CAF801209DF80730984073
:1051240005F0BEF8002003B05DF804FB6FF00B003F
:10513400F9E700BF0000AD0B00A002502CA0025004
:1051440028A1025070B402230125204A204E214890
:10515400C6F80055C2F8D036D0F800321E4923F004
:10516400E04343F04053C0F80032D0F804321B4C03
:1051740023F0E04343F04053C0F8043201F1040C3F
:10518400C2F80457C2F80459C2F8005B0B7803F064
:105194001F025B0910D1034603EB8203D3F80022FC
:1051A400013122F0E04242F080526145C3F800220E
:1051B400ECD170BC00207047012B01D12346EBE7F2
:1051C4000023803253F82230FFDE00BF004000503D
:1051D400001000500025845060EE00000028845028
:1051E400F8B51B4D1B4A2B781B4E0133A2FB03124F
:1051F40002F4FE7101EB92029C1A02F085FA174A3E
:10520400137823B156F82430C01A07281ED94FF05A
:105214005023D3F8141189B10021E7B2C3F8141153
:10522400D3F814312F7054B90123137002F06CFABF
:105234002746034646F827300120F8BD2F7802F0B0
:1052440063FA034646F827300120F8BD0020F8BD74
:105254000D500520CDCCCCCCAC4C01200C500520FD
:1052640058B1064B06491B68064AA1FB03139B0C65
:1052740003FB00F042F00102104770478820002031
:1052840083DE1B43A0DF000010B44FF05022012442
:10529400C2F814460B4610BC0021184701490248C5
:1052A400FDF782BD6CEE0000C04C01204FF47F037B
:1052B4002DE9F041D3F830210546072A0C46D3F8EE
:1052C40034310AD04FF050230022C3F81426284664
:1052D4002346BDE8F04100211847023B032B1AD9AD
:1052E4004FF050264FF001080027C6F81886052015
:1052F400C6F8147604F088FF4046C6F8148604F015
:1053040083FFC6F81476C6F8187628462346BDE807
:10531400F04100211847024AD35C002BD2D0DFE7CA
:1053240068EE0000BFF34F8F0549064BCA6802F4CC
:10533400E0621343CB60BFF34F8F00BFFDE700BFB4
:1053440000ED00E00400FA050369C9B201EB410174
:1053540003EB8103986F00F0070070471A4A70B599
:10536400831A1A4C9B1004FB03F306460D46DBB26A
:10537400EFF31180202181F31288BFF36F8F03EBC9
:10538400430302EB83018A6F12F080040AD080F396
:105394001188BFF36F8F4FF0FF3130462B46BDE8C5
:1053A4007040184701229B008A6780F31188BFF37D
:1053B4006F8F074A13445B689847214630462B4653
:1053C400BDE87040184700BFF04C0120B76DDBB654
:1053D400C8EE00000B460069DBB2C3EBC303002137
:1053E40000EB8300104700BF032005F027B800BF7F
:1053F400022005F023B800BF002005F01FB800BF4D
:1054040010B5EFF31184202383F31288BFF36F8F59
:10541400094A136823F00201DB07116004D584F301
:105424001188BFF36F8F10BD012005F077F884F366
:105434001188BFF36F8F10BD904D0120032005F03C
:105444006DB800BF022005F069B800BF002005F068
:1054540065B800BF104606F0E3BD00BF002201237B
:1054640000B585B0CDE90223CDF800D00369CDF8AD
:1054740004D0C9B2EFF3118C202282F31288BFF357
:105484006F8F01EB410103EB81039A6F02F0070E6A
:10549400BEF1010F0ED002F0C002802A8CF31188F5
:1054A400BFF36F8F0CBF6FF077004FF0FF3005B084
:1054B4005DF804FB802289009A678CF31188BFF39E
:1054C4006F8F084AC3F874D01A6743685B589847CB
:1054D4004FF480420023684606F0DCFD05B05DF819
:1054E40004FB00BF595400002DE9F04100220121C2
:1054F40006460520FFF758FA124804F075FF124BD0
:1055040098421CD104F082FF00244FF001080F4F91
:105514003569C4EBC40005EB80003946FDF744FC53
:1055240004EB4403002805EB830504F1010404DBC8
:10553400042CC5F87880EBD10020BDE8F0816FF031
:105544000400FAE7A55500000000AD0B78EE00005A
:1055540030B40024104B00EB400203EB8203D3E988
:105564001C5201461C67EFF31180202484F3128837
:10557400BFF36F8F9C6F04F0C00444F002049C6777
:1055840080F31188BFF36F8F1DB12B4630BC0348E5
:10559400184730BC704700BFF04C0120D8DB000036
:1055A40009280BD8DFE800F005110A0A0A0A0A0ADA
:1055B4000E0B074B986F10F0070007D070470220BE
:1055C400FFF7C6BF0320FFF7C3BF0120FFF7C0BF2B
:1055D400F04C012010B4EFF31180202181F31288E4
:1055E400BFF36F8F174A136843F002041460DA079D
:1055F40007D480F31188BFF36F8F012010BC04F02F
:105604001DBF4FF05023D3F80C24D3F80C34DB0720
:10561400EFD5EFF3118481F31288BFF36F8F0A4A39
:10562400936F03F0C00343F00203936784F311887C
:10563400BFF36F8F80F31188BFF36F8F002010BC0E
:10564400FFF786BF904D0120F04C012010B5C9B280
:105654000269EFF3118C202383F31288BFF36F8F59
:1056640001EB410102EB8102936F13F0400406D079
:105674008CF31188BFF36F8F4FF0FF3010BD0123FF
:10568400890093678CF31188BFF36F8F43680B44D1
:105694005B689847204610BD38B5C9B20469EFF37A
:1056A400118E202585F31288BFF36F8F01EB410122
:1056B40004EB810CDCF8784004F00705012D0CD0D4
:1056C40004F0C004802C8EF31188BFF36F8F0CBFDD
:1056D4006FF077004FF0FF3038BD80248900CCF89C
:1056E40078408EF31188BFF36F8FCCE91C23436895
:1056F4005B589847002038BD1C4A30B5831A1C4DAE
:105704009B1005FB03F30C46DBB2EFF3118C202155
:1057140081F31288BFF36F8F03EB430302EB830221
:10572400916F01F0070EBEF1010F0FD001F0C0011F
:1057340040298CF31188BFF36F8F2346BDE83040B6
:105744000CBF6FF077014FF0FF31184740219B00E9
:1057540091678CF31188BFF36F8F06480649106771
:105764005467CB58BDE83040184700BFF04C0120C7
:10577400B76DDBB6D9530000C8EE00002DE9F04147
:10578400012405463A4BD3E8EF2FC3E8E14F002943
:10579400F9D122B16B1E012B0BD9BDE8F08135493B
:1057A40035484A60CA608C60FDF712FB6B1E012B02
:1057B400F3D8012D07D14FF05023D3F81C3403F054
:1057C4000303022BE9D006F08DFC064690B3EFF3F9
:1057D4001187202383F31288BFF36F8F01264FF0C4
:1057E4005024DFF89880D4F81824D4F8183412F42C
:1057F400803F03F0030303D0022B26D0012D24D0D5
:1058040056B33846FFF770F9D4F81835DBB2012BDC
:10581400E9D1D4F80421002AE5D00022C4F80421F7
:10582400D4F804210222C4F818252022C8F88021C3
:10583400A360D8E7124B1B78002BC8D04FF050233D
:1058440002220746C3F80823C9E756B187F3118833
:10585400BFF36F8FBDE8F0810021212007F062F8CB
:10586400D2E74FF050230222C3F80423BDE8F081AD
:10587400EC4C0120DC4C01200C4D012000E100E047
:10588400105005200A2838B5044607D0074DAB68E8
:1058940006485B68E1B29847204638BD034D0D21A8
:1058A400AB6828465B689847F1E700BF14DC00004A
:1058B40008B5074806F01AF838B10648FFF7F2FBB6
:1058C4000448FCF7F5FD002008BD6FF0120008BD88
:1058D40014DC0000895800002DE9F047836886B085
:1058E4000F46904601A95B6902AA98470299E1B163
:1058F40000242546A146019B03EBC90ADAF80420DB
:10590400049253F83930A3B1002605E0DAF80030E8
:10591400049AB34214440BD90595414603A8039451
:10592400B847013601350028F0D106B0BDE8F0874C
:10593400029909F101094945DDD8F6E70123024836
:1059440008601360704700BFB0F100000048704762
:1059540028F100004FF4000200230020C1E90023D5
:10596400704700BF4FF050230022C3F8B82507202A
:1059740005F0B6BF00B1704701F1100006F050BB4E
:1059840010B543688C4684B0002B37D0D3E900149B
:105994008268002A37D0D2E9002333BB01341C4487
:1059A400092C037842D840F2011E8DF808300023F8
:1059B40002A88DF809408DF80DC0ADF80AE08DF805
:1059C4000C3005F08FFD00F1744000F5A6000A28A4
:1059D40007D8DFE800F028060606102406061A0693
:1059E40010006FF00F0004B010BD002CD6D0A342FD
:1059F40008BF0134D4D06FF01500F4E7826819466B
:105A04001C46002AC7D11346C8E701210B4A0C489B
:105A1400FDF7ECFC01210B4A0948FDF7E7FC6FF0A8
:105A24008B0004B010BD002004B010BD0221064A52
:105A340003480094FDF710FDDDE700BF1CEF0000F4
:105A440078DF000044EF0000F8EE00002DE9F04795
:105A540086B04FF0FF080127002406460D460DF1DD
:105A6400030A0DF1040903E09DF80300C30712D5EE
:105A740056EA050314D10523002103A80394CDE9B4
:105A840001A7CDE904498DF803808DF80C30FFF7A8
:105A940077FF0028E8DA00EAE07006B0BDE8F08796
:105AA4002946304606F03EFFE5E700BF2DE9F04702
:105AB4000B4607460D46406886B0C1F30B01002A29
:105AC40000F0F0801446C2F30B020A4340F0EA806F
:105AD400002BC0F2E180C26A1919914200F2DC8005
