:020000040002F8
:100000003DB8F39600000000000200009C090A00C1
:1000100000000000010001000000000000000000DE
:10002000FFFFFFFFFFFFFFFFFFFFFFFFFFFFFFFFE0
:10003000FFFFFFFFFFFFFFFFFFFFFFFFFFFFFFFFD0
:10004000FFFFFFFFFFFFFFFFFFFFFFFFFFFFFFFFC0
:10005000FFFFFFFFFFFFFFFFFFFFFFFFFFFFFFFFB0
:10006000FFFFFFFFFFFFFFFFFFFFFFFFFFFFFFFFA0
:10007000FFFFFFFFFFFFFFFFFFFFFFFFFFFFFFFF90
:10008000FFFFFFFFFFFFFFFFFFFFFFFFFFFFFFFF80
:10009000FFFFFFFFFFFFFFFFFFFFFFFFFFFFFFFF70
:1000A000FFFFFFFFFFFFFFFFFFFFFFFFFFFFFFFF60
:1000B000FFFFFFFFFFFFFFFFFFFFFFFFFFFFFFFF50
:1000C000FFFFFFFFFFFFFFFFFFFFFFFFFFFFFFFF40
:1000D000FFFFFFFFFFFFFFFFFFFFFFFFFFFFFFFF30
:1000E000FFFFFFFFFFFFFFFFFFFFFFFFFFFFFFFF20
:1000F000FFFFFFFFFFFFFFFFFFFFFFFFFFFFFFFF10
:10010000FFFFFFFFFFFFFFFFFFFFFFFFFFFFFFFFFF
:10011000FFFFFFFFFFFFFFFFFFFFFFFFFFFFFFFFEF
:10012000FFFFFFFFFFFFFFFFFFFFFFFFFFFFFFFFDF
:10013000FFFFFFFFFFFFFFFFFFFFFFFFFFFFFFFFCF
:10014000FFFFFFFFFFFFFFFFFFFFFFFFFFFFFFFFBF
:10015000FFFFFFFFFFFFFFFFFFFFFFFFFFFFFFFFAF
:10016000FFFFFFFFFFFFFFFFFFFFFFFFFFFFFFFF9F
:10017000FFFFFFFFFFFFFFFFFFFFFFFFFFFFFFFF8F
:10018000FFFFFFFFFFFFFFFFFFFFFFFFFFFFFFFF7F
:10019000FFFFFFFFFFFFFFFFFFFFFFFFFFFFFFFF6F
:1001A000FFFFFFFFFFFFFFFFFFFFFFFFFFFFFFFF5F
:1001B000FFFFFFFFFFFFFFFFFFFFFFFFFFFFFFFF4F
:1001C000FFFFFFFFFFFFFFFFFFFFFFFFFFFFFFFF3F
:1001D000FFFFFFFFFFFFFFFFFFFFFFFFFFFFFFFF2F
:1001E000FFFFFFFFFFFFFFFFFFFFFFFFFFFFFFFF1F
:1001F000FFFFFFFFFFFFFFFFFFFFFFFFFFFFFFFF0F
:10020000D0BB0120391504000FD3070025150400C9
:1002100025150400251504002515040025150400E6
:10022000000000000000000000000000ED160400C7
:1002300025150400000000005516040025150400D3
:100240004519040045190400451904004519040026
:100250004519040045190400451904004519040016
:100260004519040045190400451904004519040006
:1002700045190400451904004519040045190400F6
:1002800045190400451904004519040045190400E6
:1002900045190400451904004519040045190400D6
:1002A00045190400451904004519040045190400C6
:1002B00045190400451904004519040045190400B6
:1002C00045190400451904004519040045190400A6
:1002D0004519040045190400451904004519040096
:1002E0004519040045190400451904004519040086
:1002F0004519040045190400451904004519040076
:100300004519040045190400451904004519040065
:100310004519040045190400451904004519040055
:100320004519040045190400451904004519040045
:100330004519040045190400451904004519040035
:100340004519040045190400451904004519040025
:1003500045190400FFFFFFFF81F0004102E000BFEC
:1003600083F0004330B54FEA41044FEA430594EA75
:10037000050F08BF90EA020F1FBF54EA000C55EAB0
:10038000020C7FEA645C7FEA655C00F0E2804FEA81
:100390005454D4EB5555B8BF6D420CDD2C4480EA63
:1003A000020281EA030382EA000083EA010180EA93
:1003B000020281EA0303362D88BF30BD11F0004FE1
:1003C0004FEA01314FF4801C4CEA113102D0404217
:1003D00061EB410113F0004F4FEA03334CEA133352
:1003E00002D0524263EB430394EA050F00F0A7806A
:1003F000A4F10104D5F1200E0DDB02FA0EFC22FA65
:1004000005F2801841F1000103FA0EF2801843FA58
:1004100005F359410EE0A5F120050EF1200E012A49
:1004200003FA0EFC28BF4CF0020C43FA05F3C01887
:1004300051EBE37101F0004507D54FF0000EDCF100
:10044000000C7EEB00006EEB0101B1F5801F1BD3A9
:10045000B1F5001F0CD349085FEA30004FEA3C0CAD
:1004600004F101044FEA445212F5800F80F09A80A3
:10047000BCF1004F08BF5FEA500C50F1000041EBA7
:10048000045141EA050130BD5FEA4C0C404141EBAB
:100490000101013C28BFB1F5801FE9D291F0000FA6
:1004A00004BF01460020B1FA81F308BF2033A3F155
:1004B0000B03B3F120020CDA0C3208DD02F1140C4C
:1004C000C2F10C0201FA0CF021FA02F10CE002F187
:1004D0001402D8BFC2F1200C01FA02F120FA0CFC80
:1004E000DCBF41EA0C019040E41AA2BF01EB0451C9
:1004F000294330BD6FEA04041F3C1CDA0C340EDCC7
:1005000004F11404C4F1200220FA04F001FA02F309
:1005100040EA030021FA04F345EA030130BDC4F1C7
:100520000C04C4F1200220FA02F001FA04F340EABC
:100530000300294630BD21FA04F0294630BD94F06D
:10054000000F83F4801306BF81F480110134013D54
:100550004EE77FEA645C18BF7FEA655C29D094EAC5
:10056000050F08BF90EA020F05D054EA000C04BF43
:100570001946104630BD91EA030F1EBF002100202E
:1005800030BD5FEA545C05D14000494128BF41F0CD
:10059000004130BD14F580043CBF01F5801130BD31
:1005A00001F0004545F0FE4141F470014FF00000BC
:1005B00030BD7FEA645C1ABF194610467FEA655C6D
:1005C0001CBF0B46024650EA013406BF52EA03350F
:1005D00091EA030F41F4002130BD00BF90F0000FFD
:1005E00004BF0021704730B54FF4806404F1320439
:1005F0004FF000054FF0000150E700BF90F0000FF2
:1006000004BF0021704730B54FF4806404F1320418
:1006100010F0004548BF40424FF000013EE700BFE8
:1006200042004FEAE2014FEA31014FEA02701FBF78
:1006300012F07F4393F07F4F81F06051704732F0AA
:100640007F4208BF704793F07F4F04BF41F4002101
:10065000704730B54FF4607401F0004521F000415F
:100660001CE700BF50EA010208BF704730B54FF0E9
:1006700000050AE050EA010208BF704730B511F0EA
:10068000004502D5404261EB41014FF4806404F122
:1006900032045FEA915C3FF4D8AE4FF003025FEAA8
:1006A000DC0C18BF03325FEADC0C18BF033202EB2C
:1006B000DC02C2F1200300FA03FC20FA02F001FA86
:1006C00003FE40EA0E0021FA02F11444BDE600BF29
:1006D0007BB972B90029BEBF00204FF0004106E08F
:1006E00008BF00281CBF6FF000414FF0FF3000F042
:1006F00057B8ADF1080C6DE904CE002909DB002BD9
:100700001ADB00F074F8DDF804E0DDE9022304B040
:100710007047404261EB4101002B1BDB00F067F8A2
:10072000DDF804E0DDE9022304B0404261EB410161
:10073000524263EB43037047524263EB430300F0C2
:1007400056F8DDF804E0DDE9022304B0404261EB35
:1007500041017047524263EB430300F048F8DDF873
:1007600004E0DDE9022304B0524263EB4303704727
:1007700053B94AB9002908BF00281CBF4FF0FF3108
:100780004FF0FF3000F00CB8ADF1080C6DE904CE6D
:1007900000F02DF8DDF804E0DDE9022304B0704735
:1007A000704700BF10F8012B11F8013B012A28BF48
:1007B0009A42F7D0D01A7047034613F8012B002A4B
:1007C000FBD1181A01387047430803F05533C01A9B
:1007D00000F03333800800F0333018444FF0013319
:1007E00000EB101000F00F305843000E70472DE959
:1007F000F04786468C460846089E154674461946BC
:10080000002B40F0C1808542B2FA82F245D94AB14C
:10081000C2F1200300FA02FC954094402EFA03F343
:1008200043EA0C0C4FEA154EA8B2230CBCFBFEF8B1
:100830000EFB18CC08FB00F943EA0C43994528D974
:10084000EB1808F1FF3704D2994502D9A8F1020745
:100850002B44A3EB0903A4B2B3FBFEFC0EFB1C3339
:100860000CFB00F044EA0344A04214D92C190CF10B
:10087000FF3304D2A04202D9ACF102032C44241A63
:1008800043EA07401EB1D440002334607360BDE8E2
:10089000F0874746DDE76346F1E792BB431B012142
:1008A0004FEA154EAFB2200CB3FBFEFC0EFB1C331F
:1008B0000CFB07F840EA0343984561D9EB180CF1AB
:1008C000FF3004D2984502D9ACF102002B44A3EBCF
:1008D0000803A4B2B3FBFEFC0EFB1C330CFB07F7B2
:1008E00044EA0344A7424DD92C190CF1FF3304D23A
:1008F000A74202D9ACF102032C44E41B43EA0040B6
:10090000C0E7C2F120039540944020FA03F12EFA8B
:1009100003F34FEA154E9040AFB20343B1FBFEFC28
:100920000EFB1C10190C0CFB07F841EA004188452E
:1009300022D969180CF1FF3004D2884502D9ACF1F4
:1009400002002944A1EB08019BB2B1FBFEFC0EFBA7
:100950001C110CFB07F743EA01439F420ED9EB1829
:100960000CF1FF3104D29F4202D9ACF102012B44B9
:10097000DB1B41EA004193E76046E3E76146F7E7A6
:100980006046A4E76346B8E7834206D916B900215A
:1009900008467CE7C6E900E0F9E7B3FA83F78FB9C8
:1009A000834201D3724508D8BEEB020460EB030317
:1009B00001209C461EB9002169E73846FAE7C6E9DE
:1009C000004CF8E7C7F1200CBB400EFA07F522FAFD
:1009D0000CF42EFA0CF1BA401C4320FA0CF3B84088
:1009E0004FEA144901431FFA84FEB3FBF9F809FBEF
:1009F00018300B0C08FB0EFA43EA00439A4540D925
:100A0000E31808F1FF3004D29A4502D9A8F1020098
:100A10002344A3EB0A0389B2B3FBF9F809FB1833AB
:100A200008FB0EFE41EA03418E452CD9611808F1FE
:100A3000FF3304D28E4502D9A8F10203214443EAD0
:100A40000040A1EB0E01A0FB02984145CE46434673
:100A500002D306D14D4504D20138B9EB020E68EB42
:100A60000403002EA7D0B5EB0E0261EB030101FADF
:100A70000CFC22FA07F3F9404CEA0303C6E9003103
:100A800099E74046C5E74346D9E70000000000006B
:100A90002DE9F04F8DB009900D4617466AF02BFDF9
:100AA0004B0143EAD0634401241A63EB01039B002A
:100AB00043EA9473A400241843EB0101C90041EAFE
:100AC0005471C4F3103444EA41444FEAD139012D42
:100AD00065D07D6829463C48FFF764FE28B1294669
:100AE0003A48FFF75FFE002861D135A3D3E9002320
:100AF00020464946FFF7ECFD80460A9130A3D3E932
:100B0000002320464946FFF7E3FD15461C46304AC0
:100B1000002328462146FFF7DBFD06460F462C4AF8
:100B2000002328462146FFF7D3FD15461C464EF606
:100B30006022002328462146FFF7CAFD81460B911B
:100B40004EF66022002328462146FFF7C1FD1546D8
:100B50001C464FF47A72002328462146FFF7B8FD61
:100B600083468A464FF47A72002328462146FFF7CF
:100B7000AFFDCDE90623CDF810B0CDF814A0CDF827
:100B800008900B9A03920096019742460A9B1149DE
:100B900009985BF0C2FB00200DB0BDE8F08F224643
:100BA0004B460D4909985BF0B8FB0020F4E72A4654
:100BB0000A4909985BF0CFFB6FF00400ECE700BF37
:100BC000005C26050000000064D9080068D9080010
:100BD00080EE36008CD9080050D9080074D908007E
:100BE00010B5082140F601402AF01EFBD8B104469A
:100BF00008210C3021F0E2FD02460F4B93F8E03063
:100C000013F0010F0BD10D484FF000515DF0D4FEF1
:100C10000022214640F601402BF056FC10BD04A1F5
:100C2000D1E90001F2E76FF06800F7E7AFF3008069
:100C30009088000200800020F03000201088000220
:100C400000B583B09FED0A7B8DED007B082903D9A9
:100C5000002003B05DF804FB0A46014668466AF0CE
:100C600090FDDDE9000168F028FCF2E7AFF30080B9
:100C7000000000000000000030B589B00C9D002885
:100C80003FD00446002948D0D0F8200110F0010FD1
:100C90004FD10020C4F80801C4F80C0104F5887095
:100CA000C4F81001C4F8140104F58C70C4F81801DC
:100CB000C4F81C01002D48D02879002847D1012014
:100CC000C4F820019FED247B8DED067B002004906D
:100CD0000393029001900094214B204652F0B4FD02
:100CE00055B1296811B1204652F09CFC6B791BB1BB
:100CF000237B43F001032373204653F045FD09B0E5
:100D000030BD184C40F2DB222146174859F0DAFE7C
:100D100040F2DB21204659F0CCFE124C4FF43772E2
:100D20002146114859F0CEFE4FF43771204659F054
:100D3000C0FE0C4C40F2DD2221460B4859F0C2FEA9
:100D400040F2DD21204659F0B4FE0120B8E740F220
:100D50000110B5E7AFF30080FFFFFFFFFFFFFFFFCC
:100D60009D29070024DF0B0088CE080008B510205D
:100D700006F0CEF908B1014B436008BD800A0C00B3
:100D800010B5032808D80446FFF7F0FF084A826030
:100D9000047306F081FA10BD064C4FF49D72214693
:100DA000054859F08FFE4FF49D71204659F081FEA1
:100DB000780B0C0050CE080088CE080030B583B008
:100DC00006F0D4FA002849D06C4B1B6813F0070FCB
:100DD00006D14FF0FF304FF0FF3153F05BFCF8E7E6
:100DE000082003F009FA0022012363F388120C2380
:100DF00063F35322844658B310F110041FD0604BA4
:100E00000193002109E08B0003F1140008336B44C7
:100E100053F8043C4CF8003001310029F3D0594B11
:100E20000193002109E08B0003F1180008336B44A3
:100E300053F8043C4CF8003001310029F3D03CB1A8
:100E40000023019303238DF804300198CCF810009F
:100E500000234A4960465AF0F5FCBAE762F092F87E
:100E60000546002855D0454B1B6813F0070F03D1EA
:100E70000020FFF785FFACE7082003F0BDF9002252
:100E8000012363F38812102363F35322844600285E
:100E900039D0C4182ED03C4B0193002109E08B00BF
:100EA00003F1140008336B4453F8043C4CF8003051
:100EB00001310029F3D0334B0193002109E08B006D
:100EC00003F1180008336B4453F8043C4CF800302D
:100ED00001310029F3D00195002109E08B0003F1D5
:100EE0001C0008336B4453F8043C4CF800300131CB
:100EF0000029F3D03CB10023019304238DF8043082
:100F00000198CCF8100000231C4960465AF09AFC66
:100F1000AEE71A4B1B6803F00703022BA8D9062083
:100F200003F06AF90022032363F38812082363F3B2
:100F300053228446D8B110F110040FD0134B019303
:100F4000002109E08B0003F1140008336B4453F8CF
:100F5000043C4CF8003001310029F3D03CB10023AF
:100F6000019302238DF804300198CCF8100000237F
:100F7000024960465AF066FC7AE700BF5C500020E8
:100F8000A0CE0800D0CE0800D8CE080000CF0800C0
:100F900000293CD038B50568284659F04FF9044679
:100FA00005EBC003AA68B2F5004F17D35B6813F0D6
:100FB000010F15D004EB5303B2F5004F1AD355F8C7
:100FC00033209B1A9C4218D100222146284659F012
:100FD0000EF82146284659F08EF938BD5B88E6E7C1
:100FE0000B4CAF2221460B4859F06CFDAF21204637
:100FF00059F05FFD35F83320E3E7054CB722214671
:10100000044859F05FFDB721204659F052FD704762
:1010100020CF080088CE08002DE9F8431546066861
:101020004B420B4001F1FF3919EA01090CD0B268BB
:10103000B2F5004F06D3082293425CD21A464C46C2
:10104000994609E00422F7E70C46B368B3F5004F70
:101050004AD30822944249D9631E23424ED1002D1F
:1010600070D0B368B3EBD50F6FD96119891AB3F596
:10107000004F4FD3082319440731C908304659F0AF
:1010800095F90746002863D00146304658F0CBFF5B
:1010900000EB0908A04408F1FF38B8FBF4F804FBA2
:1010A00008F8A8EB090808EB0504073424F0070446
:1010B0004146304659F0C2F80546A41BE410874269
:1010C0002AD306EBC503B268B2F5004F2ED35B6896
:1010D00005EB53039C422BD301222946304658F09E
:1010E00086FF4046BDE8F8830422B3E7294659F05D
:1010F000AEF98046F5E74C469946ADE7164C4FF4FD
:10110000A2722146154859F0DDFC4FF4A271204629
:1011100059F0CFFC0423AEE702463946304659F079
:1011200017F83946304659F0BDF8CAE75B88CFE773
:1011300022462946304659F00BF82146304659F0F0
:10114000B1F8C9E74FF00008CBE74FF00008C8E757
:101150004FF00008C5E700BF20CF080088CE080088
:10116000F8B5B2F5802F01D2042A2BD9B2F5802F21
:1011700034D30823D21ACC1D24F007040A4422F0E9
:101180000702121BD108172A2AD90460A160002384
:10119000E360B2F5802F2FD308200830A1EBD003F5
:1011A0000133B3FA83F3C3F1200CC3F124039B0092
:1011B00003F1070E4FEADE0606EBD00088421DD889
:1011C00000232CE03B4C4FF4F97221463A4859F089
:1011D00079FC4FF4F971204659F06BFC0423C9E700
:1011E000344C40F2FB122146334859F06BFC40F27C
:1011F000FB11204659F05DFC0420CEE72D4C4FF446
:10120000037221462C4859F05DFC4FF403712046CF
:1012100059F04FFC181D002544F820500133634558
:10122000F8DB7300B2F5802F31D36360B2F5802F05
:101230002FD300232360B2F5802F2DD3636843F0B2
:1012400001036360881B47002EF00703E518B2F521
:10125000802F26D36F60A568B5F5004F23D3E650E5
:1012600022F007032244A568B5F5004F1DD30025E1
:101270005560A268B2F5004F1AD3E0500122204613
:1012800058F0B5FE3146204659F00CF8F8BD6380A1
:10129000CCE700232380CEE7638843F0010363801B
:1012A000D0E76F80D7E7E652DAE700255580E0E720
:1012B000E052E3E720CF080088CE0800F8B540B13F
:1012C000064603784578847804EB830404440027B9
:1012D00010E00A4CC6222146094859F0F3FBC6210A
:1012E000204659F0E6FB01342046FFF765FA01304D
:1012F00004440137AF42F6D3A01BF8BD44CF080029
:1013000088CE08002DE9F04F97B000AF39617A61BF
:101310007862B0B19B46D7F88030C3F3C003FB615D
:101320003B69D3B17B6A93F80280C7F80C80B8F1AF
:10133000000F17D0D7F8803013F0010F1ED1002313
:1013400011E0A94C40F299322146A84859F0BAFB65
:1013500040F29931204659F0ACFB786AFFF7AEFFB6
:101360003861DFE700237A6AD2783A6242B1D7F86F
:10137000802012F0020F21D1002202E00123F2E7C7
:10138000002202B9E3B17A6A1578A900B960516800
:10139000B96102EB85057A69FAB1002B40F00A8148
:1013A000FB68002B00F01581D7F8803013F0040F94
:1013B00040F01381002082468046FFE00122E0E7F2
:1013C0007B691BB15A463969786A9847D7F81090FB
:1013D00048465C37BD46BDE8F08FD7F81090E3B9BA
:1013E000FB681D444FF0000B22E0814401350134BD
:1013F00044451CD22A7800235AF8222019467869DD
:1014000059F071F8002EF0D0D7F888309B45ECD217
:1014100026F81B000BF1010BE7E70024A346D7F8E1
:101420000C803E61D7F824A0D7F88460E0E73E69DD
:10143000D7F8803003F00503FB604FF0000AC7F8CF
:1014400010B0B346A1E00025FB697BB9002D7ED02A
:10145000D7F8803013F0010F7ED1FB68002B74D1D8
:101460000223A9EB03098DE00125EDE74146B869A8
:1014700059F07FF80028E9D05D4B1B6813F0060F88
:1014800040D06D46002387F82C30022387F82D309A
:101490008AB0694611F1100237D012261AB1042E13
:1014A00001DD544B4B61002387F82830022387F875
:1014B00029306ABB112E45DD122362B1042087F862
:1014C0002C00002087F82D0087F82E00012087F8D7
:1014D0002F00F86A08616FF3000B6FF3410B6FF395
:1014E000820B6FF3C50B022161F3881BC3F30A0360
:1014F00063F3532B6FF31F5B002359463C4803F003
:1015000053F9AD46A9F102093CE06FF00046C5E78A
:101510003346082E01DDB86988610C2B01DDC1F866
:101520001C8001F12003002009E000F1300C07F1DC
:10153000280EF4441CF830CC03F801CB013001280C
:10154000F3D9B7E76FF01B03B7E7012389E7D7F8B3
:10155000803013F0020F15D0002332461946786907
:1015600058F0C1FFD7F8843053B13B69D7F88820D1
:10157000934205D2D7F8842022F8130001333B614F
:10158000013881440AF1010A25463B6A9A45BFF4B5
:101590001FAF2C4614F8028B6B787A6A52F82360DE
:1015A000154B9E42FFF44FAF144B9E42FFF45CAFCD
:1015B000002549E707F144004FF0000A18B1FA6826
:1015C00029466AF0DEF8FB681D440026C7F804B01F
:1015D00031E0002082468046F0E7C24607F1340041
:1015E0004FF00008EAE700BF44CF080088CE0800AB
:1015F000FC4F002074CF080024BF080084E40B00D7
:101600000025FB696BBB002D5FD0D7F8803013F04D
:10161000010F39D0B8F10F0F2AD808F1010308F1F2
:10162000300207F1280102EB010808F8149C5FFA68
:1016300083F8013625463B6A9E4280F08A802C461C
:1016400014F802BB95F801907B6A53F82930894A57
:101650009342D5D3884A934201D30025D1E701258F
:10166000CFE75946B86958F084FF0028CBD0E0E7AF
:10167000824C40F243422146814859F023FA40F21D
:101680004341204659F015FAD7F8803013F0040F83
:10169000CFD0BAF10F0F0CD80AF101030AF13002D2
:1016A00007F1280102EB010A0AF8249C5FFA83FA89
:1016B000BFE7724C40F246422146714859F002FAA7
:1016C00040F24641204659F0F4F9D7F8803013F043
:1016D000020F1BD0B8F10F0F0CD808F1010308F16D
:1016E000300207F1280102EB010808F8149C5FFAA8
:1016F00083F89EE7614C40F24D422146604859F024
:10170000E1F940F24D41204659F0D3F9BAF10F0FFB
:1017100013D80AF101030AF1300207F128010A4443
:1017200002F824BC0AF1020A5FFA8AFA07F15802A9
:1017300052FA83F303F8249C7BE7504C4FF48A62FF
:1017400021464F4859F0BEF94FF48A61204659F0BE
:10175000B0F9D7F804B07A6A137887F85430537820
:10176000434487F85530D7F8803013F0020F0DD17D
:10177000CAF3470387F85730D7F8803013F0010FCA
:1017800006D113F0040F33D1002302E00023F1E768
:10179000002387F856307B6A18683863786D1C46DA
:1017A00018605A46B96818467E69B047B0F100091A
:1017B000FFF60EAE386B20605A46514607F13400F2
:1017C000B04700284FDB09EB0004FB68BA681344FC
:1017D00019463B6A01EB43015A463B69591A2846B0
:1017E000B047B0F10009FFF6F3AD4C44002518E016
:1017F0005346CEE74FF0000901E04FF000095A468A
:10180000012107F12C00B04700282EDB04444B4691
:1018100052465946304658F066FE002827DB0444FD
:101820000135454518D205F1300307F1280213446C
:1018300013F8143C87F82C307A6A52F823A0D7F8B2
:101840008430002BD6D0D7F888309D42D5D2D7F837
:10185000843033F81590D2E75A46002108467B6958
:101860009847A146B4E58146B2E58146B0E5814698
:10187000AEE500BF24BF080084E40B0044CF08009D
:1018800088CE080008B5024B1B68984708BD00BF0A
:10189000D832002000B583B002460B4600210091EB
:1018A000024800F0E7FA03B05DF804FB8518020077
:1018B00010B586B004460390049100210591009173
:1018C00003A9064800F0D6FA059B049A934201DA70
:1018D0000022E254059806B010BD00BFC5A5070060
:1018E00084460268002006E000EB8000013203EB32
:1018F0004003A3F1300013780349C95C11F0040FD1
:10190000F2D1CCF80020704735E30B00844608463E
:10191000012226E09CF8003043F004038CF80030EC
:10192000F2B101301CE09CF8003043F008038CF861
:101930000030F5E79CF8003043F010038CF80030DD
:10194000EEE79CF8003043F020038CF80030E7E726
:101950009CF8003043F040038CF80030E0E70022B0
:1019600042B30378203B102BF9D801A151F823F0A2
:10197000351902005F1902005F19020043190200C5
:101980005F1902005F1902005F1902005F1902006F
:101990005F1902005F1902005F1902002719020097
:1019A0005F190200151902005F1902005F19020099
:1019B000511902009CF8003003F04403442B00D07E
:1019C00070479CF800306FF386138CF80030F7E70F
:1019D0002DE9F84F05460C46934699460A9ED07865
:1019E000254B13F800A00AF0030A59F016F8074631
:1019F00014E0BAF1010F20D0D2B25732D2B2327015
:101A00003A46434628462146FEF7B2FEBD4274F1EF
:101A1000000416D34E4514D905460C464FF0000875
:101A20003A46434628462146FEF7A2FE013E092AD1
:101A3000DFD8D2B23032D2B2E1E7D2B23732D2B24C
:101A4000DDE79BF8003013F0200F03D0082F04D0FF
:101A5000102F09D03046BDE8F88F9BF8023043F0D4
:101A600008038BF80230F5E79BF8023043F01003CF
:101A70008BF80230EEE700BF35E30B002DE9F04FA5
:101A800087B055EC104B07460E46994621462B1E53
:101A900006DB007810F0080F12D02B20107001E048
:101AA0002D20107097F80380C3F30A54C3F3130377
:101AB0000491059354B951EA030225D1002206E0AE
:101AC00010F0100FEED020201070EBE7002240F253
:101AD000FF7084421AD0B8F1460F5BD0DB0243EAB4
:101AE0005153C90204910593084623F0004305931E
:101AF000214343EAE47529435ED0002A56D00018FA
:101B00005B41049005934DE00122E0E70B4324D1B3
:101B10009F4B13F8083003F00303012B11D0692306
:101B200089F800306E2389F80130662389F8023085
:101B300009F103023B786FF386133B70109B1A6028
:101B400081E1492389F800304E2389F8013046238A
:101B500089F8023009F10302ECE78D4B13F80830E5
:101B600003F00303012B0AD06E2389F800306122B1
:101B700089F8012089F8023009F10302DAE74E23DF
:101B800089F80030412289F8012089F8023009F1F2
:101B90000302CFE74FF06608A0E7013CDB18524193
:101BA00004930592049B059A002AF6DAA4F2FE3407
:101BB000059B43F000430593002517E0059B049A1D
:101BC000520842EAC3725B0804920593214601342D
:101BD000B3F1333FF2D29C0044EA92749000801833
:101BE00043EB0403049005938C1C013D14F1020F98
:101BF000E4DB14E0049B0233059A42F100020493F3
:101C0000059204A858F0C3FE013C0135049A059BD7
:101C100092185B4104920593013C002BF6DA002CEC
:101C2000E8DCC4F10401059A1C34A1F12000049BF6
:101C3000CB4002FA04F4234322FA00F00343CA40E3
:101C400004930592B8F1670F13D0B8F1470F10D085
:101C50004FF0000BB8F1660F29D0741C10230393CA
:101C60009C4200DD1C4600224FF00063CDE90023BA
:101C700027E015F1030F01DBB54211DDA8F10208E1
:101C80005FFA88F8002E00DD013E3B78C3F3401B6D
:101C900013F0200F08D1002EDCDD4FF0010BD9E747
:101CA000761B4FF06608F0E74FF0000BD2E7AC1957
:101CB000D4D5102303930024D5E7684658F083FE5B
:101CC000544604F1FF3A002CF7D1049B009A9B186C
:101CD000059A019942EB0102049305924FF0FF31FE
:101CE00099426FF07043934106D3B8F1660F38D133
:101CF000002D31DDCA460BE004A858F064FE013522
:101D0000F3E703A904A858F06AFE0AF8010B013DA5
:101D1000002D02DD039B002BF3DC7D6025463B7824
:101D200013F0200F01D1002E02DD2E230AF8013B13
:101D3000002D36DA002E34DD6B427B609E4200DAE5
:101D40007E607B68F61A002BD4BF00230123BA788B
:101D500063F34512BA7024E0CA4630230AF8013B07
:101D6000DDE703A904A858F03AFECA460AF8010BB9
:101D7000302800D0013D3B7813F0200F01D1002E18
:101D80000FDD2E2389F8013009F1020A09E000BFB6
:101D900035E30B0003A904A858F021FE0AF8010B53
:101DA000013E002E02DD039B002BF3DCBE60BBF185
:101DB000000F09D00023BB6053469A4613F8012D4B
:101DC000302AFAD02E2A42D0B8F1650F02D0B8F1ED
:101DD000450F2AD18AF80080002D3ADB2B238AF8A0
:101DE00001300AF1020A632D0CDD204A82FB053224
:101DF000EB17C3EB621303F130020AF8012B6422E4
:101E000002FB13551A4A82FB0532EB17C3EBA20300
:101E100003F130028AF8002003EB8303A5EB4303B0
:101E200030338AF801300AF1020A7B68002B17DD93
:101E30000124BB7864F38613BB70109BC3F800A029
:101E400000238AF80030484607B0BDE8F08F9A4674
:101E5000BAE76D422D238AF801300AF1020AC2E77F
:101E6000BB68002BE5DD0124E3E700BF1F85EB51D4
:101E7000676666662DE9F04F95B006460D469046BA
:101E80000393002498F80000002800F046832528DA
:101E900008D02946B0470028C0F24083013408F139
:101EA0000108EFE7002306930793089309930A9329
:101EB0000B930DF14D0205928DF81330414608A8A1
:101EC00058F043FD81469DF8213013F0010F00F0DA
:101ED0009E80039B1A1D03921F68002FC0F28F8003
:101EE0009DF8213013F0040F00F0A380039B1A1D0E
:101EF0000392D3F800A0BAF1000FC0F29180002342
:101F000009930A939DF8223003F00703042B00F095
:101F100099809DF8223003F007039DF82120C2F339
:101F2000C302012B00F09E80022B00F0E380042B03
:101F300000F03481032B00F04B819DF8202012F03B
:101F4000030F40F04B819DF82330253B532B00F2CB
:101F5000FD81DFE813F04F01FB01FB01FB01FB01F9
:101F6000FB01FB01FB01FB01FB01FB01FB01FB0191
:101F7000FB01FB01FB01FB01FB01FB01FB01FB0181
:101F8000FB01FB01FB01FB01FB01FB01FB01FD016F
:101F9000FB01FB01FB01FD01FD01FD01FB01FB015B
:101FA000FB01FB01FB01FB01FB01FB01FB01FB0151
:101FB000FB01FB01FB01FB01FB01FB01CA01FB0172
:101FC000FB01FB01FB01FB01FB01FB01FB01FD012F
:101FD000FB01B501BE01FD01FD01FD01FB01BE01DB
:101FE000FB01FB01FB01FB01F601CA019C01FB01A6
:101FF000FB015701FB01CA01FB01FB01CA019DF86E
:10200000203043F004038DF820307F4268E79DF9CB
:102010002030002B02DB4FF0FF3761E7099F5FE7BD
:102020009DF821306FF341038DF821304FF0FF3AD6
:1020300065E713F0020F02D0DDF828A05FE74FF04C
:10204000FF3A5CE79DF8213013F0020F7FF461AF97
:102050009DF92130002B02DB4FF0060A59E74FF0C3
:102060000D0A56E7D31E042B04D8DFE803F00B1D3E
:1020700029353500039B191D03911B68D917069359
:10208000079106E0039B191D03911B68D91706935E
:102090000791012A28D0022A7FF44FAFBDF91830EA
:1020A000DA170693079248E7039B073323F00703E9
:1020B00003F108010391D3E90001CDE90601E8E746
:1020C000039B073323F0070303F108010391D3E9CE
:1020D0000001CDE90601DCE7039B191D03911B6894
:1020E000D91706930791D4E79DF91830DA170693AC
:1020F000079222E7D31E042B04D8DFE803F00B1F5E
:1021000035414100039B191D03911B680693002371
:1021100007931EE09DF82330632B07D0039B191D06
:1021200003911B6806930023079312E0039B191D7C
:1021300003911B680693002307930AE0039B073370
:1021400023F0070303F108010391D3E90001CDE96E
:102150000601012A1CD0022A7FF4EFAEBDF8183028
:10216000069300230793E8E6039B073323F0070356
:1021700003F108010391D3E90001CDE90601E8E785
:10218000039B191D03911B68069300230793E0E747
:102190009DF81830069300230793CEE6082A0BD04B
:1021A000039B073323F0070303F108020392D3E9EB
:1021B0000023CDE90623C0E6039B073323F0070382
:1021C00003F108020392D3E90023CDE90623B4E624
:1021D000039B1A1D03921B680693AEE64B464246CC
:1021E0002946304658F04DFC0028C0F2978104443F
:1021F000C84647E629462520B0470028C0F28E8110
:102200000134A3E0DDF81880BAF1000F3ADA404655
:10221000FEF7D2FA40440590B8F1000F00F0968026
:10222000059BA3EB08039DF8130000B101339DF853
:10223000221011F0100F00F098800233099A134415
:1022400011F0400F01D00A9A1344002F40F3A580EB
:10225000FF1A9DF8203013F0040F40F09E8013F019
:10226000400F00F09380002800F093802946B0478B
:102270000028C0F25381013400238DF813304FF051
:10228000300A88E05146404667F036F9C2E70698C2
:1022900020B9A44B0593A3F10508C1E7059B009362
:1022A0000DAB08AA0021FFF793FB80469DF8223072
:1022B00043F010038DF8223078238DF823301DE091
:1022C000069B8DF834300DF1350305930DF134087C
:1022D000A6E712F0080F24D02B238DF81330069AAE
:1022E000079B002B24DB06920793059B00930DAB05
:1022F00008AADDE90601FFF76BFB8046BAF1000F83
:102300008ADB059BA3EB08039DF820206FF3861260
:102310008DF820209A457FF67FAFAAEB030309933F
:102320007AE712F0100FDAD020238DF81330D6E7B9
:102330002D218DF81310524263EB4303069207934D
:10234000D3E72246069908A858F07CFBC84699E5D1
:1023500005AB00930DAB0DF11302514608A89DED9E
:10236000060BFFF78BFB804656E711F0080F3FF492
:1023700065AF013362E701343B465F1E002B0CDD85
:1023800029465046B0470028F5DAC7E04FF0200A4A
:1023900001E04FF0300A3B46EFE79DF8130028B10B
:1023A0002946B0470028C0F2B98001349DF8223098
:1023B00013F0400F74D09DF92130002B0FDB98F8FB
:1023C0000000594B1B5C13F0040F15D02946B04791
:1023D0000028C0F2A380013408F10108EFE798F863
:1023E0000000702845D02946B0470028C0F29680EA
:1023F000013408F10108F2E7DDF824A09DF822304D
:1024000013F0200F12D098F800002E281DD098F855
:102410000000454B1B5C13F0040F2AD02946B0473F
:1024200000287BDB013408F10108F0E70AF1FF3BEB
:10243000BAF1000F07DD29463020B04700286DDBD8
:102440000134DA46F2E7DA46DDE72946B0470028EC
:1024500064DB013408F101080AF1FF3BBAF1000F17
:10246000D5DD29463020B047002857DB0134DA4655
:10247000F2E70A9B03F1FF3A002B07DD29463020E3
:10248000B04700284ADB01345346F3E7059B424638
:102490002946304658F0F5FA00283FDB044432E084
:1024A0009DF82230C3F30012C3F3C0031A4305D0D2
:1024B00029463020B047002830DB01349DF8223017
:1024C00013F0100F06D029469DF82300B0470028CE
:1024D00024DB0134099B03F1FF3A002B07DD294679
:1024E0003020B047002819DB01345346F3E7059B41
:1024F00042462946304658F0C4FA00280EDB044410
:1025000001E00134013F002F05DD29462020B047BE
:102510000028F6DA02E0C846B4E4204615B0BDE86B
:10252000F08F00BF31D0080035E30B0038B504460A
:102530000D462022002169F04BF9EB68E361AB689E
:10254000A3612B6823626B6863620022A2622A691E
:1025500022612BB1591E0B4202D142F001022261CD
:1025600004F12C000122002168F0ADFD00B938BD56
:10257000044C2F222146044858F0A4FA2F2120466B
:1025800058F097FA34D0080088CE08002DE9F04FB3
:1025900089B09A46002307930593436A8B42C0F0A3
:1025A000DD808346894600230293012703939046EA
:1025B0005BE06D4C882221466C4858F083FA8821F4
:1025C000204658F076FA0299584658F0B0FB00239E
:1025D00005935FE0DBF82030DBF8002003EB82019D
:1025E000039113F822106FF3000103F82210C9B20F
:1025F0006FF3410103F82210DBF800304B44DBF8A5
:10260000102012F0010F05D1DBF824108B4205D306
:102610005B1A03E0DBF8241001390B40CBF80030E3
:10262000DBF80C10994201D0002709E042F00802C3
:10263000CBF81020002703E0584658F0AFFA2F4699
:10264000019D204652F09EFB00287BD085F3118827
:10265000BFF36F8F079931B1DBF818300BB15846D3
:10266000984700230793002F7AD00BF11404EFF35F
:102670001186202383F31288BFF36F8F204652F018
:1026800071FB002895D0204652F096FB0196059AE2
:10269000002A98D106A9584658F022FA054606990C
:1026A000494597D20028C7D15AEA08030CD1002F18
:1026B000C6D0DBF80030029305AB07AA069958464E
:1026C00058F0A0FA0746BBE768F002FE0028EED1FA
:1026D000002EECD1204652F055FBE8B186F311886C
:1026E000BFF36F8F0BF12C00424653464FF05AFF59
:1026F0000746EFF31185202383F31288BFF36F8F12
:10270000204652F02FFB98B1204652F055FB019520
:10271000B7FA87F77F0993E7134C40F2311221464D
:10272000124858F0CFF940F23111204658F0C1F963
:102730000D4C882221460D4858F0C4F988212046C6
:1027400058F0B7F9084C40F231122146074858F0CA
:10275000B9F940F23111204658F0ABF90023039348
:10276000039809B0BDE8F08F5CD0080088CE08005F
:102770002DE9F04104460D46C369084698470646D0
:1027800004F11407EFF31188202383F31288BFF3B9
:102790006F8F384652F0E6FA88B1384652F00CFB9B
:1027A0002B7843F001032B7063681E44236913F0F8
:1027B000010F0ED1636A9E420ED3F61A0CE0134C41
:1027C00088222146124858F07DF98821204658F089
:1027D00070F9636A013B1E406660204658F0B8F904
:1027E000384652F0CFFA28B188F31188BFF36F8FC3
:1027F000BDE8F081054C40F231122146044858F002
:1028000061F940F23111204658F053F95CD00800CC
:1028100088CE08002DE9F04182B004463DE0454CE9
:1028200088222146444858F04DF98821204658F026
:1028300040F953F8220080085DD153E0626A013A02
:102840001340A360204658F096F91BE013F82210BD
:1028500041F0020103F82210A668E3694046984758
:102860003044236913F0010F04D1636A984204D302
:10287000C01A02E0636A013B1840A060002601E034
:102880000026B046284652F07DFA002842D087F351
:102890001188BFF36F8F002E48D004F11405EFF3B9
:1028A0001187202383F31288BFF36F8F284652F0DD
:1028B00059FA06460028B2D0284652F07DFA01A9FE
:1028C000204658F021F9236AA26803EB8208019997
:1028D0000029D5D013F8221011F0030117D00229D6
:1028E000A7D0002013F8221011F0010FAED110B9BB
:1028F000E36940469847A36801460344226912F001
:10290000010F9BD1626A93429BD39B1A99E70026E1
:10291000B046B7E7074C40F231122146064858F05E
:10292000D1F840F23111204658F0C3F8404602B0C9
:10293000BDE8F0815CD0080088CE08002DE9F041A8
:1029400004460D46C36908469847064604F1140735
:10295000EFF31188202383F31288BFF36F8F38467B
:1029600052F000FAA8B1384652F026FA2B786FF3ED
:1029700000032B70236913F0020F14D0236AE2685E
:1029800003EB8203AB420ED02B6866F39F032B60F0
:1029900015E01F4C882221461E4858F093F88821E4
:1029A000204658F086F82B786FF341032B70E268CD
:1029B000A3689A4211D03146204658F0DCF83846D8
:1029C00052F0E0F9C0B188F31188BFF36F8F04F1C2
:1029D0002C004FF083FDBDE8F0813344226912F0F2
:1029E000010F04D1626A934204D39B1A02E0626A27
:1029F000013A1340A360DEE7054C40F23112214654
:102A0000044858F05FF840F23111204658F051F870
:102A10005CD0080088CE080070B582B0044600F192
:102A20001405EFF31186202383F31288BFF36F8F11
:102A3000284652F097F9A0B1284652F0BDF901A9F5
:102A4000204658F061F8284652F09CF998B186F378
:102A50001188BFF36F8F0198003818BF012002B0B2
:102A600070BD0B4C882221460A4858F02BF888216B
:102A7000204658F01EF8064C40F231122146054817
:102A800058F020F840F23111204658F012F800BFFB
:102A90005CD0080088CE080008B50446EFF3118327
:102AA000202383F31288BFF36F8F40F021FA204672
:102AB0005AF0E7FE024857F09DFD5AF07FFCFCE714
:102AC0008CD0080010B586460020642310E00CF17D
:102AD000300C0EF801CB0139C9B20130C0B2B2FBE3
:102AE000F3F403FB1422D2B2094CA4FB0343DB082A
:102AF00049B143B1B2FBF3FC9A42E8D2012BE6D0D4
:102B00000028ECD0E3E711B100238EF8003010BDAF
:102B1000CDCCCCCC10B504468C46838B002A12DB7E
:102B200003F007035A1F012A19D9042B4FD10021A2
:102B300058F094F9204658F0BBF978B1A38B43F0D4
:102B40002003A3830AE0D0E900018CE803000023FE
:102B5000236063600121204658F080F910BDD0E960
:102B600000018CE80300002222606260062B0FD077
:102B7000052B20D10021204658F070F9204658F04E
:102B800097F90028EAD0A38B43F02003A383E5E75D
:102B9000DCF8003053B1E28B0132E2831A461B6845
:102BA000002BF7D0002AF5D11346F3E70221204687
:102BB00058F054F9E2E70C4C40F2091221460B4858
:102BC00057F080FF40F20911204657F072FF064C83
:102BD00040F21B122146054857F074FF40F21B11CA
:102BE000204657F066FF00BFB8D0080088CE080026
:102BF0002DE9F04782B0838BE1B10446154603F01E
:102C0000070603F00802084682B301291ED00229F4
:102C100020D143F02003A38304F1140052F0B2F852
:102C2000002800F0658185F31188BFF36F8F02B033
:102C3000BDE8F087B44C40F233122146B34857F058
:102C400041FF40F23311204657F033FF43F01003A9
:102C5000A383E1E7AC4C4FF49E722146AB4857F09A
:102C600031FF4FF49E71204657F023FF002300935D
:102C7000019357E0204658F01BF955E0D4F818901E
:102C80004A4669462046FFF745FF0027A38B03F01D
:102C90000708B04500F0FD80A268002A00F0F98026
:102CA000012643F00803A38304F1140A504652F0AE
:102CB00069F8002800F0F68085F31188BFF36F8F64
:102CC000002E40F0FB80009B2BB14B4642466946EC
:102CD000204658F02EF917B18D492046B847EFF33A
:102CE0001185202383F31288BFF36F8F504652F073
:102CF00039F8002800F0E880504652F05DF8A38BC8
:102D000023F00803A383A38B13F0100F00F0E680D9
:102D100023F01003A3830120A68B06F007060028EA
:102D20003FF47AAF0228A5D000283FF475AF0138F0
:102D3000042800F2A28001A353F820F07D2C0200A9
:102D40007B2E0200512D0200B32D0200172E02002F
:102D50005EB92368ABB123691F68F7B1062120462D
:102D600058F07CF84FF0000990E7674C4FF4AB72D5
:102D70002146664857F0A6FE4FF4AB71204657F047
:102D800098FE614C40F257122146604857F09AFE77
:102D900040F25711204657F08CFE5B4C4FF4AD7259
:102DA00021465A4857F08EFE4FF4AD71204657F039
:102DB00080FE022E0BD1E38BABB923695F68F7B1BC
:102DC0000421204658F04AF84FF000095EE74E4CC7
:102DD00040F25D1221464D4857F074FE40F25D11FD
:102DE000204657F066FE484C4FF4AF7221464748E4
:102DF00057F068FE4FF4AF71204657F05AFE424C30
:102E000040F261122146414857F05CFE40F26111E8
:102E1000204657F04EFE012E0BD12368ABB123693B
:102E20009F68F7B10521204658F018F84FF00009C7
:102E30002CE7354C4FF4B2722146344857F042FE2D
:102E40004FF4B271204657F034FE2F4C40F2651219
:102E500021462E4857F036FE40F26511204657F0C5
:102E600028FE294C4FF4B4722146284857F02AFE18
:102E70004FF4B471204657F01CFE234C40F26B1205
:102E80002146224857F01EFE40F26B11204657F0B3
:102E900010FE009A0AB1002603E7002F3FF433AF7B
:102EA0000026FEE61B4C40F231122146174857F02F
:102EB00009FE40F23111204657F0FBFD4A464146DB
:102EC000204657F0D3FFFEE6124C882221460F48D9
:102ED00057F0F8FD8821204657F0EBFD13F0200F46
:102EE00004D023F02003A383022015E7002013E77A
:102EF000084C40F231122146044857F0E3FD40F2FD
:102F00003111204657F0D5FDB8D0080088CE080012
:102F1000192F02005CD00800F8B504460D4600F1F8
:102F20001406EFF31187202383F31288BFF36F8F0A
:102F3000304651F017FF48B1304651F03DFFA561D2
:102F40003A4601212046FFF753FEF8BD044C882283
:102F50002146044857F0B6FD8821204657F0A9FDC8
:102F60005CD0080088CE08002DE9F047044688466A
:102F700057F0B7FF061E41DB04F11407EFF3118A87
:102F8000202383F31288BFF36F8F384651F0EAFE97
:102F90008146A8B1384651F00FFFA58B05F0070513
:102FA000E38B4FF6FF72934245D02E46022D11D08F
:102FB000062D34D8DFE805F02C4633332C252C00C1
:102FC000354C88222146354857F07CFD8821204623
:102FD00057F06FFD0133E38300231A4642B100220C
:102FE000C8F800206268A2B3C2F80080C4F8048068
:102FF000A3B3524602212046FFF7FAFD3046BDE852
:10300000F0876FF085064FF000094B464A46E5E72A
:10301000B5FA85F35B094A464FF00009DEE7204C1C
:103020004FF4E47221461D4857F04CFD4FF4E47113
:10303000204657F03EFD6FF00A064FF000094B4660
:103040004A46CBE76FF004064FF000094B464A466C
:10305000C4E7C4F80480C4F80080C9E7384651F0DA
:1030600091FE68B18AF31188BFF36F8FB9F1000F39
:10307000C4D000232A464146204657F047FFBDE70B
:10308000054C40F231122146044857F01BFD40F236
:103090003111204657F00DFD5CD0080088CE0800A5
:1030A000B8D00800F8B5044600F11405EFF3118616
:1030B000202383F31288BFF36F8F284651F052FE0E
:1030C00068B1284651F078FEA38B03F007031F4632
:1030D000022B11D0012B0CD06FF0850712E01D4C94
:1030E000882221461C4857F0EDFC8821204657F0E5
:1030F000E0FC6FF0040705E0E38B6BB1013B9BB292
:10310000E383ABB1284651F03DFEB8B186F3118898
:10311000BFF36F8F3846F8BD104C40F2EF122146D6
:103120000D4857F0CFFC40F2EF11204657F0C1FC9C
:10313000324602212046FFF75BFDEBE7054C40F2EB
:1031400031122146044857F0BDFC40F231112046AF
:1031500057F0AFFC5CD0080088CE0800B8D008005B
:1031600010B50346426802F003028160022A10D0C3
:10317000032A0BD0012A0FD00C4C452221460C48C3
:1031800057F0A0FC4521204657F093FC046800202E
:1031900004E00068002401E00024204600225A6078
:1031A00008B152F00FFE204610BD00BFE0D008006D
:1031B00088CE080000B583B048B18368002B3FD0AB
:1031C0001B68002B75D0984703B05DF804FB3A4BA1
:1031D0001B6813F0070F02D16FF01500F4E7082009
:1031E00001F00AF800226FF300026FF341026FF35F
:1031F00082026FF3C502012363F388120C2363F389
:1032000053226FF31F528446A0B110F1100303D074
:103210002A4941612A49816163B103238DF8043051
:1032200000238DF805308DF806308DF807300198B1
:10323000CCF8100000232049604658F003FBCBE790
:103240001D4B1B6813F0070F02D16FF00400BBE7A2
:10325000082000F0D1FF00226FF300026FF341025B
:103260006FF382026FF3C502012363F388120C230C
:1032700063F353226FF31F528446A0B110F1100381
:1032800003D0104941610E49816163B103238DF878
:10329000043000238DF805308DF806308DF80730A6
:1032A0000198CCF8100000230349604658F0CAFA90
:1032B000CBE7002088E700BF4C50002008D1080071
:1032C0001CD2080020D1080000B583B048B1836843
:1032D000002B3FD05B68002B75D0984703B05DF89A
:1032E00004FB3A4B1B6813F0070F02D16FF0150077
:1032F000F4E7082000F080FF00226FF300026FF374
:1033000041026FF382026FF3C502012363F3881257
:103310000C2363F353226FF31F528446A0B110F1C4
:10332000100303D02A4941612A49816163B1032313
:103330008DF8043000238DF805308DF806308DF8B7
:1033400007300198CCF8100000232049604658F05F
:1033500079FACBE71D4B1B6813F0070F02D16FF012
:103360000400BBE7082000F047FF00226FF30002D3
:103370006FF341026FF382026FF3C502012363F31F
:1033800088120C2363F353226FF31F528446A0B1BB
:1033900010F1100303D0104941610E49816163B1FE
:1033A00003238DF8043000238DF805308DF80630A6
:1033B0008DF807300198CCF81000002303496046CF
:1033C00058F040FACBE7002088E700BF4C500020BF
:1033D00008D1080000D2080020D1080010B582B042
:1033E00078B1034669B162B18068002841D0C468F1
:1033F000002C3ED041F8043BC4681846A04702B0F8
:1034000010BD384B1B6813F0070F02D16FF0150089
:10341000F5E7082000F0F0FE00226FF300026FF3E2
:1034200041026FF382026FF3C502012363F3881236
:103430000C2363F353226FF31F52044698B110F12B
:10344000100303D028494161284981615BB10323FE
:103450008DF8043000238DF805308DF806308DF896
:1034600007300198206100231E49204658F0EAF9F0
:10347000CCE71C4B1B6813F0070F02D16FF0040060
:10348000BDE7082000F0B8FE00226FF300026FF3E2
:1034900041026FF382026FF3C502012363F38812C6
:1034A0000C2363F353226FF31F52044698B110F1BB
:1034B000100303D00E4941610C4981615BB10323C4
:1034C0008DF8043000238DF805308DF806308DF826
:1034D00007300198206100230249204658F0B2F9D4
:1034E000CCE700BF4C50002044D10800E0D10800D8
:1034F00020D1080010B582B078B1044600680028D9
:1035000043D08368002B78D01B69002B75D061688D
:10351000984700B9206002B010BD544B1B6813F0EF
:10352000070F02D16FF01500F5E7082000F064FEE8
:1035300000226FF300026FF341026FF382026FF318
:10354000C502012363F388120C2363F353226FF344
:103550001F52044698B110F1100303D04449416151
:10356000444981615BB103238DF8043000238DF859
:1035700005308DF806308DF8073001982061002362
:103580003A49204658F05EF9CCE7384B1B6813F0F7
:10359000070F02D16FF00100BDE7082000F02CFEFC
:1035A00000226FF300026FF341026FF382026FF3A8
:1035B000C502012363F388120C2363F353226FF3D4
:1035C0001F52044698B110F1100303D02A494161FB
:1035D000284981615BB103238DF8043000238DF805
:1035E00005308DF806308DF80730019820610023F2
:1035F0001E49204658F026F9CCE71C4B1B6813F0F7
:10360000070F02D16FF0040085E7082000F0F4FDF9
:1036100000226FF300026FF341026FF382026FF337
:10362000C502012363F388120C2363F353226FF363
:103630001F52044698B110F1100303D00F494161A5
:103640000C4981615BB103238DF8043000238DF8B0
:1036500005308DF806308DF8073001982061002381
:103660000249204658F0EEF8CCE700BF4C5000204D
:1036700074D10800C0D108008CD1080020D1080006
:1036800010B582B080B1134684460068002843D04C
:103690008268002A78D09468002C75D00A46DCF83D
:1036A0000410A04702B010BD534B1B6813F0070F66
:1036B00002D16FF01500F5E7082000F09DFD002213
:1036C0006FF300026FF341026FF382026FF3C502E2
:1036D000012363F388120C2363F353226FF31F5209
:1036E000044698B110F1100303D0444941614449A4
:1036F00081615BB103238DF8043000238DF8053020
:103700008DF806308DF807300198206100233A4982
:10371000204658F097F8CCE7374B1B6813F0070F9B
:1037200002D16FF00100BDE7082000F065FD002226
:103730006FF300026FF341026FF382026FF3C50271
:10374000012363F388120C2363F353226FF31F5298
:10375000044698B110F1100303D02A494161284969
:1037600081615BB103238DF8043000238DF80530AF
:103770008DF806308DF807300198206100231E492E
:10378000204658F05FF8CCE71B4B1B6813F0070F7F
:1037900002D16FF0040085E7082000F02DFD002223
:1037A0006FF300026FF341026FF382026FF3C50201
:1037B000012363F388120C2363F353226FF31F5228
:1037C000044698B110F1100303D00F4941610C4930
:1037D00081615BB103238DF8043000238DF805303F
:1037E0008DF806308DF807300198206100230249DA
:1037F000204658F027F8CCE74C50002074D1080040
:10380000ACD108008CD1080020D1080050B100B51F
:1038100083B00B460092826A416A4AF0F1FF03B01E
:103820005DF804FB004870472DF8FFFF006900F5C4
:103830007F73D3E8AF3F022B11D110B50C4689B18D
:103840000A4900F530704FF0AFFA204665F0C5FA2E
:1038500078220021204667F0BBFF002010BD6FF0EA
:103860000F0070476FF00100F8E700BF18B90020A3
:103870000023002B01DD00207047054A12680AB1C1
:103880000133F6E7024A526800211160F8E700BFF1
:10389000DC32002008B5024957F070FC08BD00BFBB
:1038A00028DC080030B585B004460D460B4902916E
:1038B000D0F8D411019100934FF0FF3300F1F001E3
:1038C00028464AF0BFFF38B9012385F86C30D4F898
:1038D000D0310BB12846984705B030BD75B107000F
:1038E00060B100B583B00B46012101910092826A5C
:1038F000416A4AF061FF03B05DF804FB004870477D
:103900002DF8FFFF08B58446084611461A46DCF834
:10391000103003F57F73D3E8AF3F022B07D14AB1D4
:1039200058B1FFF7DDFF084B984209D008BD6FF092
:103930000F00FBE76FF04C00F8E76FF00100F5E7D0
:103940006FF00B00F2E700BF2EF8FFFF10B5044642
:1039500000220449FFF7C4FF236F1B680BB1606F9F
:10396000984710BD28DC0800F0B58DB044680569A3
:1039700000230A930B9303680A93E369012B29D070
:10398000276A05F5347630464FF0F0FA606A0AABE4
:1039900000933B464FF48062134901EB802130468F
:1039A000FDF76AF9636A114A202102A856F030FE39
:1039B00002A930464FF036FE0D4905F530704FF044
:1039C000FBF82A460B4904F1140057F005FB20B11F
:1039D0000DB0F0BD276A103FD3E70122A1696069ED
:1039E00057F013FBF4E700BF90F1002044D2080029
:1039F000F1B40700E1B407002DE9F04385B00446B7
:103A00004668056905F57F790123D9E8EF2F002A7B
:103A100003D1C9E8E13F0029F7D152D105F5F87883
:103A20003146404657F02AFD074650B10023D9E8F9
:103A3000EF2FC9E8E13F0029F9D1384605B0BDE8CC
:103A4000F083214BC5F8B832C5F8B46231684046FE
:103A500000F01AF907460028E8D12046FFF784FF56
:103A600007460028E2D1194BC5F8D031184BC5F8EC
:103A7000D431B26AD5F83C32D5F8F8131548039022
:103A8000D5F8400202900193CDF8008005F511733E
:103A9000284600F081F807460028C7D105F1F0005C
:103AA0004AF068FFC5F80004002807DB0223D9E8C4
:103AB000EF2FC9E8E13F0029BFD0F8E76FF0150705
:103AC000B4E76FF07707B8E761B007004D3902003F
:103AD00059B307004DB207002DE9F04385B0074602
:103AE0000E469146D0F8C480002400E00134012C39
:103AF00028D8A8F5E271C4EB041501EBC505C4EBA9
:103B00000413DB00483319443046FCF74BFE002811
:103B1000ECD10E4B0293D8F810300193CDF8009001
:103B20004FF0FF333246394628464AF08BFE48B9FB
:103B3000012185F86C10D8F80C30002BD6D028461F
:103B40009847D3E705B0BDE8F08300BF37B507005D
:103B5000C8B110B584B014460346BAB1F03001299B
:103B600002D0002004B010BD0A4A0292D3F8D4312A
:103B700001934FF0FF33009304F1480201462046C1
:103B80004AF060FEEEE76FF0150070476FF0150029
:103B9000E8E700BF37B507002DE9F04186B01E46C3
:103BA0000D9B0F9C48B3054653B3D4B1D9B903AFAD
:103BB0000391049105910392049205F5E2780E9A1F
:103BC0001946404665F062FB0197CDF80080334608
:103BD00022460C9905F1F0004BF07EF806B0BDE8E6
:103BE000F081094CE2E700230093334622460C990A
:103BF00005F1F0004BF0C0F9F0E76FF01500EDE7CC
:103C00006FF01500EAE700BFD93A020070B504462C
:103C10000D46806C57F0CDFCC4F8BC0060B3A06CBE
:103C200057F0C7FCC4F8C00048B304F15401C4F80D
:103C3000A010236CC4F89030B4F84820A4F8982061
:103C40000423C4F89430D4F8BC60C4F88C60C4F881
:103C5000B810616CC4F8A810A4F8B020C4F8AC3057
:103C6000C4F8A400A5610223E362064B236204F1B9
:103C70008C032363002070BD6FF00B00FBE76FF037
:103C80000B00F8E790D2080030B587B003460D4628
:103C9000114A92E8030006AA02E90300CBB11C46D0
:103CA00004A845F0BDFF08B107B030BDE16C224665
:103CB00042F8381F029001904FF0FF330093236DBC
:103CC00004F1540063F00CFD29462046FFF79EFFE7
:103CD000EAE76FF01500E7E7D0C9080010B14368C4
:103CE0005879704710B5064C40F23312214605480A
:103CF00056F0E8FE40F23311204656F0DAFE00BFDF
:103D0000BCD2080088CE080010B520B10268D26885
:103D100002B1904710BD054C8B222146044856F055
:103D2000D1FE8B21204656F0C4FE00BFBCD2080055
:103D300088CE080010B520B1026812695AB19047C8
:103D400010BD064C9E222146054856F0BBFE9E2122
:103D5000204656F0AEFE0020F2E700BFBCD20800BD
:103D600088CE080010B518B102689268904710BD5F
:103D7000044CD0222146044856F0A4FED02120460F
:103D800056F097FEBCD2080088CE080010B520B1CE
:103D90000268526802B1904710BD054CC22221460C
:103DA000044856F08FFEC221204656F082FE00BF26
:103DB000BCD2080088CE080010B520B169B10268F5
:103DC0001268904710BD0A4CB2222146094856F0AD
:103DD00079FEB221204656F06CFE054CB3222146F6
:103DE000044856F06FFEB321204656F062FE00BF35
:103DF000BCD2080088CE080010B530B10346006878
:103E000084690CB11846A04710BD064C4FF4B1723E
:103E10002146054856F056FE4FF4B171204656F043
:103E200048FE00BFBCD2080088CE080070B5064628
:103E30000D460D4C05E02A4631462046FFF7DCFFD3
:103E400010340A4B9C4203D8084B9C42F3D370BDFC
:103E5000074C40F292322146064856F033FE40F2BB
:103E60009231204656F025FEFCC708000CC8080019
:103E7000F4D2080088CE08002DE9F0410746054637
:103E8000EDB195FAA5F6B6FA86F60E4C04EB0614DB
:103E90000123B3406FEA030825EA0305237B002BC7
:103EA000EED02046FFF746FF0028E9D107EA0807D1
:103EB000636804221968204600F044FCE0E73846B5
:103EC000BDE8F081FCC708002DE9F0412D4B2E4ADA
:103ED0009B1A8F2B0ED880460F462C4BD3E8EF6FE2
:103EE000721CC3E8E12F0029F8D1002E45D1264CE1
:103EF000002513E0264C40F241122146254856F099
:103F0000E1FD40F24111204656F0D3FD63680422E2
:103F10001968204600F016FC01351034194B9C42FC
:103F200011D8184B9C421AD2237B002BF4D0204688
:103F3000FFF7EAFE2046FFF7FDFE0028E6D001234A
:103F4000AB401E43E8E7124C4FF4A77221461148DC
:103F500056F0B8FD4FF4A771204656F0AAFDB8F10F
:103F6000000F0BD056B13046FFF786FF0646002FF4
:103F7000F8D00A2057F079FBF4E700263046BDE878
:103F8000F08100BF0CC80800FCC7080058B9002029
:103F9000F4D2080088CE080008B5064B186018B1A6
:103FA000054B1B68092B00DC08BD04484EF096FA4F
:103FB000FAE700BF4CB9002054B900208453002018
:103FC00008B502484EF08AFA08BD00BF84530020AD
:103FD00038B50546124C00E01034124B9C4212D802
:103FE000104B9C421BD22046FFF778FE0028F3D0EE
:103FF0002946204657F04FFB0028EDD029462046A1
:10400000FFF7DAFEE8E7084C40F2F51221460748D0
:1040100056F058FD40F2F511204656F04AFD38BDE5
:10402000FCC708000CC80800F4D2080088CE0800BD
:1040300030B589B000220F490F4867F0CBFA0F4D19
:1040400000220023CDE90623002404940E230393C9
:104050000294019400940A4B4FF480520949284677
:104060004FF0F2FB084928464FF0DCFA204609B031
:1040700030BD00BFC13F0200285F0020185A002059
:104080005544020090F50020CCF80800014B53F88D
:104090002000704738D3080048B108B5054A1060C1
:1040A000054B1960084600F089FE002008BD6FF03E
:1040B000150070470833002048B9002008B5054BAB
:1040C0001B781BB1034B01221A7008BD02484EF049
:1040D00005FAF7E75CF100208453002008B50C4B8B
:1040E000D3E8EF1F0131C3E8E21F002AF8D130B94D
:1040F000084867F07BFA08484EF0F0F908BD074B16
:10410000D3E8EF1F0139C3E8E21F002AF0D0F7E738
:1041100050B90020285F00208453002054B90020AB
:10412000044B00200146D3E8EF0FC3E8E21F002A4A
:10413000F9D1704750B9002038B5FFF7F1FF0546B7
:104140000F4C00E010340F4B9C420CD80D4B9C429E
:1041500015D22046FFF7C2FD0028F3D0294620469D
:10416000FFF714FEEEE7084C40F201222146074813
:1041700056F0A8FC40F20121204656F09AFC38BDCA
:10418000FCC708000CC80800F4D2080088CE08005C
:10419000034B18680028D4BF00200120704700BFDF
:1041A00050B9002010B5044C04492046FEF7BEF972
:1041B000034B1C6010BD00BF3C4F002024D30800FF
:1041C00040B9002008B50023074A1370074A13605E
:1041D000074A13604FF400410648FFF75DFFFFF701
:1041E000E1FF00F027FA08BD5DF1002050B9002082
:1041F00054B9002063B6070008B50146014857F0DE
:104200006CFA08BD3C4F002008B50248FEF702FBDF
:1042100008BD00BF3C4F002008B50146024B18689E
:1042200057F061FA08BD00BF40B9002008B5024848
:1042300057F05DFA08BD00BF3C4F002010B582B0BA
:1042400000220023CDE90023264B187808B902B0DC
:1042500010BD684657F054FA044668B1224BD3E8C3
:10426000EF1F0139C3E8E21F002AF8D12046FFF70B
:10427000AFFE2046FFF7D0FFFFF78AFF58B91B4A71
:104280001368516813F57A7341F1000113605160AE
:10429000FFF7CCFFDBE767F02EF94A0142EAD06274
:1042A00043011B1A62EB0102920042EA93729B00E7
:1042B0001B1842EB0102D20042EA5372C3F31033DF
:1042C00043EA4243D20B0948016840685B1A62EB3B
:1042D000000240F2E9318B4272F10002CFD3FFF7C6
:1042E0002BFFCCE75CF1002054B90020205F0020B8
:1042F000174B1B7803B1704710B500210120FFF761
:10430000E3FD144C00E01034134B9C420BD8124BCD
:104310009C4214D22046FFF7E1FC0028F3D020464F
:10432000FFF720FDEFE70D4C4FF4DD7221460C48FE
:1043300056F0C8FB4FF4DD71204656F0BAFBFFF78C
:104340007DFF0028FBD1024B01221A7010BD00BF77
:104350005DF10020FCC708000CC80800F4D208007A
:1043600088CE080030B583B02A4BD3E8EF2F511C1C
:10437000C3E8E01F0028F8D1274B1B786BB9274B07
:104380001B681BB3002A39D0092A1FD1244867F0C3
:104390002DF924484EF0A2F818E0EFF31184202301
:1043A00083F31288BFF36F8F1F4850F0DBFC78B1A6
:1043B0001D4D284650F000FDFFF740FF284650F005
:1043C000E1FC78B184F31188BFF36F8F03B030BD87
:1043D000164C88222146164856F074FB8821204648
:1043E00056F067FB114C40F231122146104856F04E
:1043F00069FB40F23111204656F05BFB002200239E
:10440000CDE900234FF400420023054851F01AF98A
:10441000DCE700BF54B900205DF100204CB900205A
:10442000285F00208453002044B900205CD008009D
:1044300088CE080010B50446044B1B689847A0605E
:104440002146034857F060F910BD00BF0833002033
:104450003C4F00202DE9F041224B234A9B1A1B09B7
:104460000ED000210846FFF72FFD8046A0B140F294
:104470006766002750F0E8F9FFF78EFD002524E07D
:104480001A4C40F29E322146194856F01BFB40F26E
:104490009E31204656F00DFB4FF0FF364FF0FF37B0
:1044A000E8E74046FFF7E8FC804688B94FF0FF3662
:1044B0004FF0FF370CE000210846FFF7B7FC32460B
:1044C0003B460C484EF06EF82546B8F1000FE8D197
:1044D000FFF7B4FE04460028F6D1002DEBD12C46A0
:1044E000EDE700BF0CC80800FCC70800F4D20800C4
:1044F00088CE080084530020014800EB81007047FB
:10450000844F002010B143681879704710B5054CEE
:10451000ED222146044856F0D5FAED21204656F00A
:10452000C8FA00BFBCD2080088CE080010B14368AA
:104530001971704710B5054CDF222146044856F02A
:10454000C1FADF21204656F0B4FA00BFBCD2080001
:1045500088CE080028B142681160436801225A7170
:10456000704710B5054C4FF48C722146044856F044
:10457000A9FA4FF48C71204656F09BFABCD2080081
:1045800088CE08000248034BC01AC008704700BF1D
:10459000FCC708007CC5080010B50C46FFF7F2FF09
:1045A000A04203D9024B53F8340010BD0020FCE7B1
:1045B0007CC5080010B50C46FFF7E4FFA04204D903
:1045C000034B03EBC403187910BD0020FCE700BFC8
:1045D0007CC50800F8B506460D4614461F46084639
:1045E000FFF7D0FF84420DD2C7B1002C1BDB214660
:1045F000E8B2FFF781FF006806EB4606F04000F0E6
:1046000007000FE0094C4FF4D4722146084856F0D9
:1046100059FA4FF4D471204656F04BFA2146E8B2CD
:10462000FFF7C8FFF8BD0420FCE700BF4CD308002B
:1046300088CE080010B5002410E021460020FFF7C6
:10464000B9FF0A4A52F8243023F0070342F8243015
:1046500000F00700034342F824300134044B054ABC
:104660009B1AB4EBD30FE8D310BD00BF844F0020DA
:10467000FCC708007CC508002DE9F84304460D4638
:10468000164698460846FFF77DFF864222D2002C48
:104690002CDBE4B20023324629462046FFF79AFF7E
:1046A00038B10023324629462046FFF793FF4045A4
:1046B0003DD80023324629462046FFF78BFF0746A8
:1046C00068BB3B463246E9B2204657F037F83846D9
:1046D000BDE8F883174C4FF4DE722146164856F0B9
:1046E000F1F94FF4DE71204656F0E3F9134B144A0A
:1046F000A3EB02094FEA1919002427464C45E6D2DC
:104700000F4800EB0410FFF7FDFE434632462946F2
:10471000FFF7B2FF874238BF07460134EEE70023B8
:10472000324629462046FFF755FF0746C9E7474668
:10473000C7E700BF4CD3080088CE08000CC80800AB
:10474000FCC7080070B504460E461546094BC31A4F
:104750001B110133D9B2FFF7E9FE63689D71294649
:10476000204657F035F831462046FFF7F3FEFFF7B5
:10477000A5FC70BDFCC7080000B589B00592069382
:104780000023079362B1074A0C9B02930B9B019392
:104790000A9B009305ABFCF7B5FD09B05DF804FB7F
:1047A0000022F1E719B807002DE9F04F8BB004AFF4
:1047B00005461E468846C1F34A24002C00F09C8022
:1047C00091460022FA603A617A6104230293FB1851
:1047D00001930A23009307F10C0321464846FCF796
:1047E00091FDB0F5006F5ED34D4B1B6813F0060FC3
:1047F00000F09180D9F804106D4600233B7302232A
:104800007B738AB004AC14F1100221D012201AB1CB
:10481000042801DD434B636100233B7002237B705E
:10482000CAB10346082800DDA1610C2B02DD40F26D
:10483000FF73E36104F12003002101290BD801F18A
:1048400018063E4416F8186C03F8016B0131F4E7C2
:104850006FF00040DBE7112822DD122342B1042172
:10486000397300217973B9730121F973F8682061F4
:1048700000216FF300016FF341016FF382016FF3C9
:10488000C501022060F38811C3F30A0363F35321C7
:104890000023C1F31301224856F0EBFFAD463AE086
:1048A0006FF01B03DAE760F35328C0F30A0A0AEB40
:1048B0001850173020F007008008FFF79DFC834652
:1048C00018B304230293FB1801930A230093534661
:1048D00000F1100221464846FFF74EFF002814DA87
:1048E000114C4FF4A3722146104856F0EBF84FF4E8
:1048F000A371204656F0DDF804EB1154173424F070
:104900000704A008FFF778FC834633464246294651
:10491000584656F097FF1C37BD46BDE8F08F00BFE4
:104920005450002088D30800C8D3080088CE08005F
:10493000406820B1034BC01A40F38F0070474FF01E
:10494000FF307047844F002038B505460C464B6851
:104950001A68CB689A4210D06368D3E8EF2F511CD5
:10496000C3E8E01F0028F8D1A3689D5463681A6863
:10497000E3689A4205D8002038BD084656F07DFF0E
:10498000EAE7054C72222146044856F09BF8722152
:10499000204656F08EF800BFF4D3080088CE0800F9
:1049A0000EB400B584B0014605AB53F8042B039355
:1049B000002000900348FDF75DFA04B05DF804EBB9
:1049C00003B070474949020010B584B011F0440F9C
:1049D00005D01A4B1B6833B9002004B010BD18492C
:1049E000FFF7DEFFF9E717490968B2FBF1F2B2FB06
:1049F000F3FC03FB1C224FF47A7E0EFB02F2B2FBA7
:104A0000F3F403FB14210EFB01F1B1FBF3F10E4AA9
:104A1000A2FB0C32D20A4FF4616303FB12CC0B4BA6
:104A2000A3FB0CE35B0902910194C3EB0311ACEB14
:104A3000810100910649FFF7B3FFCEE760B900207E
:104A400024D408005CB90020C5B3A2918988888865
:104A500030D4080061B108B52AB1064A52F82320C3
:104A600012B9054A00E0044A0449FFF799FF08BD5E
:104A7000704700BFC8D408004CD40800D8630B00AE
:104A80002DE9F04105461746069EDDF81C8099B9D0
:104A900000242EB1324612492846FFF781FF044414
:104AA000B8F1000F17D087B10123099A934013F092
:104AB000120F13D10B4909E00B4B099A53F822202E
:104AC0000A49FFF76DFF0446E3E7064942462846D8
:104AD000FFF766FF04442046BDE8F0810449F5E78E
:104AE00068D4080058D40800DCD4080060D408005A
:104AF00054D408002DE9F04F87B0049205939DF837
:104B00004C60042E30D805460C4601F0020B01F033
:104B1000010AC1F3C00801F4807956F0FBFD02469A
:104B200070B31C492846FFF73BFF0746BBF1000F57
:104B300028D132465146284656F0CDFEB9F1000F35
:104B400001D0002311930396129B0293119B0193B2
:104B5000109B00930023049A41462846FFF790FFDC
:104B6000384407B0BDE8F08F0B4C40F24622214696
:104B70000A4855F0A7FF40F24621204655F099FF1C
:104B80000027D3E7059A21462846FFF71DFF074473
:104B9000CFE700BF6CD40800F4D3080088CE08002B
:104BA00011F0100F0BD108B511F0200F03D00449FC
:104BB000FFF7F6FE08BD0349FFF7F2FEFAE770477C
:104BC00078D50B00F44609002DE9F04105460F4663
:104BD000164698460699FFF7E3FF0024444505DA98
:104BE00024492846FFF7DCFE0134F7E7002409E0FA
:104BF00020492846FFF7D4FE0BE01F492846FFF75F
:104C0000CFFE01340F2C0CDC002C02DD14F0070F5A
:104C1000EED0B442F1D23A5D18492846FFF7C0FE03
:104C2000EFE717492846FFF7BBFE002409E01149CA
:104C30002846FFF7B5FE0BE012492846FFF7B0FE05
:104C400001340F2C13DC002C02DD14F0070FEED022
:104C5000B44207D23A5D0C4B9B5C13F0970FEBD13B
:104C60002E22E9E703492846FFF79AFEE8E7BDE868
:104C7000F08100BF64D4080078D4080070D4080024
:104C80007CD40800D0DF080035E30B002DE9F041AB
:104C900084B004469DF82C500C9F0E9EA5B9012BA4
:104CA00020D020484FF0000837B13B4622461E492D
:104CB00055F02FFC002819DB26BB65BB204656F0BB
:104CC000DCFD04B0BDE8F08103950A9802900193E1
:104CD00000920B4600220F992046FFF70BFF8046FB
:104CE0001248E1E711484FF00008DDE7104C4FF49F
:104CF000287221460F4855F0E5FE4FF428712046F2
:104D000055F0D7FE0F9B0093434632460D9920463F
:104D100056F0F9FDD1E72A460F99204656F0E7FDF7
:104D2000CCE700BFA9B80700C7B80700494902008F
:104D3000F4D3080088CE08002DE9F04383B006467E
:104D4000056842F20F738B4228BF0B46184A0521B3
:104D5000684655F05DFC04467368D3F804900B2751
:104D6000DFF8548005E04A4639464046A8473F1AD6
:104D70008044002FF7D17368D3F804806F4605E0B4
:104D8000424621463846A847241A0744002CF7D14A
:104D900073685F681B24074E05E03A46214630469B
:104DA000A847241A0644002CF7D103B0BDE8F083CD
:104DB0009444090080D408009CD40800074B0122C9
:104DC0001A6004E04008054A13685B001360044B56
:104DD0009842F7D8034B1860704700BF5CB90020B9
:104DE00040420F0060B90020034B01221A70034BB0
:104DF000034A1A60704700BF5EF100208CB90020A2
:104E000090B9002008B5034B01221A70024856F0F1
:104E1000C8FD08BD5FF100201CD50800014B1960DA
:104E20000020704778B9002008B518B9074B002258
:104E30001A7008BD064B1B7823B141F2883066F02A
:104E400018F8F6E7052056F0C3FDF2E75EF1002002
:104E50005FF1002038B504460A4B01221A700A4B54
:104E60001B782BB938BD651E2046FFF7DDFF2C46A9
:104E700000204AF04DF90028F4D0024B1B78002B9B
:104E8000F1D1EFE75EF100205FF100202DE9F04164
:104E900007460E464FF004080DE032463946002022
:104EA0004AF0CEF8044616E04046FFF7D3FFF4B9C7
:104EB000134B1B78DBB1134B1B78002BEDD164F047
:104EC00029FA05463246394600204AF0B9F8044628
:104ED000284664F027FA002CE6D1094B1B78002BFA
:104EE000E5D008F1FF384046FFF79EFFDFE714B931
:104EF000034B1B7803B934462046BDE8F08100BF60
:104F00005EF100205FF1002008B50248FFF714FFB2
:104F100008BD00BF1CD5080010B50C46044B18682E
:104F2000FFF7B4F803460F2221460248984710BD08
:104F300078B900201CD50800014B036000207047A1
:104F40002CD508008446002300E00133084A12688B
:104F50009A420ADD03EB83020649096801EB8200ED
:104F600011F822206245F0D100E00020704700BF18
:104F7000E4EC0800E833002038B50C4B1B685BB14B
:104F80000C46FFF7DFFF054648B1C06865F077FFC4
:104F900040B12560002038BD6FF00C00FBE76FF0DA
:104FA0000100F8E76FF01200F5E700BFE8330020DA
:104FB00010B582B00C460A6843689A4205D84A6820
:104FC00013444B60012002B010BD1C4B1B6813F052
:104FD000070F02D100206060F5E70820FFF70CF909
:104FE00000226FF300026FF341026FF382026FF34E
:104FF000C502012363F388120C2363F353226FF37A
:105000001F528446A0B110F1100303D00C49416136
:105010000C49816163B103238DF8043000238DF8BE
:1050200005308DF806308DF807300198CCF8100067
:1050300000230249604656F005FCCBE7844F002070
:1050400038D5080010D7080010B584B0044643686E
:1050500002930023039302AA3E49C0685EF05FFBFF
:10506000039A3AB16369A1690B449A423AD300208A
:1050700004B010BD384B1B6813F0070F02D16FF05E
:105080000D00F5E70820FFF7B7F800226FF30002E4
:105090006FF341026FF382026FF3C502012363F3E2
:1050A00088120C2363F353226FF31F52044698B106
:1050B00010F1100303D029494161294981615BB195
:1050C00003238DF8043000238DF805308DF8063069
:1050D0008DF807300198206100231F49204656F0C3
:1050E000B1FBCCE71C4B1B6813F0070F02D16FF02C
:1050F0000D00BDE70820FFF77FF800226FF30002E4
:105100006FF341026FF382026FF3C502012363F371
:1051100088120C2363F353226FF31F52044698B195
:1051200010F1100303D00F4941610D4981615BB15A
:1051300003238DF8043000238DF805308DF80630F8
:105140008DF807300198206100230349204656F06E
:1051500079FBCCE7B14F0200844F00205CD50800FA
:1051600028D708007CD5080030B585B043698B424C
:105170004CD80446CB1A8269934247D2C06801AA30
:105180005EF0C7FA0546002878D1236A01998B4260
:1051900079D0029AE06856F010FD0546002800F02C
:1051A000A580544B1B6813F0070F6CD00820FFF745
:1051B00023F800226FF300026FF341026FF38202C3
:1051C0006FF3C502012363F38812102363F35322A4
:1051D0006FF31F52044698B1C31804D04649416189
:1051E00046498161C5615BB104238DF8003000231D
:1051F0008DF801308DF802308DF803300098206171
:1052000000233C49204656F01DFB3CE0394B1B680F
:1052100013F0070F02D16FF0210534E00820FEF7EC
:10522000EBFF00226FF300026FF341026FF3820283
:105230006FF3C502012363F388120C2363F3532237
:105240006FF31F52044698B110F1100303D02C499C
:1052500041612A4981615BB103238DF8003000234D
:105260008DF801308DF802308DF803300098206100
:1052700000232049204656F0E5FACCE71D4B1B6879
:1052800013F0070F02D1284605B030BD0820FEF705
:10529000B3FF00226FF300026FF341026FF382024B
:1052A0006FF3C502012363F38812102363F35322C3
:1052B0006FF31F52044698B1C31804D011494161DD
:1052C0000E498161C5615BB104238DF80030002374
:1052D0008DF801308DF802308DF803300098206190
:1052E00000230449204656F0ADFACCE7019B236227
:1052F000C9E700BF844F0020F4D5080058D7080044
:10530000A8D50800CCD5080070B582B046690369FD
:105310001E44816819B90025284602B070BD0446B4
:1053200031440139FFF720FF051E16DB626AA368CE
:10533000B3FBF2F502FB1535002D45D1A3682B44D4
:10534000E068226881684D683146A8470546002814
:1053500043D1E369002B7CD18EE0814B1B6813F0B5
:10536000070FD9D00A20FEF747FF00226FF3000293
:105370006FF341026FF382026FF3C502012363F3FF
:105380008812142363F353226FF31F520446A8B10B
:1053900010F1100305D07349416173498161C56102
:1053A00006625BB105238DF8043000238DF80530CB
:1053B0008DF806308DF80730019820610023684988
:1053C000204656F03FFAA7E7551B20682A4694F876
:1053D0002810184466F0FCF9B0E7614B1B6813F025
:1053E000070F99D00A20FEF707FF00226FF3000293
:1053F0006FF341026FF382026FF3C502012363F37F
:105400008812142363F353226FF31F520446A8B18A
:1054100010F1100305D05549416153498161C561BF
:1054200006625BB105238DF8043000238DF805304A
:105430008DF806308DF80730019820610023484927
:10544000204656F0FFF967E72268535DDB4353556A
:105450000135A368AB42F7D8E068226881680D681F
:105460003146A847054670B9E3693246A16820680D
:105470009847054600283CD12369A268134423615C
:105480000023A36048E7364B1B6813F0070F3FF477
:1054900043AF0820FEF7B0FE00226FF300026FF367
:1054A00041026FF382026FF3C502012363F3881296
:1054B000102363F353226FF31F52044698B1C318AD
:1054C00004D02B49416128498161C5615BB1042346
:1054D0008DF8043000238DF805308DF806308DF8F6
:1054E00007300198206100231D49204656F0AAF993
:1054F00012E71B4B1B6813F0070F3FF40DAF08209A
:10550000FEF77AFE00226FF300026FF341026FF3A1
:1055100082026FF3C502012363F38812102363F341
:1055200053226FF31F52044698B1C31804D0114997
:1055300041610D498161C5615BB104238DF804307F
:1055400000238DF805308DF806308DF8073001986E
:10555000206100230249204656F074F9DCE600BFC2
:10556000844F002014D608004CD7080048D6080005
:1055700070D608008CD608002DE9F04383B0DDF822
:105580002890DDF82C80002800F0E7800D461746B3
:105590001E460446002900F0E380002A00F0E38064
:1055A0008B68DB68084698470168B6FBF1F301FB9E
:1055B000136353BBB9FBF1F301FB1393002B5CD1D5
:1055C000B8F1000F00F09180B8FBF1F301FB1383F9
:1055D000002B40F08A80E56027606660002323612D
:1055E000A360C4F81490C4F81880036863620C9B2D
:1055F000E3614FF0FF332362437984F8283020467B
:10560000FFF722FD03B0BDE8F083584B1B6813F091
:10561000070F02D16FF00D00F4E70820FEF7ECFD54
:1056200000226FF300026FF341026FF382026FF307
:10563000C502012363F388120C2363F353226FF333
:105640001F52044698B110F1100303D0484941613C
:10565000484981615BB103238DF8043000238DF844
:1056600005308DF806308DF8073001982061002351
:105670003E49204656F0E6F8CCE73C4B1B6813F059
:10568000070F02D16FF00D00BCE70820FEF7B4FD54
:1056900000226FF300026FF341026FF382026FF397
:1056A000C502012363F388120C2363F353226FF3C3
:1056B0001F52044698B110F1100303D02E494161E6
:1056C0002C4981615BB103238DF8043000238DF8F0
:1056D00005308DF806308DF80730019820610023E1
:1056E0002249204656F0AEF8CCE7204B1B6813F059
:1056F000070F02D16FF00D0084E70820FEF77CFD54
:1057000000226FF300026FF341026FF382026FF326
:10571000C502012363F388120C2363F353226FF352
:105720001F52044698B110F1100303D01349416190
:10573000104981615BB103238DF8043000238DF89B
:1057400005308DF806308DF8073001982061002370
:105750000649204656F076F8CCE76FF00D0051E789
:105760006FF00D004EE76FF00D004BE7844F002007
:10577000A4D6080038D70800E0D60800F8D60800FC
:1057800010B586B0074C24788DF817400124029498
:105790000DF117040194BDF82040009432F0F0FFA1
:1057A00006B010BD184F002000B583B08DF807007B
:1057B000C3B2642B0ED80A4A137001230DF10702FD
:1057C0000849002056F050FA10F1800F05D003B0C0
:1057D0005DF804FB6FF01500F9E70020F7E700BF64
:1057E000184F002094D708002DE9F8430F4B1D688F
:1057F000CDB180460F4614460D4E4FF0FF324FF0AC
:10580000FF3330464CF08CFB6B68D3F81090234686
:105810003A4641462846C847044630464CF06AFCA2
:105820002046BDE8F8836FF00104F9E7A8B900202D
:10583000C052002000230360054B5B681BB1186059
:10584000034B58607047024B58601860704700BFA8
:10585000ACB90020014B1860704700BFA8B9002008
:1058600030B585B005460023019302930393019060
:105870004FF0FF324FF0FF330E484CF051FB0E4B10
:105880001C6864B163681B6801A9204698472346D9
:105890002468002CF5D0002BF3D11C46F1E72846F4
:1058A00000F050F9044603484CF024FC204605B0B3
:1058B00030BD00BFC0520020ACB9002010B584B08C
:1058C0000190029103924FF0FF324FF0FF330C48EA
:1058D0004CF026FB0B4B1C6864B163681B6801A984
:1058E0002046984723462468002CF5D0002BF3D19E
:1058F0001C46F1E702484CF0FDFB002004B010BD4F
:10590000C0520020ACB90020024B00221A605A603D
:10591000704700BFACB9002008B5034B00221A60E5
:105920005A60FFF7F1FF08BDB4B90020F0B583B0AD
:1059300006460F4609B100230B602D4C002504E0FC
:105940000FB1019B3B60254618342A4B9C4219D865
:10595000284B9C4220D201AA2168304656F013FA07
:105960000028F1D0002DEBD000222968206856F0E5
:105970000AFA0028E8D01FB1019B3B602546E3E707
:105980002546E1E71C4C9C2221461C4855F09AF81C
:105990009C21204655F08DF8194B1C683CB1183CF1
:1059A00005E014F1180317D0A46904B1183CE4B160
:1059B00001AA2168304656F0E6F90028F1D06DB111
:1059C00000222968206856F0DEF90028ECD057B193
:1059D000019B3B602546E7E71C46E8E70FB1019BCA
:1059E0003B602546E0E72546DEE7284603B0F0BDEC
:1059F0000CC808009CC808000CD8080088CE080015
:105A0000B4B900202DE9F04786B002AF04460E4637
:105A1000904699463D6BF860B5B1296821B107F110
:105A20000C0256F0B0F958B1D5F804A0BAF1000F45
:105A30000AD0AB68F86800934B4642463146D047DF
:105A40001037BD46BDE8F08707F10C012046FFF78F
:105A50006DFF00286BD0C5684B4642463146F8685A
:105A6000A8470028ECD0344B1B6813F0070F60D018
:105A70006D4601233B7203237B728AB002AE16F19E
:105A800010021DD04FF0160C4AB16346BCF1040F52
:105A900001DD2A497161082B01DD294BB361012326
:105AA0003B7103237B71C2B16346BCF10C0F00DD77
:105AB000F461102B00DD306206F1240300210AE0BE
:105AC0006FF0004CE0E701F11000384410F80C0CC6
:105AD00003F8010B01310129F5D9BCF1150F23DDC4
